S01600006C656265645F73656C5F74756E652E7372656354
S113000066C00000AAC00000A8C00000A6C000008E
S1130010A4C00000A2C00000A0C000009EC0000058
S11300209CC000009AC0000098C0000096C0000068
S113003094C0000092C0000090C000008EC0000078
S11300408CC000008AC0000088C0000086C0000088
S113005084C0000082C0000080C000007EC0000098
S11300607CC000007AC0000078C0000076C00000A8
S113007074C0000072C000000C945B116EC00000DC
S11300806CC000006AC0000068C00000CB13DA1323
S11300901E1230119110351724125F12931097100D
S11300A0EB1254111215E210B810851407070C0254
S11300B00101071300000200000000078046858448
S11300C0868790919281959697FF98994217E4E5D7
S11300D0F5E0E370FF27EC5AFA4F2FEF30E12C7F65
S11300E0E217F30758F48EED9DEAAEEBBFEE819371
S11300F09193A193B193E217F307C8F311241FBEA0
S1130100CFEFD0E1DEBFCDBF13E0A0E0B1E0EEE67B
S1130110F4E300E00BBF02C007900D92A436B107D0
S1130120D9F725E0A4E6B3E001C01D92A435B207D7
S1130130E1F710E0CEECD0E000E006C02297010920
S1130140FE010BBF0E94E319CC3CD10780E00807F5
S1130150A9F70E943A170C94351A52CF8770806E13
S113016087B986EC86B9369B05C087E08A95F1F796
S113017000C0F9CF85B108951F93CF93DF93182F53
S1130180C0E0D1E088EB8A95F1F70000812FE6DF2B
S11301908C1719F0DC2FC82FF5CFCD13FBCFDF91CF
S11301A0CF911F910895CF93DF93CDB7DEB76897B2
S11301B00FB6F894DEBF0FBECDBF28E1EDE3F2E049
S11301C0DE01119601900D922A95E1F7A89824E09A
S11301D02A95F1F7FE013196AE01475E5F4F2191FA
S11301E03191B901682379236217730711F0A99833
S11301F001C0A99AA89A2FE02A95F1F7A898E417C4
S1130200F50769F7A99868960FB6F894DEBF0FBE94
S1130210CDBFDF91CF910895CF93DF93CDB7DEB7F4
S113022028970FB6F894DEBF0FBECDBF98E0E5E582
S1130230F2E0DE01119601900D929A95E1F7A898EB
S113024094E09A95F1F7FE0131969E01275F3F4FA6
S11302509191492F4823491711F0A99801C0A99AEF
S1130260A89A9FE09A95F1F7A898E217F30781F707
S1130270A99828960FB6F894DEBF0FBECDBFDF91C4
S1130280CF910895CF93DF93CDB7DEB728970FB6FC
S1130290F894DEBF0FBECDBF88E0E5E5F2E0DE01F5
S11302A0119601900D928A95E1F7FE0131969E0117
S11302B0275F3F4F80E0A8989BE09A95F1F70000F4
S11302C093B3419192FB992790F9499F800D112492
S11302D0A89A97E09A95F1F700C0E217F30759F747
S11302E0A89828960FB6F894DEBF0FBECDBFDF9155
S11302F0CF910895EF92FF921F93CF93DF9300D095
S1130300CDB7DEB7AE98AF98AD9869837A834BDFEB
S113031084E08A95F1F76981E62E7A81F72E14E05C
S1130320F70181917F0178DF1150D1F7AD9A0F90D9
S11303300F90DF91CF911F91FF90EF900895EF926E
S1130340FF921F93CF93DF9300D0CDB7DEB7AE9863
S1130350AF98AD9869837A8326DF84E08A95F1F7B4
S11303606981E62E7A81F72E14E08CDFF701819300
S11303707F011150D1F7AD9A0F900F90DF91CF917B
S11303801F91FF90EF9008950F931F93CF93DF93E6
S1130390EC01A8E9B2E0EFEFFFEF20E030E06AE023
S11303A04D915D91649FC001659F900D11248C1740
S11303B09D0728F42530310509F459C0F9012F5F50
S11303C03F4F2630310561F7EF3F8FEFF80709F40F
S11303D051C08F01000F111FD801A856BD4F8D9138
S11303E09C914AE0489F9001499F300D11242C179D
S11303F03D0758F4D801A457BD4F6D917C91CE01AF
S1130400821B930B0E94BC1902C060E070E0D8010B
S1130410A457BD4F4D915C91649FC001659F900DA1
S1130420749F900D1124C81BD90BC21BD30BA0E8D9
S1130430B2E080E090E020E030E02E173F0739F092
S11304400D911D91800F911F2F5F3F4FF6CF569551
S11304504795C417D50710F06F5F7F4F680F791F5A
S113046026E0269FC001279F900D112405C08BEF25
S113047094E002C080E090E0DF91CF911F910F9152
S11304800895DC01E2E7F2E080E090E06D914191B3
S113049051916F70649F9001659F300D1124820FFC
S11304A0931F22E0E038F20789F76ECF65D18DE51E
S11304B092E075D12FEF8FED90E121508040904074
S11304C0E1F700C000000895EF92FF920F931F938D
S11304D0CF93DF93F42EE62E8C01EB018C2F8E1933
S11304E08F15F8F48BD080EACED0813009F4DEDFAA
S11304F0812FC9D0813009F4D9DF802FC4D0813055
S113050009F4D4DF8991BFD0813009F4CFDF88D0DA
S11305108FEF95E30197F1F700C000000F5F1F4FC5
S1130520DDCFDF91CF911F910F91FF90EF90089550
S113053046E0CACF41E09A95C7CFDF92EF92FF928F
S11305400F931F93CF93DF93EC01F62E072FD42E36
S113055055D080EA98D011E0813009F010E089810B
S113056092D0813009F41F5F88818DD0813009F4E5
S11305701F5F44D081EA87D0813009F0111196DFE2
S1130580CF2DD02F00E010E0ED2CF12C81E0E81A03
S1130590F1080D1550F481E00E151F0509F080E0F7
S11305A07AD089930F5F1F4FF4CFDF91CF911F91C2
S11305B00F91FF90EF90DF9033C0CF93DF9300D083
S11305C0CDB7DEB79A83898346E0CE010196B5DFC5
S11305D00F900F90DF91CF910895CF93DF9300D0C8
S11305E0CDB7DEB79A959A83898341E0CE0101960F
S11305F0A4DF0F900F90DF91CF91089587B3877E8A
S113060087BB8BE08A95F1F70000BB9A8BE08A9553
S1130610F1F70000BC9A8BE08A95F1F70000089589
S113062087B3886187BB8BE08A95F1F70000BC989B
S11306308BE08A95F1F70000BB988BE08A95F1F77F
S11306400000089587FF02C0BB9801C0BB9A2BE04D
S11306502A95F1F70000BC9890E0B49908C09F3F38
S113066031F02BE02A95F1F700009F5FF6CF9BE075
S11306709A95F1F7000096B3BC9A880F93FB9927DB
S113068090F9892B0895CF93C8E0DCDFC150E9F7D6
S113069080E8CF91D7CF1F93CF93DF93182FD8E063
S11306A0CFEF8C2FCFDFC82FD150D9F7812F87956B
S11306B088278795C7DF8C2FDF91CF911F910895ED
S11306C0AE9A83E08A95F1F700C0AE9808951F931F
S11306D0CF93DF931F92CDB7DEB7662311F0AC9AA8
S11306E001C0AC98AD9894B39F6094BB15B3107FD0
S11306F0982F92959F70912B95BB8983E1DF898117
S11307008F70812B85BBDCDF1F6015BB0F90DF91E1
S1130710CF911F910895AC98AD9A84B3807F84BB28
S1130720AE9A83E08A95F1F700C083B3AE9893E064
S11307309A95F1F700C0AE9A93E09A95F1F700C04C
S113074093B3AE989F708295807F892B0895E3DFE1
S113075087FDFDCF8EE08A95F1F700C0DCCFCF9303
S1130760C82FF5DF60E08C2FCF91B1CF611102C0AB
S1130770805801C08054F3CF81E0F1CFCF93C82FCC
S1130780E6DFCA3041F4803410F480E401C080E034
S11307908058CF91E4CF61E08C2FCF9198CFCF9345
S11307A0DF93EC018991882311F0E8DFFBCFDF911F
S11307B0CF910895CF93C82F94B39F6794BB8FEDC7
S11307C09BEA0197F1F700C00000A99AA89A78DF84
S11307D085EB95E30197F1F700C0000071DF9AEE15
S11307E09A95F1F700C06CDF8AEE8A95F1F700C0A4
S11307F0A89866DF9AEE9A95F1F700C088E2AFDF19
S113080088E0ADDFB9DF86E0AADF8C2FCF91A7CFD8
S113081008953F924F925F926F927F928F929F9230
S1130820AF92BF92CF92DF92EF92FF920F931F93FA
S1130830CF93DF93CDB7DEB7FC01FC8C5D8C6E8C5F
S11308403F8C78A049A0708F678B528F418F318382
S11308502083F0AADC01AA5BBF4F3C92139681E08F
S11308608C9311971C92E68AB801CF0140E002965E
S11308704E1549F0DB012D913D91BD01DC012D9315
S11308803C934F5FF4CFFF2029F0652D762D80E057
S113089090E004C081E0838F81AB1EC08F1558F4B3
S11308A0DB014D91BD019F01280F391FD9015B96D2
S11308B04C930196F3CF672D742D80E090E083155F
S11308C058F4DB014D91BD019F01280F391FD90157
S11308D0D1964C930196F3CFDF01A45BBF4FC114B3
S11308E0D10429F488E094E08D939C9302C0CD92C6
S11308F0DC92DF01A85ABF4F8114910429F488E0E7
S113090094E08D939C9302C08D929C92DF01A25B34
S1130910BF4FA114B10429F488E094E08D939C9313
S113092002C0AD92BC92DF01A05BBF4F8C899D8950
S1130930892B19F488E094E002C08C899D898D93F9
S11309409C93DF01AE5ABF4F8E899F89892B19F47E
S113095088E094E002C08E899F898D939C93DF0187
S1130960AC5ABF4F888D998D892B19F488E094E097
S113097002C0888D998D8D939C93DF01AA5ABF4F35
S11309808A8D9B8D892B19F488E094E002C08A8DAE
S11309909B8D8D939C93DF01A65BBF4FFC92E55B1F
S11309A0FF4F3082DF91CF911F910F91FF90EF9015
S11309B0DF90CF90BF90AF909F908F907F906F907B
S11309C05F904F903F9008952F923F924F925F9285
S11309D06F927F928F929F92AF92BF92CF92DF924B
S11309E0EF92FF920F931F93CF93DF93CDB7DEB7B0
S11309F0C658D1400FB6F894DEBF0FBECDBF86E116
S1130A00582EAE014F5F5F4FDA01E52D1D92EA9536
S1130A10E9F79E01295E3F4FD901E52D1D92EA9524
S1130A20E9F7FE01E75FFE4FDF0185E11D928A953C
S1130A30E9F7A5E8B3E0B183A08377247394748ABB
S1130A4085E1DE01A85BBE4F01900D928A95E1F726
S1130A50B3E0BF8B94E0492E488EE5E0E98FF6E0E1
S1130A60FA8F87E08B8F69E0F62EFC8E9AE09D8FDB
S1130A70A0E1AE8F78E0672E6CA6CE018B579F4F16
S1130A8066E1F901DC0101900D926A95E1F7798242
S1130A90FA82BCE0BB83E2E12E2E2C824E8A2C57D4
S1130AA03F4F66E1FA01D90101900D926A95E1F791
S1130AB03F932F934F929F938F936F928DEC96E178
S1130AC09F938F9385E696E19F938F93AEE8B7E06B
S1130AD0BF93AF93ACEDB7E0BF93AF93FAE48F2E1F
S1130AE0FBE09F2EABE1AA2EA8E0BA2EB7E6CB2EF0
S1130AF0B5E1DB2EEE24E3948E01085B1E4F24E95E
S1130B0034E049EA52E06DEB72E0C90182DEAE01E5
S1130B10435D5F4FDA01E52D1D92EA95E9F7CE01B9
S1130B208D5B9F4FDC01E52D1D92EA95E9F7FE01EF
S1130B30E25EFE4FDF0125E11D922A95E9F72AE3E3
S1130B4034E031832083748A25E1DE01A35ABE4F49
S1130B5001900D922A95E1F7DC017C921196FC92AA
S1130B601197EAE01296EC931297FCE01396FC932B
S1130B7013976DE014966C9314972FE015962C93AD
S1130B80159730E116963C93169717962C92179763
S1130B9023E1322E18963C9218975596FC929E01AA
S1130BA02F543F4F76E1FC01D90101900D927A95C3
S1130BB0E1F7FDA68AE08EA79CE09FA768ABAFE0B3
S1130BC0A9ABB0E1BAAB2BAA3CAA23966FAE23978C
S1130BD0CE0189539F4F66E1FA01DC0101900D9229
S1130BE06A95E1F79F938F936F923F932F93FF92B0
S1130BF089EC98E09F938F9384E898E09F938F9378
S1130C00AEE8B7E0BF93AF93ACEDB7E0BF93AF935B
S1130C1035EE832E3BE0932E44E5A42E48E0B42E1B
S1130C205DE3C52E59E0D52E0B5E1F4F24E934E059
S1130C3042ED52E067EE72E08AE394E0EADD8CEF85
S1130C4092E09093F7038093F60381E193E090930D
S1130C50F9038093F80384E994E09093E00380938C
S1130C60DF0310920F04109225047092280410924E
S1130C7027047092F5039093E2038093E10370924A
S1130C80FA037092100488E094E090932C0480930B
S1130C902B040FB6F894DEBF0FBECDBF2EEF3EE09F
S1130CA030933804209337042FE039E030932E0436
S1130CB020932D049093300480932F049093320456
S1130CC080933104909334048093330490933604D6
S1130CD0809335041092290410922A04CE01875A75
S1130CE09F4FDC01E52D1D92EA95E9F79E012159FC
S1130CF03F4FD9011D925A94E9F7FE01ED5CFE4F76
S1130D00DF0145E11D924A95E9F7A5E8B3E0B18317
S1130D10A083748A45E1DE01AE58BE4F01900D9266
S1130D204A95E1F743E0F901408341826282F3820C
S1130D304EE044835FE05583368264E16783658ACD
S1130D40AE0143525F4F76E1DA0101900D927A953C
S1130D50E1F7DC014C92E5E01196EC931197F6E093
S1130D601296FC93129727E013962C9313971496DC
S1130D706C92149721E115962C93159716962C9244
S1130D80169717963C92179718966C931897559642
S1130D90FC929E012D503F4F66E1FC01D901019068
S1130DA00D926A95E1F73F932F93FF925F934F93D0
S1130DB06F928BE29AE09F938F9386E599E09F93DD
S1130DC08F938EEA97E09F938F938DEE97E09F9396
S1130DD08F9367EA862E6CE0962E77E1A72E79E052
S1130DE0B72EEAE6CE2EE3E1DE2E0B5E1F4F24E99A
S1130DF034E046E253E06BE373E085E893E009DD19
S1130E000FB6F894DEBF0FBECDBFCA57DE4F0FB684
S1130E10F894DEBF0FBECDBFDF91CF911F910F912C
S1130E20FF90EF90DF90CF90BF90AF909F908F9006
S1130E307F906F905F904F903F902F900895FC01AA
S1130E40E75BFF4F2081213039F431973081FC0179
S1130E50E30FF11D338D0AC0223041F4FC01E85B3D
S1130E60FF4F3081FC01E30FF11D31A9C901089541
S1130E70FC01E85BFF4F4081242F30E0DC01A75BDD
S1130E80BF4F5C91850F911DDC01A75BBF4F8C9117
S1130E9090E001972817390711F4108208954F5FE5
S1130EA040830895FC01E85BFF4F208121110DC0B0
S1130EB0DC01A75BBF4F2C91820F911DDC01A75B66
S1130EC0BF4F8C91815080830895215020830895D1
S1130ED0FC01E75BFF4F2081213051F4DC01A55B6D
S1130EE0BF4F2C91222391F022E0208331970DC033
S1130EF0223061F4DC01A65BBF4F2C91222331F038
S1130F0021E02083FC01E85BFF4F10820895FC017F
S1130F10E85AFF4F0190F081E02D0994CF93DF93BD
S1130F20EC01FC01E85BFF4F208130E031968081C9
S1130F30813011F488A904C0FE01EA5BFF4F80816F
S1130F4090E001972817390719F4CE01C1DF02C0D8
S1130F50CE018EDFCE01DF91CF91D9CF0F931F93B6
S1130F60CF93DF93EC01DADF8E01075B1F4FF801AB
S1130F708081813049F43197E081E695F0E0EE5FBD
S1130F80FE4F80810E94D017F8018081823079F46D
S1130F90C85BDF4FE881E695E695F0E0E050FF4F4F
S1130FA08081DF91CF911F910F910C94D017DF9125
S1130FB0CF911F910F910895CF93DF93EC01FC0122
S1130FC0E85BFF4F8081811102C0CE0181DFCE0139
S1130FD069DFCE01DF91CF919ACF0F931F93CF9307
S1130FE0DF93EC01E9DF8E01075B1F4FF80180817D
S1130FF0813049F43197E081E695F0E0EE5FFE4FF1
S113100080810E94D017F8018081823079F4C85B16
S1131010DF4FE881E695E695F0E0E050FF4F8081F0
S1131020DF91CF911F910F910C94D017DF91CF9145
S11310301F910F910895FC01E85BFF4F10823196D8
S113104021E02083FC01808191819093530580935A
S113105052051092EF0485E08FD88093EE048091BE
S1131060490581110CC08FED93E051DFFFEF2FE9AB
S113107082E3F15020408040E1F700C000008091FD
S11310804905813061F485E893E041DF9FEFEFE9A2
S1131090F2E39150E040F040E1F700C0000080919D
S11310A052059091530533CFFC01E75BFF4F20813C
S11310B0DC01A85BBF4F213019F42C912223E1F00D
S11310C01C9281E0808369EF74E08FEF9FE037D951
S11310D06DEF74E08EEF9FE032D961E075E08DEF43
S11310E09FE02DD965E075E08CEF9FE028D98091D1
S11310F05205909153050BCFFC018081918190930F
S1131100530580935205DFCFFC01E85BFF4F40811C
S1131110319620913904411103C03081313089F175
S1131120E0813E2F3170431BE695342F369540FD08
S113113013C0F0E0E20FF11DE20FF11DEE0FFF1FEF
S1131140EE0FFF1FE051FB4FE30FF11D3185232FFD
S1131150207F205F3F7012C0F0E0E20FF11DE20F2C
S1131160F11DEE0FFF1FEE0FFF1FE051FB4FE30FCA
S1131170F11D318521E0230F2F70307F232B218730
S1131180C6CE211103C030933904FACF109239042A
S1131190F7CFFC01E85BFF4F408131962091390481
S11311A0411103C03081313089F1E0813E2F31702B
S11311B0431BE695342F369540FD13C0F0E0E20F53
S11311C0F11DE20FF11DEE0FFF1FEE0FFF1FE051A7
S11311D0FB4FE30FF11D3185232F207F20513F70FA
S11311E012C0F0E0E20FF11DE20FF11DEE0FFF1F40
S11311F0EE0FFF1FE051FB4FE30FF11D31852FEF81
S1131200230F2F70307F232B218781CE222321F0BF
S1131210215020933904F9CF30933904F6CFFC01DF
S113122080819181909353058093520570CEFC0187
S1131230E75BFF4F2081213021F431972081222365
S113124081F08091520590915305FC01E85BFF4FBA
S11312501082319621E020838091520590915305AC
S113126056CEFC0180819181909353058093520561
S1131270F3CF42E650E00C94151A60E070E080EF82
S113128094E0F7DF69EF74E08FEF97E033D86DEF08
S113129074E08EEF97E02ED861E075E08DEF97E073
S11312A029D865E075E08CEF97E024C8CF93DF93ED
S11312B0EC01E0915205F0915305E75BFF4F80810B
S11312C0813009F051C0FE01E85BFF4F4081842F5B
S11312D0869590E0FC01EE0FFF1FE65FFE4F019044
S11312E0F081E02D7081272F30E0642F617040FF82
S11312F003C04FE050E002C040EF50E042235323CC
S1131300611102C024E001C020E0DA0102C0B595F9
S1131310A7952A95E2F79D01AF3010F42F5F01C025
S113132020E0611102C03FE001C030EF7323422F7F
S113133050E0662311F030E001C034E0DA0102C06D
S1131340AA0FBB1F3A95E2F79D01270F2083FC01EA
S1131350EE5FFE4F60818AE495E00E94591860E0D8
S113136070E080EF94E085DFE0915205F091530541
S1131370E75BFF4F8081823009F066C0CE015FDDFC
S11313809151913170F4CE015ADDE92FF0E0E15230
S1131390FB4F8281893018F48F5F828355C012829B
S11313A053C0C85BDF4F2881822F65E00E94B019CB
S11313B0C82FD0E0FE01EE0FFF1FEA5FFE4F019041
S11313C0F081E02DA081B181243021F41196B18304
S11313D0A0832EC030E02095309523703327220F50
S11313E0331F220F331F6FE070E0022E02C0660F1E
S11313F0771F0A94E2F7AB014A235B23022E02C053
S1131400569547950A94E2F74F3010F44F5F01C0A8
S113141040E050E002C0440F551F2A95E2F79B01BB
S1131420209530952A233B23420F531F5183408339
S1131430C050DF4F68818AE495E00E94591860E04B
S113144070E080EF94E015DF809152059091530590
S1131450DF91CF915CCDCF93DF93EC018091520566
S113146090915305FC01E75BFF4F2081213009F087
S11314704FC031974081842F869590E0FC01EE0F98
S1131480FF1FE65FFE4F0190F081E02D7081272F52
S113149030E0642F617040FF03C04FE050E002C0B1
S11314A040EF50E042235323611102C024E001C005
S11314B020E0DA0102C0B595A7952A95E2F79D01CF
S11314C0AA2311F0215001C02FE0611102C03FE0B6
S11314D001C030EF7323422F50E0662311F030E057
S11314E001C034E0DA0102C0AA0FBB1F3A95E2F74B
S11314F09D01270F2083FC01EE5FFE4F60818AE48B
S113150095E00E94591860E070E080EF94E0B1DE4D
S1131510E0915205F0915305E75BFF4F80818230E3
S113152009F06AC0CE018BDC9151913170F4CE0187
S113153086DCE92FF0E0E152FB4F8281882311F031
S1131540815001C089E0828357C0E0915205F09137
S11315505305E85BFF4F2081822F65E00E94B0199C
S1131560C82FD0E0FE01EE0FFF1FEA5FFE4F01908F
S1131570F081E02DA081B181243021F41197B18351
S1131580A0832EC030E02095309523703327220F9E
S1131590331F220F331F6FE070E0022E02C0660F6C
S11315A0771F0A94E2F7AB014A235B23022E02C0A1
S11315B0569547950A94E2F7442311F0415001C02F
S11315C04FE050E002C0440F551F2A95E2F79B01FB
S11315D0209530952A233B23420F531F5183408388
S11315E0C050DF4F68818AE495E00E94591860E09A
S11315F070E080EF94E03DDE8091520590915305B8
S1131600DF91CF9184CC0F931F93CF93DF938B0102
S1131610EA0129E2FA0111922A95E9F7FC01019005
S11316200020E9F7AF0141505109481B590BBC0197
S1131630CE010E94011AF80101900020E9F7AF01E0
S113164041505109401B510BB801CE014496DF9122
S1131650CF911F910F910C94011ACF93DF9300D077
S1131660CDB7DEB789839A8387D889819A8197D841
S11316708091520590915305E2DB692F80915205C8
S1131680909153056983DBDB69810F900F90DF91A3
S1131690CF916CC8CF93DF93EC016F89788DFB01F8
S11316A001900020E9F7AF0141505109461B570B47
S11316B04531510510F044E150E080E591E00E948D
S11316C0011A698D7A8DFB0101900020E9F7AF01C1
S11316D041505109461B570B4531510510F044E167
S11316E050E08BE391E00E94011A8091F004811193
S11316F007C080911A0190911B01A0911C0106C0A2
S113170080911E0190911F01A091200180933B01C3
S113171090933C01A0933D0168E570E08BE391E078
S11317200E940A1A2091F10430E0F901EE0FFF1F24
S1131730E20FF31FEC5EFE4F20813181FC01318307
S1131740208320E030E0C0E5D1E0FE0101900020DC
S1131750E9F73197E055F140822F90E08E179F070B
S113176098F4DC01A05BBE4F8C91883559F4E32FCB
S1131770F0E0E051FB4FE281F0E0E75DFE4F808155
S11317808C933F5F2F5FE1CF8091490568E570E05E
S1131790811107C08BE391E00E940A1A2091120183
S11317A006C08BE391E00E940A1A20911301FC0108
S11317B0208345E651E06BE371E080E591E023DFAF
S11317C085E691E0DF91CF9148CFEF92FF920F939E
S11317D01F93CF93DF93EC016F89788DFB01019008
S11317E00020E9F7AF0141505109461B570B453121
S11317F0510510F044E150E080E591E00E94011AA7
S1131800698D7A8DFB0101900020E9F7AF01415009
S11318105109461B570B4531510510F044E150E086
S11318208BE391E00E94011A68E570E080E591E0A5
S11318300E940A1AC0913904D0E0FE01E75DFE4F10
S11318402081FC01208368E570E080E591E00E943E
S11318500A1A7E01EE0CFF1C8701075D1E4FF8017A
S11318602081FC01208368E570E08BE391E00E9415
S11318700A1AF8012181FC01208300E010E040E510
S113188051E0CE0163E0880F991F6A95E1F7970153
S1131890220F331F220F331F80519B4F2C503B4F7D
S11318A0E0E2FE2EFA0101900020E9F73197E055BD
S11318B0F140A02FB0E0AE17BF07C8F5FD01E05B13
S11318C0FE4F6081A55CBE4F683539F5612F669582
S11318D070E0EC01C60FD71FC98510FD0DC0C2957D
S11318E0CF70D0E0C75DDE4FC881C083E901C60F69
S11318F0D71FC985C2950AC0CF70D0E0C75DDE4F3F
S1131900C881C083E901C60FD71FC985CF70D0E055
S1131910C75DDE4F68816C931F5F6081603409F49A
S1131920F0826C91603409F4FC920F5FBBCF45E602
S113193051E06BE371E080E591E065DE85E691E0DE
S1131940DF91CF911F910F91FF90EF9086CE1F935F
S1131950CF93DF93EC016F89788DFB010190002018
S1131960E9F7AF0141505109461B570B4531510569
S113197010F044E150E080E591E00E94011A698D85
S11319807A8DFB0101900020E9F7AF014150510924
S1131990461B570B4531510510F044E150E08BE3F1
S11319A091E00E94011A68E570E080E591E00E94F0
S11319B00A1AC0914A05AC2FA295AF70B0E0A75D9A
S11319C0BE4F2C91FC01208368E570E080E591E036
S11319D00E940A1ACF70EC2FF0E0E75DFE4F2081E1
S11319E0FC01208368E570E080E591E00E940A1A1A
S11319F0C0914B05AC2FA295AF70B0E0A75DBE4F70
S1131A002C91FC01208368E570E080E591E00E9460
S1131A100A1ACF70EC2FF0E0E75DFE4F2081FC0145
S1131A20208368E570E080E591E00E940A1AC09185
S1131A304C05AC2FA295AF70B0E0A75DBE4F2C91C2
S1131A40FC01208368E570E080E591E00E940A1AB9
S1131A50CF70EC2FF0E0E75DFE4F2081FC01208386
S1131A6068E570E080E591E00E940A1AC0914D0596
S1131A70AC2FA295AF70B0E0A75DBE4F2C91FC01D6
S1131A80208368E570E080E591E00E940A1ACF7037
S1131A90EC2FF0E0E75DFE4F2081FC01208368E538
S1131AA070E08BE391E00E940A1AC0914E05D09138
S1131AB04F05FE01EF2FFF27E295EF70E75DFE4F24
S1131AC02081FC01208368E570E08BE391E00E94B3
S1131AD00A1AFE01EE27FF70EF2FFF0FFF0BE75DE1
S1131AE0FE4F2081FC01208368E570E08BE391E0E8
S1131AF00E940A1AFE01E07FFF2714E0F595E7959E
S1131B001A95E1F7E75DFE4F2081FC01208368E52B
S1131B1070E08BE391E00E940A1ACF70DD27C75D65
S1131B20DE4F2881FC01208385E00E94AE00182F3F
S1131B3068E570E08BE391E00E940A1AEC01A12FA2
S1131B40A295AF70B0E0A75DBE4F8C9188831F70E3
S1131B50E12FF0E0E75DFE4F80818093440168E56A
S1131B6070E08BE391E00E940A1AE091F204F0E045
S1131B70E75DFE4F2081FC01208368E570E08BE384
S1131B8091E00E940A1AE091F304F0E0E75DFE4F51
S1131B902081FC01208368E570E08BE391E00E94E2
S1131BA00A1AE091F404F0E0E75DFE4F2081FC01A5
S1131BB0208368E570E08BE391E00E940A1AE091CB
S1131BC0F504F0E0E75DFE4F2081FC01208320E076
S1131BD0A0E5B1E030E2FD0101900020E9F7319782
S1131BE0E055F140822F90E08E179F0780F4FC01AE
S1131BF0E05BFE4F4081403409F43083FC01E55C36
S1131C00FE4F8081803409F430832F5FE4CF45E6B2
S1131C1051E06BE371E080E591E0F5DC85E691E06D
S1131C20DF91CF911F9119CDCF93DF9320E030E066
S1131C30E0E0F0E0AFE0B0E0AD01421B530BEC019B
S1131C4002C0D695C7954A95E2F7AE014170552773
S1131C50022E02C0440F551F0A94E2F7E40FF51F49
S1131C602F5F3F4F2031310539F7DB01ED93FC93B2
S1131C70DF91CF910895CF92DF92EF92FF920F936D
S1131C801F93CF93DF9300D000D01F92CDB7DEB760
S1131C909A838983162F5C834B83BE016F5F7F4FCA
S1131CA02D83C2DF89819A8124E0969587952A95B0
S1131CB0E1F79A838983BE016D5F7F4F8B819C819D
S1131CC0B3DF4B815C81812F90E0982F8827929518
S1131CD0990F907EE981FA81FF708E0F9F1FF701A3
S1131CE0918380831877612F70E0A3E076956795E0
S1131CF0AA95E1F7407F640F751F7383628340E206
S1131D00402750E04095509580E0942F2D81820F1C
S1131D10911D820F911D45FBCC24C0F8D12C8C0D54
S1131D209D1D958384830F900F900F900F900F90BB
S1131D30DF91CF911F910F91FF90EF90DF90CF90A3
S1131D400895CF92DF92EF92FF920F931F93CF9358
S1131D50DF93EC016A01F701808191819F7099837F
S1131D60888342814F7080819181892F9927829540
S1131D708695877058E0459F800D1124DB018C9374
S1131D808281938144E0969587954A95E1F7D6013F
S1131D908D939C9384818695D9018C9384819581BC
S1131DA088279F73892F80958F7390E28927F80184
S1131DB08083BE018881998137DF8881998154E0CD
S1131DC0969587955A95E1F799838883B601D6014C
S1131DD08D919C9129DFF6018081918164E0969533
S1131DE087956A95E1F791838083DF91CF911F9165
S1131DF00F91FF90EF90DF90CF900895EF92FF92B4
S1131E000F931F93CF93DF93EC01409125015091E1
S1131E10260109E0E02E05E0F02E00912201209138
S1131E20230160912401809127019091280123DFEF
S1131E3002E211E023E231E045E251E064E271E0C4
S1131E4087E291E07EDF6F89788DFB0101900020AD
S1131E50E9F7AF0141505109461B570B4531510574
S1131E6010F044E150E080E591E00E94011A698D90
S1131E707A8DFB0101900020E9F7AF01415051092F
S1131E80461B570B4531510510F044E150E08BE3FC
S1131E9091E00E94011A68E570E080E591E00E94FB
S1131EA00A1AC0912201AC2FA295AF70B0E0A75DD1
S1131EB0BE4F2C91FC01208368E570E080E591E041
S1131EC00E940A1ACF70EC2FF0E0E75DFE4F2081EC
S1131ED0FC01208368E570E080E591E00E940A1A25
S1131EE0C0912401AC2FA295AF70B0E0A75DBE4FA6
S1131EF02C91FC01208368E570E080E591E00E946C
S1131F000A1ACF70EC2FF0E0E75DFE4F2081FC0150
S1131F10208368E570E080E591E00E940A1AC09190
S1131F202701D0912801FE01EE27FF70EF2FFF2734
S1131F30E75DFE4F2081FC01208368E570E080E5C9
S1131F4091E00E940A1AFE01E07FFF27A4E0F695C3
S1131F50E795AA95E1F7E75DFE4F2081FC01208318
S1131F6068E570E080E591E00E940A1ACF70DD27F1
S1131F70C75DDE4F2881FC01208368E570E08BE3B8
S1131F8091E00E940A1AC0910F05AC2FA295AF7080
S1131F90B0E0A75DBE4F2C91FC01208368E570E0A2
S1131FA08BE391E00E940A1ACF70EC2FF0E0E75D1A
S1131FB0FE4F2081FC01208368E570E08BE391E013
S1131FC00E940A1AC0912301AC2FA295AF70B0E011
S1131FD0A75DBE4F2C91FC01208368E570E08BE384
S1131FE091E00E940A1ACF70EC2FF0E0E75DFE4FFB
S1131FF02081FC01208368E570E08BE391E00E947E
S11320000A1AC0912501D0912601FE01EE27FF7026
S1132010EF2FFF27E75DFE4F2081FC01208368E559
S113202070E08BE391E00E940A1AFE01E07FFF2733
S113203014E0F695E7951A95E1F7E75DFE4F2081E8
S1132040FC01208368E570E08BE391E00E940A1AAA
S1132050CF70DD27C75DDE4F2881FC01208385E03A
S11320600E94AE00182F68E570E08BE391E00E94B7
S11320700A1AEC01A12FA295AF70B0E0A75DBE4F84
S11320808C91888368E570E08BE391E00E940A1AE2
S1132090DC011F70E12FF0E0E75DFE4F80818C933F
S11320A020E0A0E5B1E030E2FD0101900020E9F775
S11320B03197E055F140822F90E08E179F0780F40E
S11320C0FC01E05BFE4F4081403409F43083FC01A5
S11320D0E55CFE4F8081803409F430832F5FE4CFC8
S11320E045E651E06BE371E080E591E08CDA85E64A
S11320F091E0DF91CF911F910F91FF90EF90ADCAC6
S1132100F894282FFC018E2F821B861740F48091AF
S11321109B0085FFFCCF819180939C00F4CF789441
S1132120089561E0EDCF0C94007861E0E9CFCF939E
S1132130DF9300D000D000D0CDB7DEB785E00E9499
S1132140BC00982F92959F70905D9C838F70805DEA
S11321508D8383E08E8366E0CE010196D1DF2696DF
S11321600FB6F894DEBF0FBECDBFDF91CF910895B7
S11321700F931F93CF93DF931F92CDB7DEB788E9F8
S1132180898361E0CE010196BBDF00E010E0BE016F
S11321906F5F7F4FC8010E94ED0261E0CE0101969E
S11321A0AFDF0F5F1F4F0C31110589F783E089837F
S11321B061E0CE010196A4DF0F90DF91CF911F91D2
S11321C00F910895CF93DF931F92CDB7DEB78FEFB2
S11321D0898361E0CE01019693DF64E080E593E0BA
S11321E08FDF83E0898361E0CE01019689DF0F9060
S11321F0DF91CF9108958031910560F4FC01E4559D
S1132200FF4FE491F0E070E06250710981E0E6175D
S1132210F70709F080E00895CF93DF9300D0CDB79E
S1132220DEB786E1898383E08A8362E0CE0101968A
S113223067DF0F900F90DF91CF910895CF93DF93D5
S113224000D0CDB7DEB786E0898383E08A8362E07D
S1132250CE01019655DF0F900F90DF91CF91089535
S1132260EF92FF920F93FC01218102810F70F0E144
S11322702F9F000D112400932201409125015091BC
S1132280260189E0E82E85E0F82E20912301609153
S113229024018091270190912801EDDCC701F4D538
S11322A00F91FF90EF90CACF60E070E080EF94E070
S11322B00E943909C3CF1F920F920FB60F921124B7
S11322C00BB60F921F932F933F934F935F936F938C
S11322D07F938F939F93AF93BF93CF93DF93EF93AA
S11322E0FF93F894C0919C006C2F70E040E150E0A3
S11322F08CEB90E00E94E719892B11F01092640393
S113230080916403803211F4109264031091640389
S1132310E12FF0E0EB59FC4FC0831F5F109364037F
S1132320C33019F580916503682F70E040E150E0F7
S11323308CEB90E00E94E7190097B9F0EC01CC5BBC
S1132340D040612FCE0157DF882361F0FE01EE0FEC
S1132350FF1FE457FF4F2591349185E693E0F9017F
S1132360099501C059DF109264037894FF91EF91AD
S1132370DF91CF91BF91AF919F918F917F916F9199
S11323805F914F913F912F911F910F900BBE0F9032
S11323900FBE0F901F901895EF92FF920F93FC01C0
S11323A080818F7090E0982F8827218140E1249FBD
S11323B0900111243327820F931F22812F70820FE3
S11323C0911D9093280180932701238164816F706C
S11323D070E1279F600D11246093240145814F70A3
S11323E050E0542F4427268170E1279F9001112447
S11323F03327420F531F27812F70420F511D5093D3
S1132400260140932501308521852F7070E1379F87
S1132410200D112420932301328503850F7070E170
S1132420379F000D11240093220179E0E72E75E017
S1132430F72E21DC0F91FF90EF9008950196ACDF09
S113244089E095E047D5FACE0F931F93CF93DF939E
S1132450CDB7DEB728970FB6F894DEBF0FBECDBF59
S1132460DC011196E2EFF4E08D918F70819384E0AA
S1132470E93FF807C9F782EF94E00E944102988788
S11324808F838E010F5F1F4F86E0F80111928A95AA
S1132490E9F746E0B801CE0107960E949D02C80103
S11324A07BDF66E0C8012CDE28960FB6F894DEBF09
S11324B00FBECDBFDF91CF911F910F9108950F9360
S11324C01F93CF93DF93CDB7DEB728970FB6F89459
S11324D0DEBF0FBECDBF8C0101960E9441029887DA
S11324E08F83C801089658DF69E075E08F8198856D
S11324F00E9498028E010F5F1F4F86E0F80111922F
S11325008A95E9F746E0B801CE0107960E949D023C
S113251046E050E069E075E0C80166D7892B11F404
S11325208DDE01C079DE28960FB6F894DEBF0FBEAB
S1132530CDBFDF91CF911F910F9108950F931F93FA
S1132540CF93DF93EC018C01035F1F4FB8018EEF33
S11325509FE00E949F0199818889887F911102C020
S11325608C5F01C08A5F888BB8018EEF97E0DF91A2
S1132570CF911F910F910C947A01CF93C82F61E0F2
S113258075E08DEF9FE00E949F01E4E0F5E08C2F61
S11325908F7790819078892B808361E075E08DEF4F
S11325A097E0CF910C947A012091F2048091F30486
S11325B03AE0839FC001112434E6239F800D911DCE
S11325C011242091F404820F911D0F9765E070E0AF
S11325D0E7D6CB010895CF93FC012181C281CF704E
S11325E0F0E12F9FC00D11248C2FC7DFDDDFFC012C
S11325F0E051FB4FC0A3CF9121CED6DFE4E0F5E05C
S113260080519B4F20812078DC0190968C91822B05
S1132610808361E075E08DEF97E00C947A01CF93AD
S1132620DF93CDB7DEB761970FB6F894DEBF0FBE68
S1132630CDBFFC01BE016F5F7F4F8DE0DB011D92BA
S11326408A95E9F790818181B0E19B9F800D1124E7
S11326508D839281838120E1929F800D11248E834A
S113266094818581A0E19A9F800D11248F838681B6
S11326708295807F888787EF97E00E947A01BE0168
S11326806B5F7F4F86EF97E00E947A01BE01675F20
S11326907F4F85EF97E00E947A0184E08E871F8642
S11326A0188A198ABE01625F7F4F84EF97E00E9407
S11326B07A0184E191E00197F1F70000819BFECF5C
S11326C09CDF61960FB6F894DEBF0FBECDBFDF91DD
S11326D0CF9108950F931F93CF93DF93EC018C0157
S11326E0075B1F4FF8018081813031F4CE010E94D5
S11326F01F0793519331D0F0F80180818230D1F4D7
S1132700CE010E941F0794509430A0F48AE495E00F
S113271040D560E070E080EF94E00E943909CE017A
S1132720DF91CF911F910F910C9487078AE495E074
S1132730A3D5EFCFF8018081823041F5CE010E940C
S11327401F079151913110F582EF94E068DF5091A9
S1132750F3044091F4046091F20428EE33E0629FA4
S1132760C001639F900D1124F4E65F9F800D911DBD
S113277011242AE0429F800D911D11242091F5041B
S11327806AE475E0820F911D50D5C3CF60E08AE4FE
S113279095E08FD4BECFDC011196E2EFF4E08D9189
S11327A08F70819384E0E93FF807C9F782EF94E0E2
S11327B036DF44CDEF92FF920F931F93CF93DF93B5
S11327C0CDB7DEB72E970FB6F894DEBF0FBECDBFE0
S11327D0DC011196E2EFF4E08D918F70819384E037
S11327E0E93FF807C9F782EF94E019DF82EF94E03C
S11327F00E94410269E075E00E94DD0289E095E0F3
S113280069D31CDDAFEFB5E31197F1F700C0000009
S1132810E9E0EE2EE5E0FE2E02E211E023E231E0F3
S113282045E251E064E271E087E291E08ADAFE0178
S113283031968EE0DF011D928A95E9F785E8898358
S113284083E08E8780912701909128019C012227A3
S11328503F7020E3230F2A839C01207F3327F4E079
S113286036952795FA95E1F7205D2B838F70805D6F
S11328708C8380912401982F92959F70905D9D8305
S11328808F70805D8E8380912501909126019C013B
S113289022273F7020E3230F2F839C01207F3327BF
S11328A0A4E036952795AA95E1F7205D28878F70D7
S11328B0805D898780912301982F92959F70905D08
S11328C09A878F70805D8B8780912201982F9295D3
S11328D09F70905D9C878F70805D8D878FEF9BE6E6
S11328E00197F1F700C000006EE0CE01019608DC0C
S11328F02E960FB6F894DEBF0FBECDBFDF91CF91F9
S11329001F910F91FF90EF9008951F93CF93DF9342
S1132910DC011196E2EFF4E08D918F70819384E0F5
S1132920E93FF807C9F782EF94E079DE8FEF9BE681
S11329300197F1F700C000003091F3042091F404F2
S11329404091F20488EE93E0489FE001499FD00D46
S1132950112494E6399FC00DD11D11248AE0289FCB
S1132960C00DD11D11248091F504C80FD11D109103
S1132970F1041092F10480EF94E0E0DD6AE475E084
S1132980CE0153D41093F10480EF94E0D7DD8FEFA0
S11329909BE60197F1F700C000008AE495E06CD44F
S11329A0DF91CF911F914ACCFC0140818181282F76
S11329B030E0FAE04F9F200D311D11242E313105F6
S11329C049F02130310541F082509AE0499F800D51
S11329D0112408958DE1089580E00895CF93DF9345
S11329E000D0CDB7DEB78AE589838EE38A8342E0DF
S11329F0BE016F5F7F4F88EF9FEF0E9464020F90CC
S1132A000F90DF91CF91089585E00E94BC008093E0
S1132A10EE0482EF94E0C8DF6EEE74E090E00E9472
S1132A209A02DCCFF1DF0ACCCF93DF931F92CDB7AC
S1132A30DEB782EF94E0B8DFBE016F5F7F4F90E0B6
S1132A400E94ED0289810F90DF91CF910895811149
S1132A5002C0C79801C0C79A90914905911106C058
S1132A60811102C0C7980895C79A0895913021F43E
S1132A70811190E0892F4DC30895EF92FF920F9337
S1132A801F9382EF94E00E94410282EF94E00E943F
S1132A90410269E075E00E94DD02B9E0EB2EB5E089
S1132AA0FB2E02E211E023E231E045E251E064E270
S1132AB071E087E291E045D981E0C9DFC7010AD21C
S1132AC08091F0041F910F91FF90EF90C0CFBF92BF
S1132AD0CF92DF92EF92FF920F931F93CF93DF93E6
S1132AE08C017C0189E4E80EF11CF70180818130BE
S1132AF009F06BC06801F8E4CF0ED11CF6018081A7
S1132B00873008F046C060E070E080EF94E00E94F7
S1132B10390982EF94E083DD8091490581110AC06F
S1132B20ACDF82DF80930F058FED93E09093530524
S1132B308093520580914905813059F53091F30411
S1132B402091F4044091F20488EE93E0489FE00160
S1132B50499FD00D1124F4E63F9FC00DD11D1124CF
S1132B608AE0289FC00DD11D11248091F504C80F5F
S1132B70D11DB090F1041092F10480EF94E0DEDCFA
S1132B806AE475E0CE0151D3B092F10480EF94E091
S1132B90D5DCF60180818730C1F4C091F104109234
S1132BA0F10480EF94E0CADC80914905811101C0F1
S1132BB031D080914905813019F48AE495E05CD3E1
S1132BC0C093F10480EF94E0B9DCF7018081823096
S1132BD091F4F801E85BFF4F8081823061F48091C9
S1132BE04905813041F485E893E09093530580933F
S1132BF052050E9487078091520590915305DF91F9
S1132C00CF911F910F91FF90EF90DF90CF90BF90E5
S1132C100C948707EF92FF920F93CF93DF932DDFEE
S1132C2003DFC82F85E00E94BC008093EE04D0E04F
S1132C302091EE0430E02C1B3D0BA90137FF04C0AA
S1132C4044275527421B530B43305105C4F180914F
S1132C5022011216130614F48F5F01C08150809371
S1132C60220100912201002351F10F3341F14091DF
S1132C7025015091260189E0E82E85E0F82E209167
S1132C8023016091240180912701909128010E94E1
S1132C903B0EC701F9D08091220185FD05C086E66F
S1132CA095E00197F1F704C084E191E00197F1F711
S1132CB0000085E00E94BC008093EE04B9CFDF9150
S1132CC0CF910F91FF90EF9008950F931F93CF939F
S1132CD0DF93EC018C01075B1F4FF8018081823088
S1132CE021F4319780818823B9F1F8018081823001
S1132CF031F4FE01E85BFF4F90819130A9F1F801B6
S1132D008081823031F4FE01E85BFF4F80818330A3
S1132D10A1F1F80180818130C1F40F89188DCE01B1
S1132D200E941F07F801E90FF11D31978081883552
S1132D3061F4FE01E85BFF4FE081F0E0E051FB4FFE
S1132D408281893040F58F5F8283CE01DF91CF91FC
S1132D501F910F910C9487078091F00491E08927CB
S1132D608093F00474DEC1CF8091F10489278093AD
S1132D70F10480EF94E0E2DBC2CF81E09091490559
S1132D80911180E08093490560E070E080EF94E069
S1132D900E943909BECF1282D8CF0F931F93CF93CD
S1132DA0DF93EC018C01075B1F4FF80180818230B7
S1132DB021F4319780818823B9F1F8018081823030
S1132DC031F4FE01E85BFF4F90819130A9F1F801E5
S1132DD08081823031F4FE01E85BFF4F80818330D3
S1132DE0A1F1F80180818130C1F40F89188DCE01E1
S1132DF00E941F07F801E90FF11D31978081883582
S1132E0061F4FE01E85BFF4FE081F0E0E051FB4F2D
S1132E108281882341F181508283CE01DF91CF9159
S1132E201F910F910C9487078091F00491E08927FA
S1132E308093F0040CDEC1CF8091F1048927809344
S1132E40F10480EF94E07ADBC2CF81E090914905F0
S1132E50911180E08093490560E070E080EF94E098
S1132E600E943909BECF89E0D7CFFC0181818F70E0
S1132E70EEDDE4C98CE00E94DA0385E593E00E946C
S1132E80CF03FFCF0C94E404F8942FE030E0C19812
S1132E9045E24A95F1F7FC0144815581022E02C0B6
S1132EA0569547950A94E2F740FD02C0C29801C0C6
S1132EB0C29AF5E2FA95F1F7C19A45E24A95F1F71B
S1132EC0215031092730310511F7C198C098C298B3
S1132ED0789408950F931F93CF93DF938C01F89404
S1132EE081E0B5DDC8E1D0E08C2F8F5E813158F4EC
S1132EF0C09825E22A95F1F7F801808191819E011D
S1132F00205F3F4F28C0C031D0F4C09885E28A9535
S1132F10F1F7F801828193810C2E02C09695879572
S1132F200A94E2F780FD02C0C29801C0C29A25E269
S1132F302A95F1F7C09A85E28A95F1F720C0893283
S1132F40E1F0C098E5E2EA95F1F7F8018481958112
S1132F509E012051310902C0969587952A95E2F782
S1132F6080FD02C0C29801C0C29AF5E2FA95F1F759
S1132F70C09A25E22A95F1F702C0C80185DF21979E
S1132F80CF3E8FEFD80709F0AFCFC198C098C29851
S1132F9080E05DDD7894DF91CF911F910F910895CA
S1132FA0B89ABA9AC298C09827E32A95F1F7000014
S1132FB090E0981761F0C29A27E02A95F1F700C0D3
S1132FC0C29827E02A95F1F700C09F5FF2CFC09A1C
S1132FD0C2980895CF93DF93EC0185E0E1DFB99ABD
S1132FE0BA9AC298C19888E0C29897E09A95F1F786
S1132FF000C0C19A97E09A95F1F700C0C19897E094
S11330009A95F1F700C0815079F729E030E0CE01BC
S1133010022E02C0969587950A94E2F780FD02C0BD
S1133020C29801C0C29A87E08A95F1F700C0C19A9C
S113303097E09A95F1F700C0C19887E08A95F1F777
S113304000C02150310918F786E0C29897E09A959C
S1133050F1F700C0C19A97E09A95F1F700C0C198C2
S113306097E09A95F1F700C0815079F7C19885E00F
S1133070DF91CF9195CFB99ABA9AC298C19898E046
S113308087FD02C0C29801C0C29A27E02A95F1F7D1
S113309000C0C19A27E02A95F1F700C0C19827E043
S11330A02A95F1F700C0880F915051F7C298C19842
S11330B008951F93CF93DF93EC01162F623099F09C
S11330C030F06430D9F048F0653099F01EC081E0EA
S11330D067DF8881D0DF111118C083E061DF8A8146
S11330E0CADF111112C082E05BDF8981C4DF1111D4
S11330F00CC08C819D816EDF111107C084E050DF0C
S11331008B81DF91CF911F91B6CFDF91CF911F912A
S11331100895BF9A882311F0C7980895C79A08950F
S1133120CF93DB0120918E0130918F01509190015A
S1133130709191016091920140E0C5E0232BD9F098
S1133140C49FF0011124E257FE4F20813181528146
S1133150738164812817390764F44111415085E073
S1133160489FF0011124E257FE4F5281738164811C
S113317002C04F5FE3CF11967C93119712966C9324
S113318012975C9313961C92139760E0CD01CF9134
S113319090CFBF92CF92DF92EF92FF920F931F9343
S11331A0CF93DF938C01CC24CA94E3E0DE2EE12C90
S11331B0F12CC6018E199F099C0197FF04C0222798
S11331C03327281B390B2330310504F197FD019671
S11331D0EC01D595C795CE0DDF1DCE010297F80100
S11331E095838483F7DE85E00E94BC00B82ECE016F
S11331F00296F80195838483EDDE85E00E94BC008D
S1133200B81610F47E01D5CF6E01D3CFF801D58363
S1133210C48360E0C801DF91CF911F910F91FF90AB
S1133220EF90DF90CF90BF9044CF0F931F93CF9335
S1133230DF93CDB7DEB728970FB6F894DEBF0FBE85
S1133240CDBF8B01BE016F5F7F4F6ADFCE01019658
S1133250A0DF88E0FE013196D80101900D928A9595
S1133260E1F728960FB6F894DEBF0FBECDBFDF910D
S1133270CF911F910F910895AF92BF92CF92DF9299
S1133280EF92FF920F931F93CF93DF93CDB7DEB7E7
S113329028970FB6F894DEBF0FBECDBF8C0188E02F
S11332A0F801DE01119601900D928A95E1F71C82D6
S11332B064E0CE010196FDDE85E00E94BC00C82ECC
S11332C08FE18C8364E0CE010196F3DE85E00E94F9
S11332D0BC00AFE1AA2EB12CB0EFEB2EF12C2A2DBD
S11332E030E02B193109223031050CF13595279541
S11332F0DB2CD20EDC8264E0CE010196DADE85E0BE
S11333000E94BC00F701E81BF109B7016C197109AF
S1133310E69FA001E79F500DF69F500D112414164F
S113332015061CF4C82EBD2CDA2CAD2CD8CF88E0A1
S1133330FE013196D80101900D928A95E1F7289605
S11333400FB6F894DEBF0FBECDBFDF91CF911F91B2
S11333500F91FF90EF90DF90CF90BF90AF900895C2
S1133360991B79E004C0991F961708F0961B881FD3
S11333707A95C9F780950895AA1BBB1B51E107C034
S1133380AA1FBB1FA617B70710F0A61BB70B881FF1
S1133390991F5A95A9F780959095BC01CD01089580
S11333A097FB072E16F4009406D077FD08D0E4DFCF
S11333B007FC05D03EF4909581959F4F0895709534
S11333C061957F4F08950790F691E02D0994FC01D3
S11333D04150504030F005900616D1F73197CF0197
S11333E00895882799270895FB01DC0104C08D9175
S11333F00190801921F441505040C8F7881B990B63
S11334000895FB01DC0102C001900D92415050402F
S1133410D8F70895FC018191861721F08823D9F704
S1133420992708953197CF010895DC01A40FB51FA2
S11334304150504040F0CB01840F951F2E9105D090
S113344041505040D8F70895262FE199FECF9FBBF5
S11334508EBBE09A01970DB2021631F02DBB0FB668
S1113460F894E29AE19A0FBE0895F894FFCF13
S113346E0506010203044E0550054A054B054C059D
S113347E4D054C5A315400325400CED2CF00C7C041
S113348ECF00294B656D06D90D30313233343536C4
S113349E3738394142434445464D002020202020F0
S11334AE202020202020202020202020202020002A
S11334BE20202020202020202020202020202020FA
S11334CE2020200000746573746F76616A61206633
S11334DE69676E61206667686A206B6A68676466EE
S11334EE736572747975686E6D6B6C6664009A0B95
S11334FE010001C409010101FC080102014808018F
S113350E0402C20601080454060109042C06010A29
S113351E041D06010A080E0602000114050201012B
S113352EF6040202017E04020402CA030208082001
S113353E03020D081103020D0C0C03040001AD026D
S113354E04010194020402015802040402F4010469
S113355E0802CC01040A02B801040C049001040F01
S113356E0C8B010800015E010801014A01080201E9
S113357E2C01080401FA00080802DC00080C02C839
S113358E00080F03B900081409A5000819099B00C7
S113359E081E099600081F0900000000000008001C
S11335AE0400020001800040002000100008000406
S11335BE0002000100804020100804020120202097
S11335CE53454C20464C415348204552524F5220AD
S11335DE20001027E80364000A0001000000000028
S11335EE2C012C012C012C014B00000005000A00BB
S11335FE140028005000640096002C015802B004F8
S113360E6009B80B4E756C6C00585858204D4F44D9
S113361E3A585820D3F1F220533A582000463D58D8
S113362E585858582C585820EAC3F620CDE0F1F2D9
S113363EF000404040435F5852405858405858405C
S113364E58584058584000235840435F58524058E9
S113365E58405858405858405858400040413D58DA
S113366E58404C313D58584043313D5858584040CD
S113367E0044433D5858404C323D58584043323D27
S113368E58585858580043313D585858582B585884
S113369E40404040463A58585858004C3D585840BF
S11336AE433D5858404C693D585840413D58580088
S11336BE4C535030004C4F4144494E47202020205B
S10736CE20200000B4
S9030000FC
