:1000000083C00000C7C00000C5C00000C3C000001E
:10001000C1C00000BFC00000BDC00000BBC00000E8
:10002000B9C00000B7C00000B5C00000B3C00000F8
:10003000B1C00000AFC00000ADC00000ABC0000008
:10004000A9C00000A7C00000A5C00000A3C0000018
:10005000A1C000009FC000009DC000009BC0000028
:1000600099C0000097C0000095C0000093C0000038
:1000700091C000008FC000000C9464148BC000007D
:1000800089C0000087C0000085C0000041A042A1D7
:10009000E045A3A4A5A64BA74D484FA8504354A99B
:1000A000AA58E1ABACE2ADAE62AFB0B161B2B3B4ED
:1000B000E365B6B7B8B9BABBBCBD6FBE7063BF79F4
:1000C000E478E5C0C1E6C2C3C4C5C6C7F2160317CB
:1000D0002A153514BB13821A31156D15BE13C313BF
:1000E00006165C14E517E41307070C020101071359
:1000F00000000200000080468584868790919281EE
:10010000959697FFAB1AB21AEBE2F5E0E370FF2782
:10011000E55DFA4F2FEF30E12C7FE217F30758F43B
:100120008EED9DEAAEEBBFEE81939193A193B193D7
:10013000E217F307C8F311241FBECFEFD0E1DEBFF3
:10014000CDBF13E0A0E0B1E0ECEFFBE300E00BBFBC
:1001500002C007900D92AA33B107D9F725E0AAE3B0
:10016000B3E001C01D92AB32B207E1F711E0C6E087
:10017000D1E000E006C022970109FE010BBF0E94FA
:100180008B1DC430D10780E00807A9F70E94881AA8
:100190000C94ED1D35CF8770806E87B986EC86B9DB
:1001A000369B06C087E08A95F1F700C03699FACFF2
:1001B00085B108951F93CF93DF93182FC0E0D1E04E
:1001C00002C0DC2FC82F88EB8A95F1F70000812F41
:1001D000E2DF8C13F6CF8D13F4CFDF91CF911F9117
:1001E0000895CF93DF93CDB7DEB768970FB6F89435
:1001F000DEBF0FBECDBF28E1E6E0F2E0DE011196E2
:1002000001900D922A95E1F7A89824E02A95F1F73C
:10021000FE013196BE01675E7F4F21913191A901A8
:10022000482359232417350711F0A99801C0A99A2A
:10023000A89A2FE02A95F1F7A898E617F70769F72B
:10024000A99868960FB6F894DEBF0FBECDBFDF91B8
:10025000CF910895CF93DF93CDB7DEB728970FB630
:10026000F894DEBF0FBECDBF98E0EEE1F2E0DE0114
:10027000119601900D929A95E1F7A89894E09A95BD
:10028000F1F7FE0131969E01275F3F4F9191492F73
:100290004823941711F0A99801C0A99AA89A9FE041
:1002A0009A95F1F7A898E217F30781F7A99828968D
:1002B0000FB6F894DEBF0FBECDBFDF91CF9108958A
:1002C000CF93DF93CDB7DEB728970FB6F894DEBF94
:1002D0000FBECDBF88E0EEE1F2E0DE0111960190A5
:1002E0000D928A95E1F7FE0131969E01275F3F4FFF
:1002F00080E0A8989BE09A95F1F7000093B34191B4
:1003000092FB992790F9499F800D1124A89A97E0B4
:100310009A95F1F700C0E217F30759F7A8982896C5
:100320000FB6F894DEBF0FBECDBFDF91CF91089519
:100330000F931F93CF93DF93062F172FAE98AF988D
:10034000AD984FDF84E08A95F1F7C02FD12F10E0F0
:10035000899180DF1F5F1430D9F7AD9ADF91CF917B
:100360001F910F9108950F931F93CF93DF93062F43
:10037000172FAE98AF98AD9834DF84E08A95F1F7E7
:10038000C02FD12F10E09CDF89931F5F1430D9F765
:10039000AD9ADF91CF911F910F91089515BA8FEF0C
:1003A00084BBA298A898AD9AA998809364001092F3
:1003B000650081E081BB12BAAC98909A2FEF8FED67
:1003C00090E1215080409040E1F700C000008FEFA5
:1003D00080936400109265008FEF95E30197F1F729
:1003E00000C0000081E080936500109264009FEFE0
:1003F0002FED80E1915020408040E1F700C00000E7
:100400008091630081FD0EC0E3E6F0E09FEF2FEAEC
:1004100081E0915020408040E1F700C000008081E1
:1004200081FFF4CF9FEF2FEA81E091502040804080
:10043000E1F700C0000008950F931F93CF93DF935F
:100440008C01E1E6F2E0CFEFDFEF20E030E0419118
:100450005191BA01660F771F440F551F440F551F66
:10046000440F551F460F571F4017510728F42530DA
:10047000310509F46AC0E9012F5F3F4F263031058D
:1004800031F7CF3F8FEFD80709F462C0FE01EE0FBE
:10049000FF1FEF59FD4F80819181FC01EE0FFF1F7F
:1004A000880F991F880F991F880F991FE80FF91F50
:1004B000E017F10768F4DE01AA0FBB1FAB5ABD4F6E
:1004C0006D917C91C8018E1B9F0B0E94641D02C020
:1004D00060E070E0DE01AA0FBB1FAB5ABD4F8D91EB
:1004E0009C91689F9001699F300D789F300D112479
:1004F000021B130B0E1B1F0B209781F0E9E4F2E0A7
:10050000CC0FDD1FC75BDD4F20E030E04191519102
:10051000240F351FEC17FD07C9F702C020E030E0BB
:10052000969587950817190728F06F5F7F4F260F5C
:10053000371F02C0260F371FC901880F991F280FC8
:10054000391FC901880F991F05C08BEF94E002C0C5
:1005500080E090E0DF91CF911F910F910895CF93AC
:10056000DC01EBE3F2E069E472E080E090E0CD9141
:1005700041915191CF70C49F9001C59F300D1124BE
:10058000820F931FE617F70791F756DFCF91089573
:10059000EDD146E252E060E080E046D22FEF8FEDF1
:1005A00090E1215080409040E1F700C000000895A4
:1005B000EF92FF920F931F93CF93DF93E42E442388
:1005C00039F1062F172FC82FD92FF12CA2D080EA8E
:1005D000E6D0813009F4DCDF8D2FE1D0813009F4E1
:1005E000D7DF8C2FDCD0813009F4D2DFF801819184
:1005F0008F01D5D0813009F4CBDF9DD08FEF95E30B
:100600000197F1F700C00000F3942196FE10DECFB1
:10061000DF91CF911F910F91FF90EF90089546E0E9
:10062000C7CF089541E09A95C3CF0895BF92CF9266
:10063000DF92EF92FF920F931F93CF93DF93EC0122
:10064000E62EF72ED42E65D080EAA9D011E08130B5
:1006500009F010E08981A3D0813009F41F5F8881FF
:100660009ED0813009F41F5F54D081EA98D0813048
:1006700009F41F5F11118CDFDD20C1F00E2D1F2D3D
:10068000C0E0D0E0ED2CF12C81E0E81AF108CC2498
:10069000C394B12C8C2DCE15DF0509F08B2D88D09D
:1006A000F80181938F012196CD15A0F344D0DF91FD
:1006B000CF911F910F91FF90EF90DF90CF90BF905F
:1006C0000895CF93DF9300D0CDB7DEB79A838983A7
:1006D00046E0CE010196AADF0F900F90DF91CF91F7
:1006E0000895CF93DF9300D0CDB7DEB79A959A8364
:1006F000898341E0CE01019699DF0F900F90DF9141
:10070000CF910895C398C498BB9ABC9ABB98BC98E3
:10071000089587B3877E87BB8BE08A95F1F7000049
:10072000BB9A8BE08A95F1F70000BC9A8BE08A9522
:10073000F1F70000089587B3886187BB8BE08A9545
:10074000F1F70000BC988BE08A95F1F70000BB98A8
:100750008BE08A95F1F700000895882314F4BB9884
:1007600001C0BB9A2BE02A95F1F70000BC98B49920
:100770000AC09FEF02C0915031F02BE02A95F1F7AB
:100780000000B49BF8CF9BE09A95F1F7000096B378
:10079000BC9A880F93FB992790F9892B0895CF93E2
:1007A000C8E0DBDFC150E9F780E8D7DFCF910895DB
:1007B0001F93CF93DF93182FC8E0DFEF8D2FCDDF8E
:1007C000D82FC150D9F7812F879588278795C5DF06
:1007D0008D2FDF91CF911F910895E1E6F0E08081A8
:1007E0008260808380818160808380818068808353
:1007F000E2E6F0E0108210B880818068808380811A
:10080000826080830895CF93FC0180B18C71883021
:1008100029F0803159F0843091F404C0019921C04D
:10082000C3E024C0019B1FC0C2E020C0019B1DC0CB
:10083000C6E01CC08C2F0995C0933A031BC0019BD6
:1008400007C0E2E6F0E080818C7F8160808306C093
:10085000E2E6F0E080818C7F8260808310923A0330
:1008600009C0C4E003C0C1E001C0C5E080913A0303
:10087000C813E0CFCF910895DA988FE08ABBD99A58
:10088000D89882E18A95F1F700C0DA9A9BE09A95B0
:10089000F1F7000089B39BE09A95F1F70000DA9830
:1008A00092E19A95F1F700C0DA9A9BE09A95F1F7F8
:1008B0000000DA989FEF9ABB0895CF93C82FDCDF32
:1008C0008823ECF3DA988BB38F708BBB8BB3C82B78
:1008D000CBBBD998D89882E18A95F1F700C0DA9A13
:1008E0008BE08A95F1F70000DA9882E18A95F1F7BA
:1008F00000C08BB38F708BBBCF910895CF93C82F5F
:10090000807FDBDF8C2F8295807FD7DFCF910895AA
:10091000CF93C82FB1DF8823ECF3DA988BB38F70B5
:100920008BBB8BB3C82BCBBBD998D89A82E18A9565
:10093000F1F700C0DA9A8BE08A95F1F70000DA98B7
:1009400082E18A95F1F700C08BB38F708BBBCF919A
:100950000895CF93C82F807FDBDF8C2F8295807F17
:10096000D7DF8BB3806F8BBBCF91089581E0C6CF6B
:1009700008958FEF8ABB83E0EFEFF1EA3197F1F74B
:1009800000C00000DA989BB39F709BBB9BB3906341
:100990009BBBD998D898F2E1FA95F1F700C0DA9AA2
:1009A0009BE09A95F1F70000DA98E2E1EA95F1F719
:1009B00000C09BB39F709BBB8150F1F680E27DDF4E
:1009C0008CEC9AE00197F1F700C000008FE296DF0F
:1009D000CDDF86E093DF8EE091CF0895803C38F044
:1009E000E82FF0E0E453F0408491B3CF0895B1CF05
:1009F0000895823069F018F4813031F00895833021
:100A000059F0843069F008958FE7860F77CF089505
:100A10008FEB860F73CF089583E9860F6FCF08950C
:100A200083ED860F6BCF0895CF93DF93EA01E1DF6B
:100A30008881882329F02196D1DF89918111FCCF0B
:100A4000DF91CF9108958FE059CF0895FF920F93D2
:100A50001F93CF93DF938C0161E081E0CADFF8013F
:100A60008081882381F0F02EC02FD12F07C08C2FDA
:100A70008F19843119F461E082E0BBDF8991AEDF28
:100A800088818111F4CFDF91CF911F910F91FF9059
:100A900008950895833021F128F4813049F082309F
:100AA00099F008958530A1F138F18630E9F1089583
:100AB0008091290590912A05FC01E25BFF4F01908E
:100AC000F081E02D099508958091290590912A05DE
:100AD000FC01E45BFF4F0190F081E02D0995089542
:100AE0008091290590912A05FC01EC5AFF4F019055
:100AF000F081E02D099508958091290590912A05AE
:100B0000FC01EA5AFF4F0190F081E02D099508950C
:100B10008091290590912A05FC01E05BFF4F01902F
:100B2000F081E02D099508958091290590912A057D
:100B3000FC01EE5AFF4F0190F081E02D09950895D8
:100B40002F923F924F925F926F927F928F929F92DD
:100B5000AF92BF92CF92DF92EF92FF920F931F93CB
:100B6000CF93DF93CDB7DEB7FC014D885E886F88E9
:100B7000788C8B8D9C8D3D8CF9A02AA0708F678B13
:100B8000528F418F3183208330AADF01AA5BBF4F90
:100B900048A14C93139641E04C9311971C92E68A1E
:100BA000EE2089F0202F312FAF014E5F5F4F10E014
:100BB000D9016D917D919D01DA016D937D93AD0118
:100BC0001F5F1E11F5CF311004C021E0238F21AB30
:100BD0001FC02E8D3F8DAF01455E5F4FB9016F5F26
:100BE0007F4F3A94630D711DD9011D919D01DA016A
:100BF0001D93AD0126173707B9F787C0D9016D914D
:100C00009D01DA016D93AD01622F611B6717B0F38F
:100C1000C114D10441F449E455E0DF01A45BBF4FA6
:100C20004D935C9305C0DF01A45BBF4FCD92DC9276
:100C30008114910441F449E455E0DF01A85ABF4F03
:100C40004D935C9305C0DF01A85ABF4F8D929C92D3
:100C5000A114B10441F449E455E0DF01A25BBF4FA8
:100C60004D935C9305C0DF01A25BBF4FAD92BC9278
:100C70004114510441F449E455E0DF01A05BBF4F4A
:100C80004D935C9305C0DF01A05BBF4F4D925C921A
:100C90006114710441F449E455E0DF01AE5ABF4FDD
:100CA0004D935C9305C0DF01AE5ABF4F6D927C92AD
:100CB000298D3A8D232B41F429E435E0DF01AC5A2C
:100CC000BF4F2D933C9307C0DF01AC5ABF4F298D16
:100CD0003A8D2D933C93009741F489E495E0DF0130
:100CE000AA5ABF4F8D939C9305C0DF01AA5ABF4FEC
:100CF0008D939C93DF01A65BBF4F80A98C931196C7
:100D0000EA5BFF4F80818C930EC0DF01AA5BBF4F6F
:100D10007C91772309F47CCF1F2DAF014F5C5F4F8F
:100D20002F2D322D6BCFDF91CF911F910F91FF901F
:100D3000EF90DF90CF90BF90AF909F908F907F907B
:100D40006F905F904F903F902F9008958F929F9259
:100D5000AF92BF92CF92DF92EF92FF920F931F93C9
:100D6000CF93DF93CDB7DEB7AAA5BBA51CA50DA574
:100D7000FEA4EFA4D8A8C9A8FE01E85BFF4FFF932B
:100D8000EF936E96EFAD6E97EF93FE01F296FF93A1
:100D9000EF932896EFAD2897EF93CF92DF92EF92E3
:100DA000FF920F931F93BF93AF9388A499A4AEA013
:100DB000BFA0CCA0DDA0EBA08E01015F1F4FC0DE65
:100DC0000FB6F894DEBF0FBECDBFDF91CF911F915C
:100DD0000F91FF90EF90DF90CF90BF90AF909F90DA
:100DE0008F9008952F923F924F925F926F927F92D1
:100DF0008F929F92AF92BF92CF92DF92EF92FF922B
:100E00000F931F93CF93DF93CDB7DEB7C450D1407C
:100E10000FB6F894DEBF0FBECDBF019709F06CC2CC
:100E20006F3F7F4F09F068C2FE01E151FF4F0F2E67
:100E3000F6E1AF2EF02DDF012A2D1D922A95E9F75C
:100E4000BB24B394B0820F2EF9E09F2EF02D918237
:100E50000F2EFCE03F2EF02D32820F2EF2E14F2EAE
:100E6000F02D43826894552452F8558ACE0187525A
:100E70009F4FDC012A2D1D922A95E9F723E0DC0122
:100E80002C9311965C92119735E012963C93129731
:100E900046E013964C93139757E014965C9314977F
:100EA00015969C9215970F2EFAE02F2EF02D169680
:100EB0002C92169720E117962C9317976894882404
:100EC00083F855968C929E012C533F4F0F2EF5E1DF
:100ED0007F2EF02DD901472D1D924A95E9F70F2E4F
:100EE000FCE5CF2EF3E0DF2EF02DD9011196DC9238
:100EF000CE925496BC924DB75EB7465151090FB68B
:100F0000F8945EBF0FBE4DBFADB7BEB7119646E1B8
:100F100001900D924A95E1F7ADB7BEB756970FB65F
:100F2000F894BEBF0FBEADBF119646E1FC01019023
:100F30000D924A95E1F786E09AE19F938F938BE8B3
:100F400099E19F938F930F2EF4E2EF2EFAE0FF2E9C
:100F5000F02DFF92EF9200E71AE01F930F938BE1C1
:100F60009EE09F938F9389EA9AE09F938F938CE7FB
:100F700098E19F938F934DB75EB7455151090FB6D6
:100F8000F8945EBF0FBE4DBFADB7BEB7119685E1F9
:100F9000F90101900D928A95E1F72BE634E042E7E2
:100FA00052E066E872E0C901D1DEFE01E255FF4F72
:100FB000DF012A2D1D922A95E9F790822182328243
:100FC0002DE023833FE0348340E1458346820F2EAA
:100FD000F3E16F2EF02D6782858ACE0188569F4FF0
:100FE000DC013A2D1D923A95E9F7DC01BC9211968D
:100FF0009C92119712962C92129713963C921397EB
:1010000014962C9314972FE015962C9315971696FB
:101010004C93169717964C92179718966C921897B0
:1010200055969C929E012D573F4FD901472D1D92F9
:101030004A95E9F741E154E0D90111965C934E934A
:101040005496BC920FB6F894DEBF0FBECDBFADB7BD
:10105000BEB756970FB6F894BEBF0FBEADBF119680
:1010600046E101900D924A95E1F74DB75EB74651C2
:1010700051090FB6F8945EBF0FBE4DBFADB7BEB7F6
:10108000119646E1FC0101900D924A95E1F782E745
:101090009BE09F938F938DE19BE09F938F93FF92B3
:1010A000EF921F930F9383EC9EE09F938F9384EEB8
:1010B0009AE09F938F938AEF9BE09F938F938DB7D6
:1010C0009EB745970FB6F8949EBF0FBE8DBFADB7C4
:1010D000BEB7119685E1F90101900D928A95E1F76D
:1010E0002BE634E04BE952E060EB72E081E194E002
:1010F0002DDEFE01E359FF4FDF012A2D1D922A95B7
:10110000E9F7B0829E01295A3F4FD9014A2D1D921D
:101110004A95E9F7D901BC92CE018E5B9F4FDC0165
:10112000472D1D924A95E9F74BE654E0DC011196F4
:101130005C934E935496BC920FB6F894DEBF0FBEEC
:10114000CDBFADB7BEB756970FB6F894BEBF0FBEB2
:10115000ADBF119646E101900D924A95E1F74DB76A
:101160005EB7465151090FB6F8945EBF0FBE4DBF32
:10117000ADB7BEB7119646E1F90101900D924A95BF
:10118000E1F71F921F921F921F921F921F921F92B0
:101190001F9227E032E13F932F9327EC3BE03F93F0
:1011A0002F931F921F92ADB7BEB755970FB6F89405
:1011B000BEBF0FBEADBF119625E1FC0101900D929F
:1011C0002A95E1F72BE634E045EC52E06AED72E057
:1011D00086EB93E0BBDDFE01BC96DF012A2D1D925C
:1011E0002A95E9F75CA635E03DA746E04EA757E013
:1011F0005FA788AA81E189AB4AAA6BAA84E18CAB7C
:1012000022969FAE22979E012A5E3F4FD9011D92E2
:10121000AA94E9F7B3E0BE8B5F8A888E998E9EE030
:101220009A8F4FE04B8F6C8E8D8F8BA6CE010196DF
:10123000DC011D927A94E9F7DA82C982BD8A0FB681
:10124000F894DEBF0FBECDBFADB7BEB756970FB691
:10125000F894BEBF0FBEADBF119646E101900D924E
:101260004A95E1F74DB75EB7465151090FB6F8946C
:101270005EBF0FBE4DBFADB7BEB7119646E1F901D7
:1012800001900D924A95E1F723EF3CE03F932F93B5
:1012900028E13CE03F932F9329E43AE03F932F93DA
:1012A00022E83AE03F932F9322EA3FE03F932F93C7
:1012B00020ED3BE03F932F9327E836E13F932F93B8
:1012C000ADB7BEB755970FB6F894BEBF0FBEADBF52
:1012D000119625E1FC0101900D922A95E1F72BE68C
:1012E00034E04FEE52E064E073E0C6012FDD0FB64C
:1012F000F894DEBF0FBECDBFCC5FDE4F0FB6F894C3
:10130000DEBF0FBECDBFDF91CF911F910F91FF9038
:10131000EF90DF90CF90BF90AF909F908F907F9095
:101320006F905F904F903F902F900895FC01E85B85
:10133000FF4F2081FC013689231750F430E02F5FE6
:101340003F4F220F331FE20FF31F808191810895D9
:10135000FC01828193810895FC01E75BFF4F2081AE
:10136000213039F431973081FC01E30FF11D338DC9
:101370000AC0223041F4FC01E85BFF4F3081FC01E0
:10138000E30FF11D31A9822F932F0895FC01E85B33
:10139000FF4F6081462F50E031962081FC01E20F23
:1013A000F11DE75BFF4F208130E0215031094217EA
:1013B000530729F4FC01E85BFF4F10820895FC01FC
:1013C000E85BFF4F6F5F60830895FC01E85BFF4FB0
:1013D000208121110DC0DC01A75BBF4F2C91820F32
:1013E000911DDC01A75BBF4F8C91815080830895D4
:1013F000FC01E85BFF4F215020830895FC01E75B6F
:10140000FF4F2081213051F432962081222399F020
:10141000329722E02083319710820895223059F4C8
:10142000FC01E65BFF4F2081222329F0319721E068
:101430002083319710820895FC01E85AFF4F0190F4
:10144000F081E02D09950895CF93DF93EC01FC0125
:10145000E85BFF4F808190E031962081213029F4B4
:1014600028A930E02150310907C0FE01EA5BFF4F97
:10147000208130E0215031092817390719F4CE01B5
:10148000BDDF02C0CE0182DFCE01D6DFDF91CF917A
:101490000895CF93DF93EC01D7DFFE01E75BFF4FA9
:1014A0008081813049F43197E081E695F0E0EE5F8C
:1014B000FE4F80810E945F1BFE01E75BFF4F808132
:1014C000823059F4C85BDF4FE881E695E695F0E09D
:1014D000E050FF4F80810E945F1BDF91CF91089504
:1014E000CF93DF93EC01FC01E85BFF4F808181111A
:1014F00002C0CE0183DFCE0168DFCE019DDFDF9128
:10150000CF910895CF93DF93EC01EADFFE01E75B13
:10151000FF4F8081813049F43197E081E695F0E01A
:10152000EE5FFE4F80810E945F1BFE01E75BFF4F75
:101530008081823059F4C85BDF4FE881E695E695FB
:10154000F0E0E050FF4F80810E945F1BDF91CF9160
:101550000895FC01E85BFF4F1082319621E0208363
:10156000FC018081918190932A0580932905109236
:10157000C60485E00E94CB008093C50480912005BD
:1015800081110CC086EB93E057DFFFEF2FE982E378
:10159000F15020408040E1F700C00000809120051C
:1015A000813061F48CE593E047DF9FEFEFE9F2E3F0
:1015B0009150E040F040E1F700C000008091290523
:1015C00090912A0539CF0895FC01E75BFF4F2081F8
:1015D000213019F531972081222339F11EC060EDA9
:1015E00074E08FEF9FE00E94B30164ED74E08EEF32
:1015F0009FE00E94B30168ED74E08DEF9FE00E94D0
:10160000B3016CED74E08CEF9FE00E94B301809118
:10161000290590912A0510CF0895FC01E85BFF4F42
:101620001082319621E02083DACFFC018081918104
:1016300090932A0580932905D2CFFC01E85BFF4FE8
:10164000208121113FC0319630813130D9F544C01D
:1016500021E02093100434C01092100431C0E091B6
:101660001004F0E0EE0FFF1F3695E30FF11D2695F5
:10167000EE0FFF1FEE0FFF1FE953FB4FE20FF11DAF
:101680002185322F307F305F2F70232B218718C0A8
:10169000E0911004F0E0EE0FFF1F3695E30FF11D0F
:1016A0002695EE0FFF1FEE0FFF1FE953FB4FE20FD2
:1016B000F11D218531E0320F3F70207F232B2187E0
:1016C000BBCE0895FC01E75BFF4F3081432F417093
:1016D000241B20FDDDCFC3CF20911004222309F469
:1016E000B7CFBACFFC01E85BFF4F2081211140C08A
:1016F000319630813130E1F545C0215020931004FE
:1017000035C021E02093100431C0E0911004F0E0D6
:10171000EE0FFF1F3695E30FF11D2695EE0FFF1F0D
:10172000EE0FFF1FE953FB4FE20FF11D2185322F12
:10173000307F30512F70232B218718C0E091100487
:10174000F0E0EE0FFF1F3695E30FF11D2695EE0F2B
:10175000FF1FEE0FFF1FE953FB4FE20FF11D218525
:101760003FEF320F3F70207F232B218765CE0895F6
:10177000FC01E75BFF4F3081432F4170241B20FDAC
:10178000DDCFC3CF209110042111B7CFBACFFC0118
:101790008081918190932A05809329054DCE0895EB
:1017A000FC01E75BFF4F2081213059F43197208104
:1017B000222399F006C08091290590912A053CCEFC
:1017C00008958091290590912A05FC01E85BFF4F5F
:1017D0001082319621E02083EECFFC01808191813F
:1017E00090932A0580932905E6CF42E650E00C94B9
:1017F000CD1D089560E070E087EC94E0F6DF60EDC9
:1018000074E08FEF97E00E94980164ED74E08EEF32
:1018100097E00E94980168ED74E08DEF97E00E94D8
:1018200098016CED74E08CEF97E00C9498010895AA
:10183000CF93DF93EC01E0912905F0912A05E75B56
:10184000FF4F80818130C9F5FE01E85BFF4F308199
:10185000832F869590E0FC01EE0FFF1FE65FFE4FA1
:101860000190F081E02D6081732F717030FDABC06D
:10187000A5C0DA0102C0B595A7952A95E2F79D01AA
:10188000AF3010F42F5F01C020E0772309F4A4C02B
:101890009FC002C0220F331F4A95E2F7260F208314
:1018A000FC01EE5FFE4F608181E295E00E94EA1B41
:1018B00060E070E087EC94E098DFE0912905F0911A
:1018C0002A05E75BFF4F8081823009F071C0CE01AD
:1018D00043DD91519131B0F4CE013EDD892F90E08E
:1018E0004197FC01E953FB4F2281293030F4FC0180
:1018F000E953FB4F2F5F22835BC0FC01E953FB4F91
:10190000128256C0C85BDF4F28818DEC289F812D45
:1019100011248695869590E0FC01EE0FFF1FEA5F8B
:10192000FE4F0190F081E02D40815181243029F457
:101930004F5F5F4F518340832EC030E0209530953C
:1019400023703327220F331F220F331F6FE070E005
:10195000022E02C0660F771F0A94E2F7DB01A42370
:10196000B523022E02C0B695A7950A94E2F7AF30D0
:1019700010F4AF5F01C0A0E0B0E0ED0102C0CC0FF9
:10198000DD1F2A95E2F760957095462357234C0F8B
:101990005D1F51834083FC01E050FF4F608181E275
:1019A00095E00E94EA1B60E070E087EC94E01DDFA8
:1019B0008091290590912A053FDD12C0462F407F76
:1019C00050E024E056CF462F4F7050E020E051CF3A
:1019D000607F30E040E05DCF6F7030E044E059CF91
:1019E000DF91CF910895CF93DF93EC0120912905EA
:1019F00030912A05F901E75BFF4F80818130B9F50D
:101A000031973081832F869590E0FC01EE0FFF1F08
:101A1000E65FFE4F0190F081E02D6081732F7170C1
:101A200030FDB0C0AAC0DA0102C0B595A7952A95CD
:101A3000E2F79D01AA2311F0215001C02FE0772386
:101A400009F4A9C0A4C002C0220F331F4A95E2F7CF
:101A5000260F2083FC01EE5FFE4F608181E295E05E
:101A60000E94EA1B60E070E087EC94E0BEDEE0914B
:101A70002905F0912A05E75BFF4F8081823009F04C
:101A800076C0CE0169DC91519131B8F4CE0164DCAD
:101A9000892F90E04197FC01E953FB4F22812223DB
:101AA00031F0FC01E953FB4F2150228360C0FC015F
:101AB000E953FB4F29E022835AC0E0912905F091B8
:101AC0002A05E85BFF4F20818DEC289F812D112492
:101AD0008695869590E0FC01EE0FFF1FEA5FFE4FB2
:101AE0000190F081E02D40815181243029F4415052
:101AF0005109518340832EC030E0209530952370EA
:101B00003327220F331F220F331F6FE070E0022EA6
:101B100002C0660F771F0A94E2F7DB01A423B52306
:101B2000022E02C0B695A7950A94E2F7AA2311F0F7
:101B3000A15001C0AFE0B0E0ED0102C0CC0FDD1F4D
:101B40002A95E2F760957095462357234C0F5D1F49
:101B500051834083FC01E050FF4F608181E295E0BA
:101B60000E94EA1B60E070E087EC94E03EDE80912A
:101B7000290590912A0560DC12C0462F407F50E075
:101B800024E051CF462F4F7050E020E04CCF607FD3
:101B900030E040E058CF6F7030E044E054CFDF9148
:101BA000CF91089542E650E00C94BD1D08950F9327
:101BB0001F93CF93DF938B01EA0129E2FA0111927F
:101BC0002A95E9F7FC0101900020E9F73197AF0170
:101BD000481B590BBC01CE010E94A91DF8010190C0
:101BE0000020E9F73197AF01401B510BB801CE013E
:101BF00044960E94A91DDF91CF911F910F910895E6
:101C0000CF93DF93EC010E94B604CE010E9426051B
:101C10008091290590912A059FDBC92F8091290584
:101C200090912A0599DB6C2F0E94F9040E942305EC
:101C3000DF91CF910895CF93DF93EC016F89788D79
:101C4000FB0101900020E9F73197AF01461B570BCC
:101C50004531510510F044E150E080E591E00E94EB
:101C6000A91D698D7A8DFB0101900020E9F731975C
:101C7000AF01461B570B4531510510F044E150E0D0
:101C80008BE391E00E94A91D8091C70481110DC0D2
:101C900080911A0190911B01A0911C0180933B013E
:101CA00090933C01A0933D010CC080911E01909146
:101CB0001F01A091200180933B0190933C01A093D0
:101CC0003D0168E570E08BE391E00E94B21D209138
:101CD000C80430E0F901EE0FFF1F2E0F3F1FF9017E
:101CE000EC5EFE4F20813181FC013183208320E0B6
:101CF00040E0A0E5B1E015C0822F90E0FC01E05B80
:101D0000FE4F3081383561F4EF01E42FF0E0E95304
:101D1000FB4FE281F0E0E75DFE4F308138834F5F9B
:101D20002F5FFD0101900020E9F73197E055F14068
:101D3000822F90E08E179F07F8F280912005811185
:101D40000BC068E570E08BE391E00E94B21D20912A
:101D50001201FC0120830AC068E570E08BE391E08A
:101D60000E94B21D20911301FC01208345E651E041
:101D70006BE371E080E591E01ADF85E691E040DFFA
:101D8000DF91CF9108950F931F93CF93DF93EC01D1
:101D90006F89788DFB0101900020E9F73197AF0141
:101DA000461B570B4531510510F044E150E080E5EA
:101DB00091E00E94A91D698D7A8DFB0101900020A0
:101DC000E9F73197AF01461B570B4531510510F02C
:101DD00044E150E08BE391E00E94A91D68E570E0CA
:101DE00080E591E00E94B21D0091100410E0F8011E
:101DF000E75DFE4F2081FC01208368E570E080E50F
:101E000091E00E94B21D000F111FE801C75DDE4F77
:101E10002881FC01208368E570E08BE391E00E945B
:101E2000B21D2981FC012083C0E0D0E0A0E5B1E033
:101E3000A801440F551F440F551F49535B4F98018C
:101E4000220F331F220F331F25533B4F10E25EC07A
:101E50008C2F90E0FC01E05BFE4F6081683509F05B
:101E600040C0D0FD20C06D2F669570E0FA01E60FEE
:101E7000F71FE185E295EF70F0E0E75DFE4F00812E
:101E8000FC01E05BFE4F0083F901E60FF71FE185DF
:101E9000E295EF70F0E0E75DFE4F6081FC01E55CEC
:101EA000FE4F60831DC06D2F669570E0FA01E60F4E
:101EB000F71FE185EF70F0E0E75DFE4F0081FC0168
:101EC000E05BFE4F0083F901E60FF71FE185EF703D
:101ED000F0E0E75DFE4F6081FC01E55CFE4F608352
:101EE000DF5FFC01E05BFE4F6081603421F4FC01A8
:101EF000E05BFE4F1083FC01E55CFE4F60816034C7
:101F000021F4FC01E55CFE4F1083CF5FFD010190E1
:101F10000020E9F73197E055F1408C2F90E08E17C3
:101F20009F0708F495CF45E651E06BE371E080E54B
:101F300091E03DDE85E691E063DEDF91CF911F9178
:101F40000F9108951F93CF93DF93EC016F89788DE4
:101F5000FB0101900020E9F73197AF01461B570BB9
:101F60004531510510F044E150E080E591E00E94D8
:101F7000A91D698D7A8DFB0101900020E9F7319749
:101F8000AF01461B570B4531510510F044E150E0BD
:101F90008BE391E00E94A91D68E570E080E591E087
:101FA0000E94B21DC0912105AC2FA295AF70B0E088
:101FB000A75DBE4F2C91FC01208368E570E080E5B1
:101FC00091E00E94B21DCF70EC2FF0E0E75DFE4F74
:101FD0002081FC01208368E570E080E591E00E94AB
:101FE000B21DC0912205AC2FA295AF70B0E0A75DE5
:101FF000BE4F2C91FC01208368E570E080E591E004
:102000000E94B21DCF70EC2FF0E0E75DFE4F208103
:10201000FC01208368E570E080E591E00E94B21D3C
:10202000C0912305AC2FA295AF70B0E0A75DBE4F65
:102030002C91FC01208368E570E080E591E00E942E
:10204000B21DCF70EC2FF0E0E75DFE4F2081FC0168
:10205000208368E570E080E591E00E94B21DC091A8
:102060002405AC2FA295AF70B0E0A75DBE4F2C91B8
:10207000FC01208368E570E080E591E00E94B21DDC
:10208000CF70EC2FF0E0E75DFE4F2081FC01208354
:1020900068E570E08BE391E00E94B21DC0912505D8
:1020A000D0912605FE01EF2FFF27E295EF70E75D47
:1020B000FE4F2081FC01208368E570E08BE391E016
:1020C0000E94B21DFE01EE27FF70EF2FFF0FFF0BE6
:1020D000E75DFE4F2081FC01208368E570E08BE323
:1020E00091E00E94B21DFE01E07FFF27F595E79584
:1020F000F595E795F595E795F595E795E75DFE4F3D
:102100002081FC01208368E570E08BE391E00E9470
:10211000B21DCF70DD27C75DDE4F2881FC01208313
:1021200085E00E94CB00182F68E570E08BE391E01A
:102130000E94B21DDC01C12FC295CF70D0E0C75DF7
:10214000DE4F88818C931F70E12FF0E0E75DFE4F3A
:1021500080818093440168E570E08BE391E00E9408
:10216000B21DE091C904F0E0E75DFE4F2081FC0163
:10217000208368E570E08BE391E00E94B21DE0915E
:10218000CA04F0E0E75DFE4F2081FC01208368E592
:1021900070E08BE391E00E94B21DE091CB04F0E08F
:1021A000E75DFE4F2081FC01208368E570E08BE352
:1021B00091E00E94B21DE091CC04F0E0E75DFE4F9B
:1021C0002081FC01208320E0A0E5B1E040E217C0BF
:1021D000822F90E0FC01E05BFE4F3081303421F42F
:1021E000FC01E05BFE4F4083FC01E55CFE4F30816B
:1021F000303421F4FC01E55CFE4F40832F5FFD018C
:1022000001900020E9F73197E055F140822F90E0EE
:102210008E179F07E8F245E651E06BE371E080E539
:1022200091E0C5DC85E691E0EBDCDF91CF911F9179
:102230000895CF93DF9320E030E040E050E0AFE03E
:10224000B0E0FD01E21BF30BEC0102C0D695C7958F
:10225000EA95E2F7FE01E170FF27022E02C0EE0FC1
:10226000FF1F0A94E2F74E0F5F1F2F5F3F4F203191
:10227000310539F7FB0151834083DF91CF910895F8
:10228000BF92CF92DF92EF92FF920F931F93CF9363
:10229000DF9300D000D0CDB7DEB79A838983162FA5
:1022A0005C834B83B22EBE016F5F7F4FC2DF89819B
:1022B0009A81929582958F7089279F7089279A833A
:1022C0008983BE016D5F7F4F8B819C81B2DF2B8143
:1022D0003C81812F90E0982F88279295990F907ECE
:1022E00049815A815F70480F591FF701518340831C
:1022F0001877812F90E09695879596958795969576
:102300008795B901607F680F791F7383628380E2CC
:10231000082710E000951095502F44278B2D90E052
:10232000880F991F840F951F05FBCC24C0F8D12C72
:10233000C80ED91ED582C4820F900F900F900F90B7
:10234000DF91CF911F910F91FF90EF90DF90CF9091
:10235000BF900895CF92DF92EF92FF920F931F9359
:10236000CF93DF936C01EA01F701808191819F7027
:10237000D6018D939C9382818F70880F880F880F70
:102380009181929596959770890FDB018C9382814C
:102390009381929582958F7089279F708927998361
:1023A000888384818695D9018C938481958188273F
:1023B0009F73892F80958F7390E28927F80180831E
:1023C000B601D6018D919C9134DFF6018081918117
:1023D000929582958F7089279F708927918380833A
:1023E000BE018881998125DF8881998192958295A6
:1023F0008F7089279F70892799838883DF91CF9178
:102400001F910F91FF90EF90DF90CF900895EF9282
:10241000FF920F931F93CF93DF93EC01409125011F
:10242000509126010F2EF0EEEF2EF4E0FF2EF02D4E
:1024300000912201209123016091240180912701C4
:10244000909128011DDF02E211E023E231E045E234
:1024500051E064E271E087E291E07CDF6F89788D82
:10246000FB0101900020E9F73197AF01461B570BA4
:102470004531510510F044E150E080E591E00E94C3
:10248000A91D698D7A8DFB0101900020E9F7319734
:10249000AF01461B570B4531510510F044E150E0A8
:1024A0008BE391E00E94A91D68E570E080E591E072
:1024B0000E94B21DC0912201AC2FA295AF70B0E076
:1024C000A75DBE4F2C91FC01208368E570E080E59C
:1024D00091E00E94B21DCF70EC2FF0E0E75DFE4F5F
:1024E0002081FC01208368E570E080E591E00E9496
:1024F000B21DC0912401AC2FA295AF70B0E0A75DD2
:10250000BE4F2C91FC01208368E570E080E591E0EE
:102510000E94B21DCF70EC2FF0E0E75DFE4F2081EE
:10252000FC01208368E570E080E591E00E94B21D27
:10253000C0912701D0912801FE01EE27FF70EF2FF7
:10254000FF27E75DFE4F2081FC01208368E570E0F6
:1025500080E591E00E94B21DFE01E07FFF27F29529
:10256000E295EF70EF27FF70EF27E75DFE4F2081C8
:10257000FC01208368E570E080E591E00E94B21DD7
:10258000CF70DD27C75DDE4F2881FC01208368E521
:1025900070E08BE391E00E94B21DC091E604AC2F85
:1025A000A295AF70B0E0A75DBE4F2C91FC012083D7
:1025B00068E570E08BE391E00E94B21DCF70EC2FD4
:1025C000F0E0E75DFE4F2081FC01208368E570E0CC
:1025D0008BE391E00E94B21DC0912301AC2FA29524
:1025E000AF70B0E0A75DBE4F2C91FC01208368E581
:1025F00070E08BE391E00E94B21DCF70EC2FF0E011
:10260000E75DFE4F2081FC01208368E570E08BE3ED
:1026100091E00E94B21DC0912501D0912601FE01DA
:10262000EE27FF70EF2FFF27E75DFE4F2081FC01B3
:10263000208368E570E08BE391E00E94B21DFE010B
:10264000E07FFF27F295E295EF70EF27FF70EF270D
:10265000E75DFE4F2081FC01208368E570E08BE39D
:1026600091E00E94B21DCF70DD27C75DDE4F28814B
:10267000FC01208385E00E94DA00182F68E570E0F5
:102680008BE391E00E94B21DFC01C12FC295CF7077
:10269000D0E0C75DDE4F8881808368E570E08BE322
:1026A00091E00E94B21DFC011F70A12FB0E0A75D58
:1026B000BE4F8C91808320E0A0E5B1E040E217C0DE
:1026C000822F90E0FC01E05BFE4F3081303421F43A
:1026D000FC01E05BFE4F4083FC01E55CFE4F308176
:1026E000303421F4FC01E55CFE4F40832F5FFD0197
:1026F00001900020E9F73197E055F140822F90E0FA
:102700008E179F07E8F245E651E06BE371E080E544
:1027100091E04DDA85E691E073DADF91CF911F9178
:102720000F91FF90EF90089510929B0088E980939D
:102730009A0086E280939D001092980085E0809335
:1027400099000895CF93DF93F894662381F0282FA2
:10275000A82FB92FEBE9F0E0CCE9D0E0808185FF2C
:10276000FDCF8D9188838A2F821B8617B8F37894CA
:10277000DF91CF91089561E0E5CF08950C94007842
:1027800061E0E0CF0895CF93DF9300D000D000D078
:10279000CDB7DEB785E00E94CB00982F92959F7051
:1027A000905D9C838F70805D8D8383E08E8366E077
:1027B000CE010196C7DF26960FB6F894DEBF0FBE96
:1027C000CDBFDF91CF910895CF93DF931F92CDB707
:1027D000DEB78FEF898361E0CE010196B3DF64E05D
:1027E00089E193E0AFDF83E0898361E0CE01019668
:1027F000A9DF0F90DF91CF9108958E30910578F485
:10280000FC01E851FF4F8491282F30E070E06250C6
:10281000710981E02617370719F080E0089580E0FC
:102820000895CF93DF9300D0CDB7DEB786E18983DB
:1028300083E08A8362E0CE01019684DF0F900F90DF
:10284000DF91CF910895CF93DF9300D0CDB7DEB75E
:1028500086E0898383E08A8362E0CE01019672DF9D
:102860000F900F90DF91CF910895EF92FF920F9309
:10287000FC01218102810F70F0E12F9F000D1124D6
:102880000093220140912501509126010F2EF0EE78
:10289000EF2EF4E0FF2EF02D209123016091240112
:1028A0008091270190912801EBDCC7016BD6CBDF2B
:1028B0000F91FF90EF90089560E070E087EC94E056
:1028C0000E94F50BC0CF08951F920F920FB60F9282
:1028D00011240BB60F921F932F933F934F935F9347
:1028E0006F937F938F939F93AF93BF93CF93DF9318
:1028F000EF93FF93F894C0919C006C2F70E04EE032
:1029000050E086EF90E00E948F1D892B19F0109205
:102910003B0306C080913B03803211F410923B03CD
:1029200060913B03E62FF0E0E45CFC4FC08311E0D4
:10293000160F10933B03C33011F560913C0370E018
:102940004EE050E086EF90E00E948F1D0097B9F0B6
:10295000EC01C65FD040612FCE014FDF882361F0CC
:10296000CC0FDD1FC453DF4FFE01259134918CE362
:1029700093E0F901099501C054DF10923B0378946C
:10298000FF91EF91DF91CF91BF91AF919F918F9187
:102990007F916F915F914F913F912F911F910F9078
:1029A0000BBE0F900FBE0F901F901895EF92FF92E5
:1029B0000F93FC0120812F7030E0322F222781817C
:1029C00040E1849FC00111249927820F931F228127
:1029D0002F70820F911D90932801809327012381EE
:1029E00064816F7070E1279F600D11246093240152
:1029F00025812F7030E0322F2227468170E1479FDA
:102A0000A00111245527420F531F27812F70420F19
:102A1000511D5093260140932501308521852F704B
:102A200070E1379F200D1124209323013285038507
:102A30000F7070E1379F000D1124009322010F2EBB
:102A4000F0EEEF2EF4E0FF2EF02D1ADC0F91FF9048
:102A5000EF9008950196AADF80EE94E0B9D5F3CE09
:102A600008950F931F93CF93DF93CDB7DEB72897C9
:102A70000FB6F894DEBF0FBECDBFDC011196E9ECB6
:102A8000F4E080ED94E02D912F702193E817F90781
:102A9000D1F789EC94E00E94AF0298878F838E0172
:102AA0000F5F1F4F86E0F80111928A95E9F746E023
:102AB000B801CE0107960E941603C80177DF66E0D1
:102AC000C80140DE28960FB6F894DEBF0FBECDBF1A
:102AD000DF91CF911F910F9108950F931F93CF9383
:102AE000DF93CDB7DEB728970FB6F894DEBF0FBEE1
:102AF000CDBF8C0101960E94AF0298878F83C801D9
:102B0000089654DF60EE74E08F8198850E940F0371
:102B10008E010F5F1F4F86E0F80111928A95E9F749
:102B200046E0B801CE0107960E94160346E050E049
:102B300060EE74E0C8010E949C1D892B11F483DEB5
:102B400001C06FDE28960FB6F894DEBF0FBECDBF72
:102B5000DF91CF911F910F9108950F931F93CF9302
:102B6000DF93EC018C01035F1F4FB8018EEF9FE0F4
:102B70000E94B3018981811105C08889887F8C5F9B
:102B8000888B04C08889887F8A5F888BB8018EEF24
:102B900097E00E949801DF91CF911F910F910895C6
:102BA000CF93C82F68ED74E08DEF9FE00E94B301D2
:102BB000EBEDF4E0CF7780818078C82BC08368ED9F
:102BC00074E08DEF97E00E949801CF9108954091B5
:102BD000C9042091CA0430E0C901880F991F220F4F
:102BE000331F220F331F220F331F820F931F24E640
:102BF000429F800D911D11242091CB04820F911DC5
:102C00000F9765E070E074D7CB010895CF93FC0176
:102C10002181C281CF70F0E12F9FC00D11248C2F34
:102C2000BFDFD5DFFC01E953FB4FC0A30CDECF9122
:102C30000895CDDFEBEDF4E089539B4F20812078A0
:102C4000DC0190968C91822B808368ED74E08DEF8F
:102C500097E00C9498010895CF93DF93CDB7DEB73A
:102C600061970FB6F894DEBF0FBECDBFFC01BE0169
:102C70006F5F7F4F8DE0DB011D928A95E9F79081B0
:102C80008181B0E19B9F800D11248D83928183818E
:102C900020E1929F800D11248E8394818581A0E193
:102CA0009A9F800D11248F8386818295807F8887EB
:102CB00087EF97E00E949801BE016B5F7F4F86EF20
:102CC00097E00E949801BE01675F7F4F85EF97E014
:102CD0000E94980184E08E871F86188A198ABE0197
:102CE000625F7F4F84EF97E00E94980184E191E05A
:102CF0000197F1F70000819BFECF9BDF61960FB635
:102D0000F894DEBF0FBECDBFDF91CF910895CF9372
:102D1000DF93EC01FC01E75BFF4F8081813051F4D0
:102D2000CE010E94AC099351933120F481E295E0E9
:102D300050D64CC0FE01E75BFF4F8081823009F026
:102D400041C0CE010E94AC099450943020F481E23D
:102D500095E0C6D53BC0FE01E75BFF4F8081823026
:102D600089F5CE010E94AC099151913158F589EC59
:102D700094E072DF4091C90428EE33E0429FC00125
:102D8000439F900D11242091CA0434E6239F800DA7
:102D9000911D11242091CB0430E0A901440F551F4F
:102DA000220F331F220F331F220F331F240F351F13
:102DB000820F931F2091CC0461E275E0820F911D78
:102DC000E1D504C060E081E295E004D560E070E008
:102DD00087EC94E00E94F50BCE010E941C0ADF9163
:102DE000CF910895DC011196E9ECF4E080ED94E0D8
:102DF0002D912F702193E817F907D1F789EC94E012
:102E00002BDF21CD0895EF92FF920F931F93CF9365
:102E1000DF93CDB7DEB72E970FB6F894DEBF0FBEA7
:102E2000CDBFDC011196E9ECF4E080ED94E02D914A
:102E30002F702193E817F907D1F789EC94E00CDFA4
:102E400089EC94E00E94AF0260EE74E00E9461039E
:102E500080EE94E0BDD3F7DC8FEF95E30197F1F7B7
:102E600000C000000F2EF0EEEF2EF4E0FF2EF02D4C
:102E700002E211E023E231E045E251E064E271E078
:102E800087E291E067DAFE0131968EE0DF011D9264
:102E90008A95E9F785E8898383E08E878091270109
:102EA000909128019C0122273F7020E3230F2A8361
:102EB0009C01207F3327329522952F7023273F7066
:102EC0002327205D2B838F70805D8C83809124016C
:102ED000982F92959F70905D9D838F70805D8E83FB
:102EE00080912501909126019C0122273F7020E3CB
:102EF000230F2F839C01207F3327329522952F703B
:102F000023273F702327205D28878F70805D898766
:102F100080912301982F92959F70905D9A878F7072
:102F2000805D8B8780912201982F92959F70905D94
:102F30009C878F70805D8D878FEF9BE60197F1F7FF
:102F400000C000006EE0CE010196FCDB2E960FB6AD
:102F5000F894DEBF0FBECDBFDF91CF911F910F91CF
:102F6000FF90EF900895FC0190818181292F30E03E
:102F7000A901440F551F220F331F220F331F220FA9
:102F8000331F240F351F280F311D2E31310559F005
:102F90002130310551F08250990F292F220F220F35
:102FA000920F890F08958DE1089580E0089585E0DE
:102FB0000E94CB008093C50489EC94E0D4DF65ECDB
:102FC00074E090E00C9412030895F1DF3CCC089576
:102FD000CF93DF931F92CDB7DEB789EC94E0C3DFC8
:102FE000BE016F5F7F4F90E00E94710389810F9057
:102FF000DF91CF91089560E070E087EC94E00E944B
:10300000D20D0E94CE0160ED74E08FEF97E00E9438
:10301000980164ED74E08EEF97E00E94980168EDEE
:1030200074E08DEF97E00E9498016CED74E08CEFF6
:1030300097E00E9498018FEF9BE60197F1F700C09F
:10304000000090988FEF95E30197F1F700C0000022
:10305000AC9A8FEF9BE60197F1F700C0000089EC76
:1030600094E0FADD87EC94E078CD0895811106C0F4
:10307000C79890912005992339F009C0C79A90917B
:103080002005992319F003C0C79801C0C79A9091F1
:103090002005913021F4811190E0892FD3C3089548
:1030A000EF92FF920F931F9389EC94E00E94AF027E
:1030B00089EC94E00E94AF0260EE74E00E9461032C
:1030C0000F2EF0EEEF2EF4E0FF2EF02D02E211E0D5
:1030D00023E231E045E251E064E271E087E291E011
:1030E00039D981E0C3DFC70173D280E0BFDF1F9110
:1030F0000F91FF90EF900895DF92EF92FF920F9360
:103100001F93CF93DF93EC01FC01E75BFF4F8081BE
:10311000813009F073C031978081873008F050C04A
:1031200060E070E087EC94E00E94F50B89EC94E09D
:1031300093DD8091200581110AC0B2DF49DF8093C1
:10314000E60486EB93E090932A058093290580910D
:1031500020058130A9F52091C90488EE93E0289FCD
:103160007001299FF00C11248091CA0494E6899F74
:10317000E00CF11C11242091CB0430E0C901880F30
:10318000991F220F331F220F331F220F331F280FC7
:10319000391FE20EF31E8091CC04E80EF11C08ECFE
:1031A00014E0F801D080108287EC94E0D6DC61E274
:1031B00075E0C701E7D3F801D08287EC94E0CDDC5D
:1031C000FE01E85BFF4F80818730C1F4E8ECF4E05A
:1031D0001081108287EC94E0C0DC80912005811181
:1031E00001C02DD080912005813019F481E295E055
:1031F000F0D31093C80487EC94E0AFDCFE01E75BEA
:10320000FF4F8081823069F431978081823049F4A8
:10321000CE010E94960990932A05809329050E9469
:103220001C0A8091290590912A050E941C0ADF91B1
:10323000CF911F910F91FF90EF90DF900895EF9243
:10324000FF920F93CF93DF932BDFC2DEC82F85E071
:103250000E94DA008093C504D0E090E08C1B9D0BA7
:103260009C0122F422273327281B390B23303105F8
:103270000CF44BC01816190634F4809122018F5FAC
:103280008093220105C08091220181508093220108
:10329000009122010023C9F10F33B9F140912501BA
:1032A000509126010F2EF0EEEF2EF4E0FF2EF02DC0
:1032B00020912301609124018091270190912801A0
:1032C0000E944011C7015ED18091220185FD06C098
:1032D00086E695E00197F1F7000005C084E191E0F2
:1032E0000197F1F7000085E00E94DA008093C504A1
:1032F00090E08C1B9D0B9C0122F422273327281B76
:10330000390B233031050CF0B5CFDF91CF910F9100
:10331000FF90EF9008950F931F93CF93DF93EC01ED
:10332000FC01E75BFF4F8081823091F4319780810F
:103330008823C9F1FE01E85BFF4F8081813009F4E9
:1033400041C0FE01E85BFF4F8081833041F54BC0F7
:10335000FE01E75BFF4F8081813009F50F89188DF1
:10336000CE010E94AC09090F111DF801319780812F
:103370008835A9F4FE01E85BFF4F808190E0FC01F5
:10338000E953FB4F2281293030F4FC01E953FB4F14
:103390002F5F228304C0FC01E953FB4F1282CE0150
:1033A0000E941C0A2EC0E7ECF4E0908181E089279E
:1033B00080835CDEFE01E75BFF4F8081823009F491
:1033C000B9CFC6CFE8ECF4E0908181E08927808313
:1033D00087EC94E0C2DBFE01E75BFF4F8081823027
:1033E00009F4AFCFB5CFE0E2F5E081E09081911133
:1033F00080E0808360E070E087EC94E00E94F50B51
:10340000A7CFDF91CF911F910F9108950F931F9335
:10341000CF93DF93EC01FC01E75BFF4F80818230AB
:1034200091F4319780818823D1F1FE01E85BFF4F51
:103430008081813009F442C0FE01E85BFF4F80814A
:10344000833049F54CC0FE01E75BFF4F808181303E
:1034500011F50F89188DCE010E94AC09090F111DBD
:10346000F801319780818835B1F4FE01E85BFF4FA8
:10347000808190E0FC01E953FB4F2281222331F04F
:10348000FC01E953FB4F2150228305C0FC01E953A5
:10349000FB4F29E02283CE010E941C0A2EC0E7ECDC
:1034A000F4E0908181E089278083E0DDFE01E75B25
:1034B000FF4F8081823009F4B8CFC5CFE8ECF4E04B
:1034C000908181E08927808387EC94E046DBFE01D0
:1034D000E75BFF4F8081823009F4AECFB4CFE0E2EA
:1034E000F5E081E09081911180E0808360E070E000
:1034F00087EC94E00E94F50BA6CFDF91CF911F914E
:103500000F910895FC0181818F70B0DD9CC90895F1
:103510000E94B9040E94B6044EE153E060E080E0EE
:103520000E9414050E94ED0366DD23D00E948203F1
:10353000FBD88CE593E090932A05809329050E949F
:103540001C0A67E083E393E0FDD8BF9A8AE495E024
:103550000E940304FBCF6FEF7FEF81E090E00C94BB
:10356000F20608956FEF7FEF80E090E00C94F20692
:103570000895B99AB89ABA9ABF9AC198C098C29851
:10358000C7980895FC01F8942FE030E0C19885E2D7
:103590008A95F1F744815581022E02C056954795D0
:1035A0000A94E2F740FD02C0C29801C0C29A85E2C7
:1035B0008A95F1F7C19A85E28A95F1F72150310990
:1035C0002730310519F7C198C098C29878940895AA
:1035D0000F931F93CF93DF93EC01F89481E046DDC6
:1035E00008E219E202C0115001501131D0F4C09824
:1035F00085E28A95F1F7888199812FEF210F02C02A
:10360000969587952A95E2F780FD02C0C29801C081
:10361000C29A85E28A95F1F7C09A85E28A95F1F718
:1036200041C08FEE810F8031D0F4C09885E28A9539
:10363000F1F78A819B812FEE210F02C09695879525
:103640002A95E2F780FD02C0C29801C0C29A85E2C5
:103650008A95F1F7C09A85E28A95F1F723C08FED3C
:10366000810F8830D0F4C09885E28A95F1F78C817B
:103670009D812FED210F02C0969587952A95E2F73F
:1036800080FD02C0C29801C0C29A85E28A95F1F716
:10369000C09A85E28A95F1F705C0193219F4CE0176
:1036A00071DFA1CF01119FCFC198C098C29880E06F
:1036B000DDDC7894DF91CF911F910F910895B89A36
:1036C000BA9AC298C09827E32A95F1F70000882398
:1036D00071F090E0C29A27E02A95F1F700C0C298F5
:1036E00027E02A95F1F700C09F5F981798F3C09ADA
:1036F000C2980895CF93DF93EC0185E0E0DFB99A9B
:10370000BA9AC298C19888E0C29897E09A95F1F762
:1037100000C0C19A97E09A95F1F700C0C19897E070
:103720009A95F1F700C0815079F729E030E0AE01B9
:10373000022E02C0569547950A94E2F740FD02C05A
:10374000C29801C0C29A87E08A95F1F700C0C19A79
:1037500097E09A95F1F700C0C19887E08A95F1F754
:1037600000C02150310918F786E0C29897E09A9579
:10377000F1F700C0C19A97E09A95F1F700C0C1989F
:1037800097E09A95F1F700C0815079F7C19885E0EC
:1037900096DFDF91CF910895B99ABA9AC298C198ED
:1037A00098E0882314F0C29801C0C29A27E02A95B5
:1037B000F1F700C0C19A27E02A95F1F700C0C1983F
:1037C00027E02A95F1F700C0880F915051F7C29871
:1037D000C19808951F93CF93DF93EC01162F6230A9
:1037E00099F030F06430C9F050F0653091F026C0A7
:1037F00081E065DF8881D0DF1123A1F01FC083E065
:103800005EDF8A81C9DF1AC082E059DF8981C4DFA7
:1038100015C08C819D816EDF11C084E050DF8B81EB
:10382000BBDF0CC083E04BDF8A81B6DF82E047DF7D
:103830008981B2DF8C819D815DDFEFCFDF91CF91F8
:103840001F910895BF9A882311F0C7980895C79AC9
:103850000895DB01EEE8F1E020813181528173812E
:1038600064812115310571F128173907C4F041E051
:10387000242F30E0F901EE0FFF1FEE0FFF1FE20FC4
:10388000F31FE257FE4F20813181528173816481A1
:1038900028173907A4F4442319F0415001C040E02F
:1038A000842F90E0FC01EE0FFF1FEE0FFF1FE80FCB
:1038B000F91FE257FE4F52817381648103C04F5F4D
:1038C000232BB1F611967C93119712966C93129755
:1038D0005C9313961C92139760E0CD017BCF089503
:1038E000BF92CF92DF92EF92FF920F931F93CF93ED
:1038F000DF93EC012FEF33E00F2ECC24CA94F3E0DA
:10390000DF2EF02DE12CF12C8901332314F40F5F0D
:103910001F4F159507950E0D1F1DC80102979D831A
:103920008C8365E0CE0156DF85E00E94DA00B82E78
:1039300098012E5F3F4F3D832C8365E0CE014ADF27
:1039400085E00E94DA00B81610F4780101C0680121
:1039500096012E193F09C90122F488279927821B55
:10396000930B03978CF61D830C8360E0CE0132DF4E
:10397000DF91CF911F910F91FF90EF90DF90CF904B
:10398000BF9008950F931F93CF93DF93CDB7DEB70A
:1039900028970FB6F894DEBF0FBECDBF8B01BE01D6
:1039A0006F5F7F4F56DFCE0101969ADF88E0FE0100
:1039B0003196D80101900D928A95E1F728960FB6BD
:1039C000F894DEBF0FBECDBFDF91CF911F910F9155
:1039D0000895AF92BF92CF92DF92EF92FF920F9332
:1039E0001F93CF93DF93CDB7DEB728970FB6F89428
:1039F000DEBF0FBECDBF7C0188E0F701DE0111966E
:103A000001900D928A95E1F71C8264E0CE01019647
:103A1000E1DE85E00E94DA00C82E8FE18C8364E04D
:103A2000CE010196D7DE85E00E94DA002FE130E07A
:103A30000F2EFFE1BF2EF02DD12C00EF10E0A901D9
:103A4000332314F44F5F5F4F55954795AD2CA40E6B
:103A5000AC8264E0CE010196BDDE85E00E94DA0012
:103A6000F801E81BF109B8016C197109E69F900192
:103A7000E79F300DF69F300D1124121613061CF42B
:103A8000C82EDA2C01C0BA2C2B2D30E02D193109AB
:103A900022303105A4F688E0FE013196D70101906D
:103AA0000D928A95E1F728960FB6F894DEBF0FBE07
:103AB000CDBFDF91CF911F910F91FF90EF90DF90DD
:103AC000CF90BF90AF900895AA1BBB1B51E107C0D8
:103AD000AA1FBB1FA617B70710F0A61BB70B881F9E
:103AE000991F5A95A9F780959095BC01CD0108952D
:103AF00097FB072E16F4009406D077FD08D0E4DF7C
:103B000007FC05D03EF4909581959F4F08957095E0
:103B100061957F4F08950790F691E02D0994FC017F
:103B20004150504030F005900616D1F73197CF0143
:103B30000895882799270895FB01DC0104C08D9121
:103B40000190801921F441505040C8F7881B990B0F
:103B50000895FB01DC0102C001900D9241505040DC
:103B6000D8F70895FC018191861721F08823D9F7B1
:103B7000992708953197CF010895DC01CB01FC010D
:103B8000E199FECF06C0FFBBEEBBE09A31960DB2C5
:103B90000D9241505040B8F70895DC01A40FB51FB5
:103BA0004150504040F0CB01840F951F2E9105D01D
:103BB00041505040D8F70895262FE199FECF9FBB82
:103BC0008EBBE09A01970DB2021631F02DBB0FB6F5
:103BD000F894E29AE19A0FBE089511E0C6E0D1E0B0
:103BE00000E005C022970109FE010BBF94DFC83039
:0C3BF000D10780E00807B1F7F894FFCF80
:103BFC0005060102030425052705210522052305D9
:103C0C0024054C5A315400325400CED2CF00C7C0D8
:103C1C00CF00294B656D06D90D3031323334353632
:103C2C003738394142434445464D0020202020205E
:103C3C002020202020202020202020202020200098
:103C4C002020202020202020202020202020202068
:103C5C002020200000746573746F76616A612066A1
:103C6C0069676E61206667686A206B6A686764665C
:103C7C00736572747975686E6D6B6C6664009A0B03
:103C8C00010001C409010101FC08010201480801FD
:103C9C000402C20601080454060109042C06010A98
:103CAC00041806010A08F005010B08E605020001DC
:103CBC001405020101F6040202017E04020402CA88
:103CCC00030208082003020D081B03040001AD02C7
:103CDC0004010194020402015802040402F40104D8
:103CEC000802CC01040A02B801040C049001040F70
:103CFC000C0000000000000800040002000180001D
:103D0C004000200010000800040002000100804068
:103D1C0020100804020120202053454C20464C4121
:103D2C005348204552524F522020001027E803647C
:103D3C00000A000100000000002C012C012C012CB9
:103D4C00014B00000005000A00140028005000641C
:103D5C000096002C015802B0046009B80B4E756C2B
:103D6C006C00585858204D4F443A585820D3F1F213
:103D7C0020533A582000463D58585858582C5858FB
:103D8C0020EAC3F620CDE0F1F2F000404040435F62
:103D9C00585240585840585840585840585840006D
:103DAC00235840435F585240585840585840585830
:103DBC00405858400044433D5858404C323D5858A8
:103DCC004043323D58585858580040413D5858408F
:103DDC004C313D58584043313D58585840400043B1
:103DEC00313D585858582B585840404040463A5846
:103DFC00585858004C3D585840433D5858404C6911
:103E0C003D585840413D5858004C535030002020EC
:103E1C0020202020C7C0C3D0D3C7CAC02020202058
:0A3E2C002020005245424F4F540081
:00000001FF
