:1000000081C000009DC000009BC0000099C000009E
:1000100097C0000095C0000093C0000091C0000090
:100020008FC000008DC000008BC0000089C00000A0
:1000300087C0000085C0000083C0000081C00000B0
:100040007FC000007DC000007BC0000079C00000C0
:1000500077C0000075C0000073C0000071C00000D0
:100060006FC000006DC000006BC0000069C00000E0
:1000700067C0000065C0000092C5000061C00000BC
:100080005FC000005DC000005BC0000041A042A155
:10009000E045A3A4A5A64BA74D484FA8504354A99B
:1000A000AA58E1ABACE2ADAE62AFB0B161B2B3B4ED
:1000B000E365B6B7B8B9BABBBCBD6FBE7063BF79F4
:1000C000E478E5C0C1E6C2C3C4C5C6C7CE07DD0734
:1000D0009006A505250558089606CF0627052B0589
:1000E0005407C9051A08570507070C020101071331
:1000F00000000200000080468584868790919281EE
:10010000959697FF11241FBECFEFD0E1DEBFCDBF84
:1001100011E0A0E0B1E0EEEEF2E100E00BBF02C0C2
:1001200007900D92A439B107D9F722E0A4E9B1E014
:1001300001C01D92AF30B207E1F7BFD70C9475092B
:100140005FCFB89AC09A8770806E87B986EC86B9FF
:10015000369B05C087E08A95F1F700C0F9CFC098BB
:1001600085B10895CF93DF93CDB7DEB768970FB60B
:10017000F894DEBF0FBECDBF28E1E7E0F1E0DE017D
:10018000119601900D922A95E1F7A89824E02A95FE
:10019000F1F7FE013196AE01475E5F4F219131913B
:1001A000B901682379236217730711F0A99801C078
:1001B000A99AA89A2FE02A95F1F7A898E417F507CD
:1001C00069F7A99868960FB6F894DEBF0FBECDBF49
:1001D000DF91CF910895CF93DF93CDB7DEB7289706
:1001E0000FB6F894DEBF0FBECDBF98E0EFE1F1E0AF
:1001F000DE01119601900D929A95E1F7A89894E08E
:100200009A95F1F7FE0131969E01275F3F4F91913C
:10021000492F4823491711F0A99801C0A99AA89A13
:100220009FE09A95F1F7A898E217F30781F7A9984C
:1002300028960FB6F894DEBF0FBECDBFDF91CF91E9
:100240000895CF93DF93CDB7DEB728970FB6F89414
:10025000DEBF0FBECDBF88E0EFE1F1E0DE01119619
:1002600001900D928A95E1F7FE0131969E01275F7C
:100270003F4F80E0A8989BE09A95F1F7000093B378
:10028000419192FB992790F9499F800D1124A89ADA
:1002900097E09A95F1F700C0E217F30759F7A8988D
:1002A00028960FB6F894DEBF0FBECDBFDF91CF9179
:1002B0000895EF92FF921F93CF93DF9300D0CDB7B5
:1002C000DEB7AE98AF98AD9869837A834BDF84E050
:1002D0008A95F1F76981E62E7A81F72E14E0F7010D
:1002E00081917F0178DF1150D1F7AD9A0F900F9077
:1002F000DF91CF911F91FF90EF900895EF92FF92C1
:100300001F93CF93DF9300D0CDB7DEB7AE98AF98F1
:10031000AD9869837A8326DF84E08A95F1F7698155
:10032000E62E7A81F72E14E08CDFF70181937F01AE
:100330001150D1F7AD9A0F900F90DF91CF911F918F
:10034000FF90EF90089515BA8FEF84BBA298A898FC
:10035000AD9AA998809364001092650081E081BBFA
:1003600012BAAC98909A2FEF8FED90E12150804017
:100370009040E1F700C000008FEF8093640010927E
:1003800065008FEF95E30197F1F700C0000081E071
:1003900080936500109264009FEF2FED80E19150F3
:1003A00020408040E1F700C000008091630081FDA3
:1003B00008C09FEF2FEA81E0915020408040E1F794
:1003C000F2CF9FEF2FEA81E0915020408040E1F78B
:1003D00000C0000008950F931F93CF93DF93EC01AB
:1003E000A2E6B1E0EFEFFFEF20E030E06AE04D91F0
:1003F0005D91649FC001659F900D11248C179D072E
:1004000028F42530310509F458C0F9012F5F3F4F1A
:100410002630310561F7EF3F8FEFF80709F450C040
:100420008F01000F111FD801AE59BE4F8D919C91C5
:100430004AE0489F9001499F300D11242C173D0739
:1004400050F4D801AA5ABE4F6D917C91CE01821B07
:10045000930BDAD602C060E070E0D801AA5ABE4F12
:100460004D915C91649FC001659F900D749F900DAC
:100470001124C81BD90BC21BD30BAAE4B1E080E046
:1004800090E020E030E02E173F0739F00D911D91EC
:10049000800F911F2F5F3F4FF6CF56954795C4179A
:1004A000D50710F06F5F7F4F680F791F26E0269FFA
:1004B000C001279F900D112405C08BEF94E002C06E
:1004C00080E090E0DF91CF911F910F910895DC01C2
:1004D000ECE3F1E080E090E06D91419151916F701B
:1004E000649F9001659F300D1124820F931F21E0BE
:1004F000EA34F20789F76FCF90D147E251E060E02C
:1005000080E0DED12FEF8FED90E1215080409040D0
:10051000E1F700C000000895EF92FF920F931F9340
:10052000CF93DF93F42EE62E8C01EB018C2F8E19E6
:100530008F15F8F481D080EAC4D0813009F4DCDF73
:10054000812FBFD0813009F4D7DF802FBAD081301E
:1005500009F4D2DF8991B5D0813009F4CDDF7ED0A6
:100560008FEF95E30197F1F700C000000F5F1F4F79
:10057000DDCFDF91CF911F910F91FF90EF90089504
:1005800046E0CACF41E09A95C7CFDF92EF92FF9243
:100590000F931F93CF93DF93EC01F62E072FD42EEA
:1005A0004BD080EA8ED011E0813009F010E08981D3
:1005B00088D0813009F41F5F888183D0813009F4AD
:1005C0001F5F3AD081EA7DD0813009F0111194DFAC
:1005D000CF2DD02F00E010E0ED2CF12C81E0E81AB7
:1005E000F1080D1550F481E00E151F0509F080E0AB
:1005F00070D089930F5F1F4FF4CFDF91CF911F9180
:100600000F91FF90EF90DF9029C0CF93DF9300D040
:10061000CDB7DEB79A83898346E0CE010196B5DF78
:100620000F900F90DF91CF910895C698C598BE9A0C
:10063000BD9ABE98BD98089587B38F7987BB8BE02C
:100640008A95F1F70000BE9A8BE08A95F1F70000D9
:10065000BD9A8BE08A95F1F70000089587B3806614
:1006600087BB8BE08A95F1F70000BD988BE08A95F7
:10067000F1F70000BE988BE08A95F1F7000008952D
:1006800087FF02C0BE9801C0BE9A2BE02A95F1F701
:100690000000BD9890E0B59908C09F3F31F02BE075
:1006A0002A95F1F700009F5FF6CF9BE09A95F1F74E
:1006B000000096B3BD9A880F96FB992790F9892B75
:1006C0000895CF93C8E0DCDFC150E9F780E8CF910F
:1006D000D7CF1F93CF93DF93182FD8E0CFEF8C2F76
:1006E000CFDFC82FD150D9F7812F879588278795DD
:1006F000C7DF8C2FDF91CF911F910895E1E6F0E0E5
:10070000808182608083808181608083808180623B
:100710008083E2E6F0E0108210B8808180628083FE
:100720008081826080830895DA988FE08ABBD99AAD
:10073000D89882E18A95F1F700C0DA9A9BE09A9501
:10074000F1F7000089B39BE09A95F1F70000DA9881
:1007500092E19A95F1F700C0DA9A9BE09A95F1F749
:100760000000DA989FEF9ABB0895CF93C82FDCDF83
:1007700087FDFDCFDA989BB39F709BBB9BB39C2BEF
:100780009BBBD998D89882E18A95F1F700C0DA9A94
:100790008BE08A95F1F70000DA9882E18A95F1F70B
:1007A00000C08BB38F708BBBCF910895CF93C82FB0
:1007B000807FDBDF8C2F8295807FCF91D6CFCF9348
:1007C000C82FB2DF87FDFDCFDA989BB39F709BBB2C
:1007D0009BB39C2B9BBBD998D89A82E18A95F1F761
:1007E00000C0DA9A8BE08A95F1F70000DA9882E18E
:1007F0008A95F1F700C08BB38F708BBBCF910895B2
:10080000CF93C82F807FDBDF8C2F8295807FD7DF4F
:100810008BB3806F8BBBCF91089581E0C7CF8FEFF3
:100820008ABB83E0EFEFF1EA3197F1F700C00000F7
:10083000DA989BB39F709BBB9BB390639BBBD9988B
:10084000D898F2E1FA95F1F700C0DA9A9BE09A9510
:10085000F1F70000DA98E2E1EA95F1F700C09BB306
:100860009F709BBB8150F1F680E27FDF8CEC9AE0B9
:100870000197F1F700C000008FE298DFCEDF86E03D
:1008800095DF8EE093CF803C28F0E82FF0E0E45332
:10089000F0408491B5CF982F862F923059F018F4FC
:1008A000913031F00895933039F0943039F0089553
:1008B000815805C0815403C08D5601C08D5276CF3A
:1008C0000F931F93CF93DF9300D0CDB7DEB749834B
:1008D0005A83E1DF4981042F5A81152FF801819154
:1008E0008F01882311F0CFDFF9CF0F900F90DF91A8
:1008F000CF911F910F91089549E550E0D6C449E585
:1009000050E0C3C4CF93DF9320E030E0E0E0F0E0BC
:10091000AFE0B0E0AD01421B530BEC0102C0D69535
:10092000C7954A95E2F7AE0141705527022E02C0E5
:10093000440F551F0A94E2F7E40FF51F2F5F3F4F56
:100940002031310539F7DB01ED93FC93DF91CF9135
:100950000895EF92FF920F931F93CF93DF9300D0F0
:1009600000D01F92CDB7DEB79A838983162F5C83A0
:100970004B83BE016F5F7F4F2D83C4DF89819A81D6
:1009800054E0969587955A95E1F79A838983BE013D
:100990006D5F7F4F8B819C81B5DF4B815C81812FA7
:1009A00090E0982F88279295990F907EE981FA819F
:1009B000FF708E0F9F1FF701918380831877612F3F
:1009C00070E0A3E076956795AA95E1F7407F640F04
:1009D000751F7383628380E2802790E080959095F5
:1009E000382F80E0932F2D81820F911D820F911D52
:1009F000958384830F900F900F900F900F90DF914D
:100A0000CF911F910F91FF90EF90089510929B004E
:100A100088E980939A0086E280939D001092980066
:100A200085E0809399000895F894282FFC018E2F7B
:100A3000821B861740F480919B0085FFFCCF81913B
:100A400080939C00F4CF7894089561E0EDCF0C94EE
:100A5000007861E0E9CFCF93DF9300D000D000D0E1
:100A6000CDB7DEB787E06DDB91E89983982F92953B
:100A70009F70905D9A838F70805D8B8386E061DBD1
:100A8000982F92959F70905D9C838F70805D8D8371
:100A900083E08E8366E0CE010196C6DF26960FB610
:100AA000F894DEBF0FBECDBFDF91CF910895CF93F5
:100AB000DF931F92CDB7DEB78FEF898361E0CE0160
:100AC0000196B2DF64E083E791E0AEDF83E08983E3
:100AD00061E0CE010196A8DF0F90DF91CF910895DC
:100AE0008E30910560F4FC01E851FF4FE491F0E095
:100AF00070E06250710981E0E617F70709F080E0C5
:100B00000895CF93DF9300D0CDB7DEB786E1898318
:100B100083E08A8362E0CE01019686DF0F900F901A
:100B2000DF91CF910895CF93DF9300D0CDB7DEB79B
:100B300086E0898383E08A8362E0CE01019674DFD8
:100B40000F900F90DF91CF910895EF92FF920F9346
:100B5000FC01218102810F70F0E12F9F000D112413
:100B60000093000140910301509104018FECE82EA5
:100B700081E0F82E20910101609102018091050130
:100B800090910601E6DEC701B3D20F91FF90EF907E
:100B9000CACF60E070E086EB91E0AEDEC4CF1F927A
:100BA0000F920FB60F9211240BB60F921F932F9333
:100BB0003F934F935F936F937F938F939F93AF93E5
:100BC000BF93CF93DF93EF93FF93F894C0919C0072
:100BD0006C2F70E04EE050E086EF90E03CD3892B24
:100BE00011F01092940180919401803211F41092CE
:100BF000940110919401E12FF0E0EB56FE4FC08379
:100C00001F5F10939401C33011F580919501682FF7
:100C100070E04EE050E086EF90E01DD30097B9F011
:100C2000EC01C65FD040612FCE015ADF882361F00E
:100C3000FE01EE0FFF1FE453FF4F2591349185E92C
:100C400091E0F901099501C05CDF1092940178945C
:100C5000FF91EF91DF91CF91BF91AF919F918F91D4
:100C60007F916F915F914F913F912F911F910F90C5
:100C70000BBE0F900FBE0F901F901895EF92FF9232
:100C80000F93FC0180818F7090E0982F882721813D
:100C900040E1249F900111243327820F931F22816A
:100CA0002F70820F911D909306018093050123817F
:100CB00064816F7070E1279F600D112460930201C1
:100CC00045814F7050E0542F4427268170E1279FC3
:100CD000900111243327420F531F27812F70420F99
:100CE000511D5093040140930301308521852F70DD
:100CF00070E1379F200D1124209301013285038577
:100D00000F7070E1379F000D1124009300017FECFC
:100D1000E72E71E0F72E1DDE0F91FF90EF90089502
:100D20000196ACDF8FEC91E009D2FDCE0F931F93BB
:100D3000CF93DF93CDB7DEB728970FB6F894DEBF19
:100D40000FBECDBFDC011196E8EBF1E08D918F7005
:100D5000819381E0EF3BF807C9F788EB91E0B7DBBF
:100D600098878F838E010F5F1F4F86E0F8011192E5
:100D70008A95E9F746E0B801CE01079606DCC8017E
:100D80007DDF66E0C80150DE28960FB6F894DEBF1E
:100D90000FBECDBFDF91CF911F910F9108950F939B
:100DA0001F93CF93DF93CDB7DEB728970FB6F89494
:100DB000DEBF0FBECDBF8C01019689DB98878F8384
:100DC000C80108965BDF6FEC71E08F819885D8DBF6
:100DD0008E010F5F1F4F86E0F80111928A95E9F7A7
:100DE00046E0B801CE010796D0DB46E050E06FEC5C
:100DF00071E0C8013DD2892B11F495DE01C081DE7E
:100E000028960FB6F894DEBF0FBECDBFDF91CF910D
:100E10001F910F9108950F931F93CF93DF93EC01D0
:100E20008C01035F1F4FB8018EEF9FE067DA998155
:100E30008889887F911102C08C5F01C08A5F888B8E
:100E4000B8018EEF97E0DF91CF911F910F9131CADA
:100E5000CF93C82F67EC71E08DEF9FE04FDAEAEC9B
:100E6000F1E08C2F8F7790819078892B808367ECCD
:100E700071E08DEF97E0CF911CCA2091B80180916D
:100E8000B9013AE0839FC001112434E6239F800D0D
:100E9000911D11242091BA01820F911D0F9765E0D9
:100EA00070E0C6D1CB010895CF93FC012181C281AE
:100EB000CF70F0E12F9FC00D11248C2FC9DFDDDF33
:100EC000FC01EA54FE4FC0A3CF912DCED6DFEAEC51
:100ED000F1E08A549E4F20812078DC0190968C911D
:100EE000822B808367EC71E08DEF97E0E2C9CF93AE
:100EF000DF93CDB7DEB761970FB6F894DEBF0FBEB4
:100F0000CDBFFC01BE016F5F7F4F8DE0DB011D9205
:100F10008A95E9F790818181B0E19B9F800D112432
:100F20008D839281838120E1929F800D11248E8395
:100F300094818581A0E19A9F800D11248F83868101
:100F40008295807F888787EF97E0B3D9BE016B5F7A
:100F50007F4F86EF97E0ADD9BE01675F7F4F85EF8A
:100F600097E0A7D984E08E871F86188A198ABE0168
:100F7000625F7F4F84EF97E09CD984E191E0019715
:100F8000F1F70000819BFECFA1DF61960FB6F894C8
:100F9000DEBF0FBECDBFDF91CF910895DC0111966A
:100FA000E8EBF1E08D918F70819381E0EF3BF807E2
:100FB000C9F788EB91E09BDFB6CDDC011196E8EB39
:100FC000F1E08D918F70819381E0EF3BF807C9F7D5
:100FD00088EB91E08CDF88EB91E079DA6FEC71E0DF
:100FE00014DB8FEC91E0AAD09ECDFC014081818181
:100FF000282F30E0FAE04F9F200D311D11242E31B3
:10100000310549F02130310541F082509AE0499F85
:10101000800D112408958DE1089580E0089586E003
:1010200090D88093B50188EB91E0DFDF65EB71E04C
:1010300090E0A8CAF4DF77CD60E070E086EB91E045
:101040005EDC81D96FEB71E08FEF97E032D963EC12
:1010500071E08EEF97E02DD967EC71E08DEF97E0AE
:1010600028D96BEC71E08CEF97E023D98FEF9BE6EA
:101070000197F1F700C0000090988FEF95E301977A
:10108000F1F700C00000AC9A8FEF9BE60197F1F7F3
:1010900000C0000088EB91E02ADF86EB91E0BBCE38
:1010A000811103C0C7981C980895C79A1C9A089587
:1010B000FC0181818F70F4DF36CDB1DBAEDB48E718
:1010C00051E060E080E0FCDB19DBB6DF08D0ADDA90
:1010D0009DDC67E08DE891E0A7DCBF9AFFCF169A10
:1010E000159A179A149A1E981D981F981C9808957F
:1010F000F8942FE030E01E9845E24A95F1F7FC01A4
:1011000044815581022E02C0569547950A94E2F714
:1011100040FD02C01F9801C01F9AF5E2FA95F1F751
:101120001E9A45E24A95F1F72150310927303105E1
:1011300011F71E981D981F98789408950F931F9388
:10114000CF93DF938C01F89481E0AADFC8E1D0E06F
:101150008C2F8F5E813158F41D9825E22A95F1F786
:10116000F801808191819E01205F3F4F28C0C031EE
:10117000D0F41D9885E28A95F1F7F8018281938178
:101180000C2E02C0969587950A94E2F780FD02C066
:101190001F9801C01F9A25E22A95F1F71D9A85E252
:1011A0008A95F1F720C08932E1F01D98E5E2EA95D1
:1011B000F1F7F801848195819E012051310902C027
:1011C000969587952A95E2F780FD02C01F9801C089
:1011D0001F9AF5E2FA95F1F71D9A25E22A95F1F7A3
:1011E00002C0C80185DF2197CF3E8FEFD80709F0F5
:1011F000AFCF1E981D981F9880E052DF7894DF9142
:10120000CF911F910F910895AA1BBB1B51E107C0FD
:10121000AA1FBB1FA617B70710F0A61BB70B881F86
:10122000991F5A95A9F780959095BC01CD01089515
:1012300097FB072E16F4009406D077FD08D0E4DF64
:1012400007FC05D03EF4909581959F4F08957095C9
:1012500061957F4F0895FC014150504030F005905A
:101260000616D1F73197CF01089588279927089559
:10127000FB01DC0104C08D910190801921F44150E3
:101280005040C8F7881B990B0895DC01CB01FC0185
:10129000E199FECF06C0FFBBEEBBE09A31960DB2DE
:1012A0000D9241505040B8F70895DC01A40FB51FCE
:1012B0004150504040F0CB01840F951F2E9105D036
:1012C00041505040D8F70895262FE199FECF9FBB9B
:1012D0008EBBE09A01970DB2021631F02DBB0FB60E
:0E12E000F894E29AE19A0FBE0895F894FFCFB9
:1012EE00294B656D06D90D0008000400020001802F
:1012FE0000400020001000080004000200010080E1
:10130E004020100804020120202053454C20464C5A
:10131E00415348204552524F522020001027E803D7
:10132E0064000A000100000000002C012C012C01B9
:10133E002C014B00000005000A001400280050008C
:10134E00640096002C015802B0046009B80B4E756B
:10135E006C6C004C53503000202020202020C7C041
:10136E00C3D0D3C7CAC0202020202020005245421F
:04137E004F4F540079
:00000001FF
