S01600006C656265645F73656C5F74756E652E7372656354
S113000082C00000AFC00000ADC00000ABC0000063
S1130010A9C00000A7C00000A5C00000A3C0000044
S1130020A1C000009FC000009DC000009BC0000054
S113003099C0000097C0000095C0000093C0000064
S113004091C000008FC000008DC000008BC0000074
S113005089C0000087C0000085C0000083C0000084
S113006081C000007FC000007DC000007BC0000094
S113007079C0000077C000000C949C0E73C000008F
S113008071C000006FC000006DC0000041A042A11B
S1130090E045A3A4A5A64BA74D484FA8504354A997
S11300A0AA58E1ABACE2ADAE62AFB0B161B2B3B4E9
S11300B0E365B6B7B8B9BABBBCBD6FBE7063BF79F0
S11300C0E478E5C0C1E6C2C3C4C5C6C7A910B81068
S11300D05D0F720EF00DBE12630F9E0FF20DF60D42
S11300E02A10960EF910240E07070C0201010713BB
S11300F000000200000080468584868790919281EA
S1130100959697FFE61211241FBECFEFD0E1DEBF14
S1130110CDBF12E0A0E0B1E0E0E1F8E200E00BBF07
S113012002C007900D92A638B107D9F724E0A6E8DB
S1130130B2E001C01D92A431B207E1F711E0C6E0BC
S1130140D1E000E006C022970109FE010BBF0E9426
S1130150A413C430D10780E00807A9F70E94C31292
S11301600C9406144DCFB89AC09A8770806E87B9E4
S113017086EC86B9369B05C087E08A95F1F700C006
S1130180F9CFC09885B108951F93CF93DF93182FAB
S1130190C0E0D1E088EB8A95F1F70000812FE3DF1E
S11301A08C1719F0DC2FC82FF5CFCD13FBCFDF91BF
S11301B0CF911F910895CF93DF93CDB7DEB76897A2
S11301C00FB6F894DEBF0FBECDBF28E1EAE7F1E039
S11301D0DE01119601900D922A95E1F7A89824E08A
S11301E02A95F1F7FE013196AE01475E5F4F2191EA
S11301F03191B901682379236217730711F0A99823
S113020001C0A99AA89A2FE02A95F1F7A898E417B3
S1130210F50769F7A99868960FB6F894DEBF0FBE84
S1130220CDBFDF91CF910895CF93DF93CDB7DEB7E4
S113023028970FB6F894DEBF0FBECDBF98E0E2E971
S1130240F1E0DE01119601900D929A95E1F7A898DC
S113025094E09A95F1F7FE0131969E01275F3F4F96
S11302609191492F4823491711F0A99801C0A99ADF
S1130270A89A9FE09A95F1F7A898E217F30781F7F7
S1130280A99828960FB6F894DEBF0FBECDBFDF91B4
S1130290CF910895CF93DF93CDB7DEB728970FB6EC
S11302A0F894DEBF0FBECDBF88E0E2E9F1E0DE01E5
S11302B0119601900D928A95E1F7FE0131969E0107
S11302C0275F3F4F80E0A8989BE09A95F1F70000E4
S11302D093B3419192FB992790F9499F800D112482
S11302E0A89A97E09A95F1F700C0E217F30759F737
S11302F0A89828960FB6F894DEBF0FBECDBFDF9145
S1130300CF910895EF92FF921F93CF93DF9300D084
S1130310CDB7DEB7AE98AF98AD9869837A834BDFDB
S113032084E08A95F1F76981E62E7A81F72E14E04C
S1130330F70181917F0178DF1150D1F7AD9A0F90C9
S11303400F90DF91CF911F91FF90EF900895EF925E
S1130350FF921F93CF93DF9300D0CDB7DEB7AE9853
S1130360AF98AD9869837A8326DF84E08A95F1F7A4
S11303706981E62E7A81F72E14E08CDFF7018193F0
S11303807F011150D1F7AD9A0F900F90DF91CF916B
S11303901F91FF90EF90089515BA8FEF84BBA29838
S11303A0A898AD9AA998809364001092650081E0A2
S11303B081BB12BAAC98909A2FEF8FED90E1215047
S11303C080409040E1F700C000008FEF809364000C
S11303D0109265008FEF95E30197F1F700C00000DC
S11303E081E080936500109264009FEF2FED80E11F
S11303F0915020408040E1F700C0000080916300EC
S113040081FD08C09FEF2FEA81E091502040804099
S1130410E1F7F2CF9FEF2FEA81E091502040804036
S1130420E1F700C0000008950F931F93CF93DF936B
S1130430EC01A5EDB1E0EFEFFFEF20E030E06AE082
S11304404D915D91649FC001659F900D11248C179F
S11304509D0728F42530310509F459C0F9012F5FAF
S11304603F4F2630310561F7EF3F8FEFF80709F46E
S113047051C08F01000F111FD801AB52BE4F8D9197
S11304809C914AE0489F9001499F300D11242C17FC
S11304903D0758F4D801A753BE4F6D917C91CE010E
S11304A0821B930B0E947D1302C060E070E0D801B0
S11304B0A753BE4F4D915C91649FC001659F900D01
S11304C0749F900D1124C81BD90BC21BD30BADEB29
S11304D0B1E080E090E020E030E02E173F0739F0F3
S11304E00D911D91800F911F2F5F3F4FF6CF5695B1
S11304F04795C417D50710F06F5F7F4F680F791FBA
S113050026E0269FC001279F900D112405C08BEF84
S113051094E002C080E090E0DF91CF911F910F91B1
S11305200895DC01EFEAF1E080E090E06D91419103
S113053051916F70649F9001659F300D1124820F5B
S1130540931F21E0ED3BF20789F76ECFD7D14AE93B
S113055051E060E080E025D22FEF8FED90E1215053
S113056080409040E1F700C000000895EF92FF92B0
S11305700F931F93CF93DF93F42EE62E8C01EB01A0
S11305808C2F8E198F15F8F492D080EAD5D0813053
S113059009F4DCDF812FD0D0813009F4D7DF802F3C
S11305A0CBD0813009F4D2DF8991C6D0813009F4EF
S11305B0CDDF8FD08FEF95E30197F1F700C00000F6
S11305C00F5F1F4FDDCFDF91CF911F910F91FF90F0
S11305D0EF90089546E0CACF41E09A95C7CFDF92E5
S11305E0EF92FF920F931F93CF93DF93EC01F62EBC
S11305F0072FD42E5CD080EA9FD011E0813009F01F
S113060010E0898199D0813009F41F5F888194D0EA
S1130610813009F41F5F4BD081EA8ED0813009F01C
S1130620111194DFCF2DD02F00E010E0ED2CF12C30
S113063081E0E81AF1080D1550F481E00E151F054C
S113064009F080E081D089930F5F1F4FF4CFDF91D1
S1130650CF911F910F91FF90EF90DF903AC0CF930D
S1130660DF9300D0CDB7DEB79A83898346E0CE010D
S11306700196B5DF0F900F90DF91CF910895CF933E
S1130680DF9300D0CDB7DEB79A959A83898341E092
S1130690CE010196A4DF0F900F90DF91CF910895C2
S11306A0C698C598BE9ABD9ABE98BD98089587B35A
S11306B08F7987BB8BE08A95F1F70000BE9A8BE0B7
S11306C08A95F1F70000BD9A8BE08A95F1F7000056
S11306D0089587B3806687BB8BE08A95F1F70000A5
S11306E0BD988BE08A95F1F70000BE988BE08A955F
S11306F0F1F70000089587FF02C0BE9801C0BE9ABA
S11307002BE02A95F1F70000BD9890E0B59908C058
S11307109F3F31F02BE02A95F1F700009F5FF6CF61
S11307209BE09A95F1F7000096B3BD9A880F96FB6B
S1130730992790F9892B0895CF93C8E0DCDFC15045
S1130740E9F780E8CF91D7CF1F93CF93DF93182F8A
S1130750D8E0CFEF8C2FCFDFC82FD150D9F7812F1E
S1130760879588278795C7DF8C2FDF91CF911F91BD
S11307700895E1E6F0E08081826080838081816079
S11307808083808180628083E2E6F0E0108210B88A
S11307908081806280838081826080830895CF938A
S11307A0FC0180B18C71883029F0803159F084309B
S11307B069F404C001991AC0C3E01DC0019B18C0AC
S11307C0C2E019C0019B16C0C6E015C0019B05C05C
S11307D0809162008C7F816004C0809162008C7F74
S11307E0826080936200109286020DC0C4E003C050
S11307F0C1E001C0C5E080918602C81721F08C2FAA
S11308000995C0938602CF910895DA988FE08ABB48
S1130810D99AD89882E18A95F1F700C0DA9A9BE0D8
S11308209A95F1F7000089B39BE09A95F1F70000DF
S1130830DA9892E19A95F1F700C0DA9A9BE09A95DA
S1130840F1F70000DA989FEF9ABB0895CF93C82F71
S1130850DCDF87FDFDCFDA989BB39F709BBB9BB316
S11308609C2B9BBBD998D89882E18A95F1F700C05C
S1130870DA9A8BE08A95F1F70000DA9882E18A959A
S1130880F1F700C08BB38F708BBBCF910895CF93DA
S1130890C82F807FDBDF8C2F8295807FCF91D6CFCE
S11308A0CF93C82FB2DF87FDFDCFDA989BB39F703B
S11308B09BBB9BB39C2B9BBBD998D89A82E18A950E
S11308C0F1F700C0DA9A8BE08A95F1F70000DA9824
S11308D082E18A95F1F700C08BB38F708BBBCF9107
S11308E00895CF93C82F807FDBDF8C2F8295807F84
S11308F0D7DF8BB3806F8BBBCF91089581E0C7CFD7
S11309008FEF8ABB83E0EFEFF1EA3197F1F700C094
S11309100000DA989BB39F709BBB9BB390639BBB17
S1130920D998D898F2E1FA95F1F700C0DA9A9BE0E9
S11309309A95F1F70000DA98E2E1EA95F1F700C040
S11309409BB39F709BBB8150F1F680E27FDF8CEC00
S11309509AE00197F1F700C000008FE298DFCEDF44
S113096086E095DF8EE093CF803C28F0E82FF0E01E
S1130970E453F0408491B5CF982F862F923059F0EC
S113098018F4913031F00895933039F0943039F0FF
S11309900895815805C0815403C08D5601C08D52FD
S11309A076CF0F931F93CF93DF9300D0CDB7DEB7ED
S11309B049835A83E1DF4981042F5A81152FF801B5
S11309C081918F01882311F0CFDFF9CF0F900F9021
S11309D0DF91CF911F910F9108958FE058CFCF925F
S11309E0DF92FF920F931F93CF93DF931F92CDB7A4
S11309F0DEB7182F80E899834ADFF12EC12E998142
S1130A00D92E8601F6018081882369F08C2D8F19F7
S1130A10843111F480EC3BDF8FEFC81AD80AF80157
S1130A208081A2DFEECF0F90DF91CF911F910F91C4
S1130A30FF90DF90CF90089508958330E1F028F47B
S1130A40813049F0823079F00895853021F1D8F071
S1130A50863049F108958091120490911304FC01A9
S1130A60E25BFF4F27C08091120490911304FC01B4
S1130A70E45BFF4F1FC08091120490911304FC01AA
S1130A80EC5AFF4F17C08091120490911304FC019B
S1130A90EA5AFF4F0FC08091120490911304FC0195
S1130AA0E05BFF4F07C08091120490911304FC0196
S1130AB0EE5AFF4F0190F081E02D09943F924F923E
S1130AC05F926F927F928F929F92AF92BF92CF92DA
S1130AD0DF92EF92FF920F931F93CF93DF93CDB7E3
S1130AE0DEB7FC01FC8C5D8C6E8C3F8C78A049A039
S1130AF0708F678B528F418F31832083F0AADC0182
S1130B00AA5BBF4F3C92139681E08C9311971C9281
S1130B10E68AB801CF0140E002964E1549F0DB01A8
S1130B202D913D91BD01DC012D933C934F5FF4CF9A
S1130B30FF2029F0652D762D80E090E004C081E04F
S1130B40838F81AB1EC08F1558F4DB014D91BD011D
S1130B509F01280F391FD9015B964C930196F3CF5F
S1130B60672D742D80E090E0831558F4DB014D91DE
S1130B70BD019F01280F391FD901D1964C930196CD
S1130B80F3CFDF01A45BBF4FC114D10429F48CE17E
S1130B9095E08D939C9302C0CD92DC92DF01A85A1C
S1130BA0BF4F8114910429F48CE195E08D939C93BB
S1130BB002C08D929C92DF01A25BBF4FA114B104CD
S1130BC029F48CE195E08D939C9302C0AD92BC9284
S1130BD0DF01A05BBF4F8C899D89892B19F48CE1BF
S1130BE095E002C08C899D898D939C93DF01AE5A58
S1130BF0BF4F8E899F89892B19F48CE195E002C03F
S1130C008E899F898D939C93DF01AC5ABF4F888D49
S1130C10998D892B19F48CE195E002C0888D998D0A
S1130C208D939C93DF01AA5ABF4F8A8D9B8D892B8C
S1130C3019F48CE195E002C08A8D9B8D8D939C9371
S1130C40DF01A65BBF4FFC92E55BFF4F3082DF9173
S1130C50CF911F910F91FF90EF90DF90CF90BF90B5
S1130C60AF909F908F907F906F905F904F903F9048
S1130C7008952F923F924F925F926F927F928F923C
S1130C809F92AF92BF92CF92DF92EF92FF920F9317
S1130C901F93CF93DF93CDB7DEB7C450D1400FB6C7
S1130CA0F894DEBF0FBECDBF86E1582EAE014F5F74
S1130CB05F4FDA01E52D1D92EA95E9F79E01295E61
S1130CC03F4FD901E52D1D92EA95E9F7FE01EF5456
S1130CD0FF4FDF0185E11D928A95E9F7A3E0B3E0B8
S1130CE0B183A083FF24F394F48A85E1DE01A55245
S1130CF0BF4F01900D928A95E1F763E06F8B84E01A
S1130D00888F85E0898F86E08A8F87E08B8F99E0D2
S1130D10792E7C8E7AE0272E2D8EE0E14E2E4E8E9B
S1130D20F8E06F2E6CA6CE01875A9F4F76E1F90149
S1130D30DC0101900D927A95E1F7F9827A82ACE0B8
S1130D403A2E3B826E8B285A3F4F76E1FA01D90145
S1130D5001900D927A95E1F73F932F936F939F93B0
S1130D608F936F928EE692E19F938F938EE192E13F
S1130D709F938F93A1E4B8E0BF93AF93A1E6B8E04B
S1130D80BF93AF93B0E18B2EBAE09B2E12E7A12E56
S1130D9018E0B12E08E7C02E01E1D02EEE24E39432
S1130DA08E0105521F4F2DE533E046EE51E06BEF07
S1130DB071E0C90183DEAE01435D5F4FDA01E52DC9
S1130DC01D92EA95E9F7CE018D5B9F4FDC011D92E0
S1130DD05A94E9F7FE01EA53FF4FDF0125E11D9222
S1130DE02A95E9F7A3E0B3E0B183A083F48A25E16F
S1130DF0DE01A051BF4F01900D922A95E1F7FC014D
S1130E00F0827182228233820DE004831FE0158315
S1130E10468272E1778363E16087758A9E012B576E
S1130E203F4FA6E15A2ED90101900D925A94E1F751
S1130E307DA62EA63FA608AB19AB4AAA7BAB6CAB2A
S1130E4023966FAE2397885A9F4F66E1FA01DC011F
S1130E5001900D926A95E1F79F938F936F923F9360
S1130E602F937F9285E599E09F938F9380E199E09A
S1130E709F938F93A1E4B8E0BF93AF93A1E6B8E04A
S1130E80BF93AF93B4ED8B2EBAE09B2E10EEA12E40
S1130E9018E0B12E07EAC02E09E0D02E8E010051D1
S1130EA01F4F2DE533E040E152E065E272E083E05C
S1130EB093E004DE8AE392E09093C0028093BF0241
S1130EC08FE492E09093C2028093C1028DE593E097
S1130ED09093A9028093A8021092D8021092EE0275
S1130EE0F092F1021092F002F092BE029093AB02E3
S1130EF08093AA02F092C302F092D9028CE195E0A9
S1130F009093F5028093F4020FB6F894DEBF0FBEFF
S1130F10CDBF20E83CE030930103209300032BE98C
S1130F2039E03093F7022093F6029093F90280930C
S1130F30F8029093FB028093FA029093FD0280934F
S1130F40FC029093FF028093FE021092F202109230
S1130F50F302CC5FDE4F0FB6F894DEBF0FBECDBFF9
S1130F60DF91CF911F910F91FF90EF90DF90CF9081
S1130F70BF90AF909F908F907F906F905F904F90B5
S1130F803F902F900895FC01DC01A85BBF4F8C912A
S1130F909689891720F4E80FF11DE80FF11D82816D
S1130FA093810895FC01E75BFF4F2081213039F4E0
S1130FB031973081FC01E30FF11D338D0AC02230DB
S1130FC041F4FC01E85BFF4F3081FC01E30FF11DAC
S1130FD031A9C9010895FC01E85BFF4F4081242F2A
S1130FE030E0DC01A75BBF4F5C91850F911DDC01F4
S1130FF0A75BBF4F8C9190E001972817390711F434
S1131000108208954F5F40830895FC01E85BFF4F11
S1131010208121110DC0DC01A75BBF4F2C91820FF1
S1131020911DDC01A75BBF4F8C9181508083089593
S1131030215020830895FC01E75BFF4F208121307C
S113104051F4DC01A55BBF4F2C91222391F022E0E7
S1131050208331970DC0223061F4DC01A65BBF4FC1
S11310602C91222331F021E02083FC01E85BFF4F27
S113107010820895FC01E85AFF4F0190F081E02DA1
S11310800994CF93DF93EC01FC01E85BFF4F2081CF
S113109030E031968081813011F488A904C0FE01CA
S11310A0EA5BFF4F808190E001972817390719F414
S11310B0CE01C1DF02C0CE018EDFCE01DF91CF9120
S11310C0D9CFCF93DF93EC01FC01E85BFF4F808124
S11310D0811102C0CE01AFDFCE0197DFCE01DF91D7
S11310E0CF91C8CFCF93DF93CDB7DEB72D970FB68F
S11310F0F894DEBF0FBECDBFFC01E85BFF4F10824A
S1131100319621E02083FC01808191819093130426
S113111080931204BE016F5F7F4F87EF9FE017D962
S1131120BE016B5F7F4F86EF9FE011D9BE01675F01
S11311307F4F85EF9FE00BD98D81982F92959F70FB
S11311409093BB038F708093BC038E81982F9295EC
S11311509F709093BD038F708093BE038F81982FEF
S113116092959F709093BF038F708093C00388857E
S113117082958F708093C10387E00E94B3008093AF
S1131180B80386E00E94B3008093B70388EA92E034
S113119071DFFFEF2FE982E3F15020408040E1F757
S11311A000C00000809112049091130463DF2D9617
S11311B00FB6F894DEBF0FBECDBFDF91CF91089577
S11311C0FC01E75BFF4F2081DC01A85BBF4F2130AE
S11311D019F42C912223E1F01C9281E0808362ECCB
S11311E073E08FEF9FE0B3D866EC73E08EEF9FE07F
S11311F0AED86AEC73E08DEF9FE0A9D86EEC73E093
S11312008CEF9FE0A4D8809112049091130432CF04
S1131210FC01808191819093130480931204DFCFA9
S1131220FC01E85BFF4F408131962091020341119C
S113123003C03081313089F1E0813E2F3170431B8E
S1131240E695342F369540FD13C0F0E0E20FF11D12
S1131250E20FF11DEE0FFF1FEE0FFF1FE754FC4FCF
S1131260E30FF11D3185232F207F205F3F7012C0D3
S1131270F0E0E20FF11DE20FF11DEE0FFF1FEE0F84
S1131280FF1FE754FC4FE30FF11D318521E0230FCD
S11312902F70307F232B2187EDCE211103C0309393
S11312A00203FACF10920203F7CFFC01E85BFF4F71
S11312B04081319620910203411103C030813130C5
S11312C089F1E0813E2F3170431BE695342F36952A
S11312D040FD13C0F0E0E20FF11DE20FF11DEE0F2F
S11312E0FF1FEE0FFF1FE754FC4FE30FF11D318585
S11312F0232F207F20513F7012C0F0E0E20FF11D38
S1131300E20FF11DEE0FFF1FEE0FFF1FE754FC4F1E
S1131310E30FF11D31852FEF230F2F70307F232B27
S11313202187A8CE222321F0215020930203F9CF54
S113133030930203F6CFFC018081918190931304D2
S11313408093120497CE49E550E00C94E61360E0D4
S113135070E089EB93E0F7DF62EC73E08FEF97E0E6
S11313600E94820166EC73E08EEF97E00E94820196
S11313706AEC73E08DEF97E00E9482016EEC73E0FB
S11313808CEF97E00C94820149E550E00C94D6135D
S11313900F931F93CF93DF938B01EA0129E2FA01A4
S11313A011922A95E9F7FC0101900020E9F7AF01B9
S11313B041505109481B590BBC01CE010E94C21374
S11313C0F80101900020E9F7AF0141505109401B99
S11313D0510BB801CE014496DF91CF911F910F912B
S11313E00C94C213CF93DF9300D0CDB7DEB78983BB
S11313F09A8384DA89819A81F2DA80911204909135
S11314001304D0DD692F8091120490911304698331
S1131410C9DD6981B1DA0F900F90DF91CF91DDCAF8
S1131420CF93DF93EC016F89788DFB01019000204D
S1131430E9F7AF0141505109461B570B453151059E
S113144010F044E150E08CE391E00E94C213698DF6
S11314507A8DFB0101900020E9F7AF014150510959
S1131460461B570B4531510510F044E150E087E22B
S113147091E00E94C2138091B903811107C0809149
S1131480060190910701A091080106C080910A010C
S113149090910B01A0910C01809327019093280156
S11314A0A093290168E570E087E291E00E94CB13E4
S11314B02091BA0330E0F901EE0FFF1FE20FF31F92
S11314C0E050FF4F20813181FC013183208320E0F3
S11314D030E0CCE3D1E0FE0101900020E9F7319740
S11314E0EC53F140822F90E08E179F0798F4DC01B3
S11314F0A45CBE4F8C91883559F4E32FF0E0E75497
S1131500FC4FE281F0E0EB5EFE4F80818C933F5F05
S11315102F5FE1CF68E570E087E291E00E94CB1392
S1131520C091B803AC2FA295AF70B0E0AB5EBE4FD4
S11315302C91FC01208368E570E087E291E00E9431
S1131540CB13CF70EC2FF0E0EB5EFE4F2081FC015B
S1131550208368E570E087E291E00E94CB13C0919C
S1131560B703AC2FA295AF70B0E0AB5EBE4F2C9129
S1131570FC01208368E570E087E291E00E94CB13D0
S1131580CF70EC2FF0E0EB5EFE4F2081FC01208356
S113159041E551E067E271E08CE391E0F9DE81E539
S11315A091E0DF91CF911ECFEF92FF920F931F93A3
S11315B0CF93DF93EC016F89788DFB0101900020BC
S11315C0E9F7AF0141505109461B570B453151050D
S11315D010F044E150E08CE391E00E94C213698D65
S11315E07A8DFB0101900020E9F7AF0141505109C8
S11315F0461B570B4531510510F044E150E087E29A
S113160091E00E94C21368E570E08CE391E00E94CF
S1131610CB13C0910203D0E0FE01EB5EFE4F2081AC
S1131620FC01208368E570E08CE391E00E94CB1319
S11316307E01EE0CFF1C87010B5E1E4FF80120811A
S1131640FC01208368E570E087E291E00E94CB13FF
S1131650F8012181FC01208300E010E04CE351E01B
S1131660CE01F3E0880F991FFA95E1F79701220F55
S1131670331F220F331F87549C4F23543C4FB0E237
S1131680FB2EFA0101900020E9F73197EC53F14069
S1131690A02FB0E0AE17BF07C8F5FD01E45CFE4F14
S11316A06081A95DBE4F683539F5612F669570E09C
S11316B0EC01C60FD71FC98510FD0DC0C295CF70B0
S11316C0D0E0CB5EDE4FC881C083E901C60FD71FCF
S11316D0C985C2950AC0CF70D0E0CB5EDE4FC88109
S11316E0C083E901C60FD71FC985CF70D0E0CB5E98
S11316F0DE4F68816C931F5F6081603409F4F0826F
S11317006C91603409F4FC920F5FBBCF41E551E06A
S113171067E271E08CE391E03BDE81E591E0DF91EB
S1131720CF911F910F91FF90EF905CCECF93DF93F9
S113173020E030E0E0E0F0E0AFE0B0E0AD01421BDB
S1131740530BEC0102C0D695C7954A95E2F7AE015A
S113175041705527022E02C0440F551F0A94E2F728
S1131760E40FF51F2F5F3F4F2031310539F7DB01BF
S1131770ED93FC93DF91CF910895CF92DF92EF9296
S1131780FF920F931F93CF93DF9300D000D01F924B
S1131790CDB7DEB79A838983162F5C834B83BE0152
S11317A06F5F7F4F2D83C2DF89819A8124E09695F4
S11317B087952A95E1F79A838983BE016D5F7F4FF0
S11317C08B819C81B3DF4B815C81812F90E0982FCA
S11317D088279295990F907EE981FA81FF708E0F88
S11317E09F1FF701918380831877612F70E0A3E036
S11317F076956795AA95E1F7407F640F751F73830B
S1131800628340E2402750E04095509580E0942F59
S11318102D81820F911D820F911D45FBCC24C0F8B0
S1131820D12C8C0D9D1D958384830F900F900F9068
S11318300F900F90DF91CF911F910F91FF90EF9038
S1131840DF90CF900895CF92DF92EF92FF920F93A3
S11318501F93CF93DF93EC016A01F701808191819B
S11318609F709983888342814F7080819181892FF1
S1131870992782958695877058E0459F800D11249D
S1131880DB018C938281938144E0969587954A95F8
S1131890E1F7D6018D939C9384818695D9018C932D
S11318A08481958188279F73892F80958F7390E217
S11318B08927F8018083BE018881998137DF888177
S11318C0998154E0969587955A95E1F79983888391
S11318D0B601D6018D919C9129DFF6018081918119
S11318E064E0969587956A95E1F791838083DF910B
S11318F0CF911F910F91FF90EF90DF90CF900895BB
S1131900EF92FF920F931F93CF93DF93EC014091DB
S113191011015091120102EDE02E03E0F02E00912E
S11319200E0120910F01609110018091130190919B
S1131930140123DF0EE011E02FE031E041E151E03A
S113194060E171E083E191E07EDF6F89788DFB01D6
S113195001900020E9F7AF0141505109461B570B94
S11319604531510510F044E150E08CE391E00AD791
S1131970698D7A8DFB0101900020E9F7AF01415098
S11319805109461B570B4531510510F044E150E015
S113199087E291E0F7D668E570E08CE391E0FBD64E
S11319A0C0910E01AC2FA295AF70B0E0AB5EBE4FFC
S11319B02C91FC01208368E570E08CE391E0EBD688
S11319C0CF70EC2FF0E0EB5EFE4F2081FC01208312
S11319D068E570E08CE391E0DED6C0911001AC2F95
S11319E0A295AF70B0E0AB5EBE4F2C91FC0120839A
S11319F068E570E08CE391E0CED6CF70EC2FF0E098
S1131A00EB5EFE4F2081FC01208368E570E08CE3EF
S1131A1091E0C1D6C0911301D0911401FE01EE27CB
S1131A20FF70EF2FFF27EB5EFE4F2081FC01208328
S1131A3068E570E08CE391E0AED6FE01E07FFF271D
S1131A40A4E0F695E795AA95E1F7EB5EFE4F2081B9
S1131A50FC01208368E570E08CE391E09CD6CF70B4
S1131A60DD27CB5EDE4F2881FC01208368E570E032
S1131A7087E291E090D6C091D803AC2FA295AF70C5
S1131A80B0E0AB5EBE4F2C91FC01208368E570E0B2
S1131A9087E291E080D6CF70EC2FF0E0EB5EFE4F52
S1131AA02081FC01208368E570E087E291E073D631
S1131AB0C0910F01AC2FA295AF70B0E0AB5EBE4FEA
S1131AC02C91FC01208368E570E087E291E063D605
S1131AD0CF70EC2FF0E0EB5EFE4F2081FC01208301
S1131AE068E570E087E291E056D6C0911101D0918B
S1131AF01201FE01EE27FF70EF2FFF27EB5EFE4F72
S1131B002081FC01208368E570E087E291E043D600
S1131B10FE01E07FFF2714E0F695E7951A95E1F7BB
S1131B20EB5EFE4F2081FC01208368E570E087E2D4
S1131B3091E031D6CF70DD27CB5EDE4F2881FC01EA
S1131B40208320E0ACE3B1E030E2FD01019000200D
S1131B50E9F73197EC53F140822F90E08E179F07FD
S1131B6080F4FC01E45CFE4F4081403409F430838E
S1131B70FC01E95DFE4F8081803409F430832F5FDE
S1131B80E4CF41E551E067E271E08CE391E000DCF1
S1131B9081E591E0DF91CF911F910F91FF90EF903C
S1131BA021CC10929B0088E980939A0086E280936E
S1131BB09D001092980085E0809399000895F89410
S1131BC0282FFC018E2F821B861740F480919B00E6
S1131BD085FFFCCF819180939C00F4CF7894089585
S1131BE061E0EDCF0C94007861E0E9CFCF93DF930F
S1131BF000D000D000D0CDB7DEB787E00E94B3009C
S1131C0091E89983982F92959F70905D9A838F7035
S1131C10805D8B8386E00E94B300982F92959F701D
S1131C20905D9C838F70805D8D8383E08E8366E0FE
S1131C30CE010196C4DF26960FB6F894DEBF0FBE20
S1131C40CDBFDF91CF910895CF93DF931F92CDB78E
S1131C50DEB78FEF898361E0CE010196B0DF64E0E7
S1131C6084E692E0ACDF83E0898361E0CE010196F3
S1131C70A6DF0F90DF91CF9108958E30910560F427
S1131C80FC01E851FF4FE491F0E070E0625071090B
S1131C9081E0E617F70709F080E00895CF93DF931A
S1131CA000D0CDB7DEB786E1898383E08A8362E022
S1131CB0CE01019684DF0F900F90DF91CF910895AC
S1131CC0CF93DF9300D0CDB7DEB786E0898383E07E
S1131CD08A8362E0CE01019672DF0F900F90DF914C
S1131CE0CF910895EF92FF920F93FC01218102811D
S1131CF00F70F0E12F9F000D112400930E0140910D
S1131D0011015091120182EDE82E83E0F82E20910A
S1131D100F016091100180911301909114012DDD48
S1131D20C7015FD40F91FF90EF90CACF60E070E0DD
S1131D3089EB93E008DBC4CF1F920F920FB60F928A
S1131D4011240BB60F921F932F933F934F935F93DE
S1131D506F937F938F939F93AF93BF93CF93DF93AF
S1131D60EF93FF93F894C0919C006C2F70E04EE0C9
S1131D7050E086EF90E0ECD4892B11F010928702AA
S1131D8080918702803211F41092870210918702A9
S1131D90E12FF0E0E857FD4FC0831F5F10938702E7
S1131DA0C33011F580918802682F70E04EE050E056
S1131DB086EF90E0CDD40097B9F0EC01C65FD04037
S1131DC0612FCE015ADF882361F0FE01EE0FFF1F61
S1131DD0E453FF4F2591349188E892E0F901099585
S1131DE001C05CDF109287027894FF91EF91DF913C
S1131DF0CF91BF91AF919F918F917F916F915F919F
S1131E004F913F912F911F910F900BBE0F900FBEDA
S1131E100F901F901895EF92FF920F93FC01808111
S1131E208F7090E0982F8827218140E1249F9001B2
S1131E3011243327820F931F22812F70820F911D4B
S1131E409093140180931301238164816F7070E176
S1131E50279F600D11246093100145814F7050E05D
S1131E60542F4427268170E1279F900111243327A2
S1131E70420F531F27812F70420F511D509312019F
S1131E8040931101308521852F7070E1379F200D1B
S1131E90112420930F01328503850F7070E1379F61
S1131EA0000D112400930E0172EDE72E73E0F72E5E
S1131EB064DC0F91FF90EF9008950196ACDF82ED02
S1131EC093E0B5D3FDCE0F931F93CF93DF93CDB79C
S1131ED0DEB728970FB6F894DEBF0FBECDBFDC0186
S1131EE01196EBEBF3E08D918F70819383E0E23CEC
S1131EF0F807C9F78BEB93E00E94910298878F83D0
S1131F008E010F5F1F4F86E0F80111928A95E9F761
S1131F1046E0B801CE0107960E94EF02C8017BDFBC
S1131F2066E0C8014CDE28960FB6F894DEBF0FBEFB
S1131F30CDBFDF91CF911F910F9108950F931F9300
S1131F40CF93DF93CDB7DEB728970FB6F894DEBFF3
S1131F500FBECDBF8C0101960E94910298878F839A
S1131F60C801089658DF62ED73E08F8198850E945E
S1131F70EA028E010F5F1F4F86E0F80111928A95E5
S1131F80E9F746E0B801CE0107960E94EF0246E069
S1131F9050E062ED73E0C801E8D3892B11F490DEC0
S1131FA001C07CDE28960FB6F894DEBF0FBECDBF0D
S1131FB0DF91CF911F910F9108950F931F93CF93AA
S1131FC0DF93EC018C01035F1F4FB8018EEF9FE09C
S1131FD00E94A70199818889887F911102C08C5F32
S1131FE001C08A5F888BB8018EEF97E0DF91CF91B3
S1131FF01F910F910C948201CF93C82F6AEC73E068
S11320008DEF9FE00E94A701EDECF3E08C2F8F771A
S113201090819078892B80836AEC73E08DEF97E050
S1132020CF910C9482012091BB038091BC033AE0D0
S1132030839FC001112434E6239F800D911D112438
S11320402091BD03820F911D0F9765E070E069D365
S1132050CB010895CF93FC012181C281CF70F0E1BF
S11320602F9FC00D11248C2FC7DFDDDFFC01E75447
S1132070FC4FC0A3CF9124CED6DFEDECF3E0875420
S11320809C4F20812078DC0190968C91822B808358
S11320906AEC73E08DEF97E00C948201CF93DF93A9
S11320A0CDB7DEB761970FB6F894DEBF0FBECDBFD4
S11320B0FC01BE016F5F7F4F8DE0DB011D928A95AD
S11320C0E9F790818181B0E19B9F800D11248D837C
S11320D09281838120E1929F800D11248E839481CB
S11320E08581A0E19A9F800D11248F83868182953A
S11320F0807F888787EF97E00E948201BE016B5F33
S11321007F4F86EF97E00E948201BE01675F7F4F99
S113211085EF97E00E94820184E08E871F86188AEB
S1132120198ABE01625F7F4F84EF97E00E948201AB
S113213084E191E00197F1F70000819BFECF9CDFE1
S113214061960FB6F894DEBF0FBECDBFDF91CF917D
S11321500895DC011196EBEBF3E08D918F70819380
S113216083E0E23CF807C9F78BEB93E097DFA8CD57
S1132170DC011196EBEBF3E08D918F70819383E09A
S1132180E23CF807C9F78BEB93E088DF8BEB93E035
S11321900E94910262ED73E00E942F0382ED93E0AE
S11321A046D28ECDFC0140818181282F30E0FAE0B7
S11321B04F9F200D311D11242E31310549F021305E
S11321C0310541F082509AE0499F800D1124089511
S11321D08DE1089580E0089586E00E94B300809325
S11321E0B7038BEB93E0DEDF67EB73E090E00C94D6
S11321F0EC02F2DF65CDCF93DF931F92CDB7DEB74C
S11322008BEB93E0CFDFBE016F5F7F4F90E00E94C6
S11322103F0389810F90DF91CF91089560E070E0D2
S113222089EB93E0B1D80E94CC0162EC73E08FEFAC
S113223097E00E94820166EC73E08EEF97E00E94C3
S113224082016AEC73E08DEF97E00E9482016EECEC
S113225073E08CEF97E00E9482018FEF9BE6019779
S1132260F1F700C0000090988FEF95E30197F1F724
S113227000C00000AC9A8FEF9BE60197F1F700C015
S113228000008BEB93E00ADF89EB93E096CE81119B
S113229003C0C7981C980895C79A1C9A0895EF9292
S11322A0FF920F931F938BEB93E00E9491028BEBB1
S11322B093E00E94910262ED73E00E942F03E2ED2D
S11322C0EE2EE3E0FE2E0EE011E02FE031E041E1DE
S11322D051E060E171E083E191E0B5DA81E0D7DFBC
S11322E0C701A5D180E01F910F91FF90EF90CFCF50
S11322F0EF92FF920F931F93CF93DF93EC018C0126
S1132300075B1F4FF80180818130F9F47E01F8E406
S1132310EF0EF11CF7018081873090F460E070E0EB
S113232089EB93E010D88BEB93E0B8DEB8DF63DF82
S11323308093D80388EA92E0909313048093120464
S1132340F7018081873009F41FD0F8018081823041
S113235079F4FE01E85BFF4F8081823049F4CE01BD
S11323600E94C30790931304809312040E943A08B6
S11323708091120490911304DF91CF911F910F91DA
S1132380FF90EF900C943A08EF92FF920F93CF9343
S1132390DF9385DF30DFC82F86E00E94C40080937E
S11323A0B703D0E02091B70330E02C1B3D0BA9010B
S11323B037FF04C044275527421B530B43305105B4
S11323C0BCF180910E011216130614F48F5F01C044
S11323D0815080930E0100910E01002349F10F33C7
S11323E039F14091110150911201F2EDEF2EF3E019
S11323F0FF2E20910F0160911001809113019091A3
S11324001401BBD9C701EDD080910E0185FD05C033
S113241086E695E00197F1F704C084E191E0019725
S1132420F1F7000086E00E94C4008093B703BACF9E
S1132430DF91CF910F91FF90EF9008950F931F9329
S1132440CF93DF93EC018C01075B1F4FF801808170
S1132450823021F431978081882369F1F8018081E9
S1132460823031F4FE01E85BFF4F9081913059F1E5
S1132470F80180818130C1F40F89188DCE010E944A
S1132480D207F801E90FF11D31978081883561F495
S1132490FE01E85BFF4FE081F0E0E754FC4F8281EE
S11324A08930D0F48F5F8283CE01DF91CF911F9169
S11324B00F910C943A088091B90391E08927809395
S11324C0B903E5DECBCF8091BA0389278093BA03A1
S11324D089EB93E072DDCCCF1282E6CF0F931F938A
S11324E0CF93DF93EC018C01075B1F4FF8018081D0
S11324F0823021F431978081882369F1F801808149
S1132500823031F4FE01E85BFF4F9081913059F144
S1132510F80180818130C1F40F89188DCE010E94A9
S1132520D207F801E90FF11D31978081883561F4F4
S1132530FE01E85BFF4FE081F0E0E754FC4F82814D
S11325408823D1F081508283CE01DF91CF911F91F6
S11325500F910C943A088091B90391E089278093F4
S1132560B90395DECBCF8091BA0389278093BA0350
S113257089EB93E022DDCCCF89E0E5CFFC018181BA
S11325808F7085DE9DCB0E94B90348DE21D00E9466
S1132590500307DB0E9480040E947E0449E652E057
S11325A060E080E00E94D1048DE593E090931304F1
S11325B0809312040E943A0867E08EE792E0FFDA03
S11325C0BF9A8DE195E00E94CF03FBCF0C943906AE
S11325D0169A159A179A149A1E981D981F981C9863
S11325E00895F8942FE030E01E9845E24A95F1F7FB
S11325F0FC0144815581022E02C0569547950A94E8
S1132600E2F740FD02C01F9801C01F9AF5E2FA9557
S1132610F1F71E9A45E24A95F1F721503109273026
S1132620310511F71E981D981F98789408950F93FB
S11326301F93CF93DF938C01F89481E028DEC8E1E7
S1132640D0E08C2F8F5E813158F41D9825E22A95B5
S1132650F1F7F801808191819E01205F3F4F28C0EE
S1132660C031D0F41D9885E28A95F1F7F801828192
S113267093810C2E02C0969587950A94E2F780FD0B
S113268002C01F9801C01F9A25E22A95F1F71D9AEE
S113269085E28A95F1F720C08932E1F01D98E5E2E0
S11326A0EA95F1F7F801848195819E012051310961
S11326B002C0969587952A95E2F780FD02C01F987F
S11326C001C01F9AF5E2FA95F1F71D9A25E22A95C1
S11326D0F1F702C0C80185DF2197CF3E8FEFD807FD
S11326E009F0AFCF1E981D981F9880E0D0DD789434
S11326F0DF91CF911F910F910895AA1BBB1B51E14C
S113270007C0AA1FBB1FA617B70710F0A61BB70B5D
S1132710881F991F5A95A9F780959095BC01CD0102
S1132720089597FB072E16F4009406D077FD08D081
S1132730E4DF07FC05D03EF4909581959F4F089502
S1132740709561957F4F08950790F691E02D099457
S1132750FC014150504030F005900616D1F73197F6
S1132760CF010895882799270895FB01DC0104C04F
S11327708D910190801921F441505040C8F7881B75
S1132780990B0895FB01DC0102C001900D924150A8
S11327905040D8F70895FC018191861721F08823D1
S11327A0D9F7992708953197CF010895DC01CB011A
S11327B0FC01E199FECF06C0FFBBEEBBE09A319667
S11327C00DB20D9241505040B8F70895DC01A40FAA
S11327D0B51F4150504040F0CB01840F951F2E91FE
S11327E005D041505040D8F70895262FE199FECFE7
S11327F09FBB8EBBE09A01970DB2021631F02DBB40
S11328000FB6F894E29AE19A0FBE0895F894FFCFB8
S1132810315400325400CED2CF00C7C0CF00294B70
S1132820656D06D90D303132333435363738394198
S113283042434445464D00202020202020202020D3
S113284020202020202020202020200020202020A4
S11328502020202020202020202020202020200094
S113286000746573746F76616A61206669676E616E
S1132870206667686A206B6A686764667365727449
S11328807975686E6D6B6C66640000080004000264
S11328900001800040002000100008000400020035
S11328A00100804020100804020120202053454CE0
S11328B020464C415348204552524F52202000108C
S11328C027E80364000A000100000000002C012C2A
S11328D0012C012C014B00000005000A0014002803
S11328E0005000640096002C015802B0046009B83E
S11328F00B4E756C6C00585858204D4F443A58583C
S113290020D3F1F220585820585800463D585858C2
S113291058582C585820EAC3F620CDE0F1F2F000C4
S1132920404040435F5852405858405858405858C7
S11329304058584000235840435F5852405858402C
S11329405858405858405858400040413D58584005
S11329504C313D58584043313D585858404000444C
S1132960433D5858404C323D58584043323D5858E6
S1132970584040004C53503000202020202020C7D5
S1132980C0C3D0D3C7CAC020202020202000524575
S1092990424F4F54000009
S9030000FC
