:1000000086C00000CAC00000C8C00000C6C0000012
:10001000C4C00000C2C00000C0C00000BEC00000DC
:10002000BCC00000BAC00000B8C00000B6C00000EC
:10003000B4C00000B2C00000B0C00000AEC00000FC
:10004000ACC00000AAC00000A8C00000A6C000000C
:10005000A4C00000A2C00000A0C000009EC000001C
:100060009CC000009AC0000098C0000096C000002C
:1000700094C0000092C000000C9477128EC0000063
:100080008CC000008AC0000088C0000041A042A1CE
:10009000E045A3A4A5A64BA74D484FA8504354A99B
:1000A000AA58E1ABACE2ADAE62AFB0B161B2B3B4ED
:1000B000E365B6B7B8B9BABBBCBD6FBE7063BF79F4
:1000C000E478E5C0C1E6C2C3C4C5C6C7E714F614E8
:1000D0003A134C12AD11511840137B13AF11B311E9
:1000E000071470122E16FE11D411A11507070C0269
:1000F000010107130000020000000007804685840C
:10010000868790919281959697FF98996C18EBE568
:10011000F5E0E370FF27E55AFA4F2FEF30E12C7F2F
:10012000E217F30758F48EED9DEAAEEBBFEE819334
:100130009193A193B193E217F307C8F311241FBE63
:10014000CFEFD0E1DEBFCDBF13E0A0E0B1E0E2EC45
:10015000F6E300E00BBF02C007900D92AA36B1078C
:10016000D9F725E0AAE6B3E001C01D92AB35B2078E
:10017000E1F711E0CEE0D1E000E006C022970109EE
:10018000FE010BBF0E940D1BCC30D10780E0080799
:10019000A9F70E9456180C945F1B32CF8770806EAF
:1001A00087B986EC86B9369B05C087E08A95F1F75A
:1001B00000C0F9CF85B108951F93CF93DF93182F17
:1001C000C0E0D1E088EB8A95F1F70000812FE6DFEF
:1001D0008C1719F0DC2FC82FF5CFCD13FBCFDF9193
:1001E000CF911F910895CF93DF93CDB7DEB7689776
:1001F0000FB6F894DEBF0FBECDBF28E1EDE3F2E00D
:10020000DE01119601900D922A95E1F7A89824E05D
:100210002A95F1F7FE013196AE01475E5F4F2191BD
:100220003191B901682379236217730711F0A998F6
:1002300001C0A99AA89A2FE02A95F1F7A898E41787
:10024000F50769F7A99868960FB6F894DEBF0FBE58
:10025000CDBFDF91CF910895CF93DF93CDB7DEB7B8
:1002600028970FB6F894DEBF0FBECDBF98E0E5E546
:10027000F2E0DE01119601900D929A95E1F7A898AF
:1002800094E09A95F1F7FE0131969E01275F3F4F6A
:100290009191492F4823491711F0A99801C0A99AB3
:1002A000A89A9FE09A95F1F7A898E217F30781F7CB
:1002B000A99828960FB6F894DEBF0FBECDBFDF9188
:1002C000CF910895CF93DF93CDB7DEB728970FB6C0
:1002D000F894DEBF0FBECDBF88E0E5E5F2E0DE01B9
:1002E000119601900D928A95E1F7FE0131969E01DB
:1002F000275F3F4F80E0A8989BE09A95F1F70000B8
:1003000093B3419192FB992790F9499F800D112455
:10031000A89A97E09A95F1F700C0E217F30759F70A
:10032000A89828960FB6F894DEBF0FBECDBFDF9118
:10033000CF910895EF92FF921F93CF93DF9300D058
:10034000CDB7DEB7AE98AF98AD9869837A834BDFAF
:1003500084E08A95F1F76981E62E7A81F72E14E020
:10036000F70181917F0178DF1150D1F7AD9A0F909D
:100370000F90DF91CF911F91FF90EF900895EF9232
:10038000FF921F93CF93DF9300D0CDB7DEB7AE9827
:10039000AF98AD9869837A8326DF84E08A95F1F778
:1003A0006981E62E7A81F72E14E08CDFF7018193C4
:1003B0007F011150D1F7AD9A0F900F90DF91CF913F
:1003C0001F91FF90EF9008950F931F93CF93DF93AA
:1003D000EC01A8E9B2E0EFEFFFEF20E030E06AE0E7
:1003E0004D915D91649FC001659F900D11248C1704
:1003F0009D0728F42530310509F459C0F9012F5F14
:100400003F4F2630310561F7EF3F8FEFF80709F4D2
:1004100051C08F01000F111FD801A856BD4F8D91FB
:100420009C914AE0489F9001499F300D11242C1760
:100430003D0758F4D801A457BD4F6D917C91CE0172
:10044000821B930B0E94E61A02C060E070E0D801A4
:10045000A457BD4F4D915C91649FC001659F900D65
:10046000749F900D1124C81BD90BC21BD30BA0E89D
:10047000B2E080E090E020E030E02E173F0739F056
:100480000D911D91800F911F2F5F3F4FF6CF569515
:100490004795C417D50710F06F5F7F4F680F791F1E
:1004A00026E0269FC001279F900D112405C08BEFE9
:1004B00094E002C080E090E0DF91CF911F910F9116
:1004C0000895DC01E2E7F2E080E090E06D91419177
:1004D00051916F70649F9001659F300D1124820FC0
:1004E000931F22E0E038F20789F76ECFA3D18DE5A4
:1004F00092E0BCD12FEF8FED90E1215080409040F1
:10050000E1F700C000000895EF92FF920F931F9350
:10051000CF93DF93F42EE62E8C01EB018C2F8E19F6
:100520008F15F8F48BD080EACED0813009F4DEDF6D
:10053000812FC9D0813009F4D9DF802FC4D0813018
:1005400009F4D4DF8991BFD0813009F4CFDF88D09E
:100550008FEF95E30197F1F700C000000F5F1F4F89
:10056000DDCFDF91CF911F910F91FF90EF90089514
:1005700046E0CACF41E09A95C7CFDF92EF92FF9253
:100580000F931F93CF93DF93EC01F62E072FD42EFA
:1005900055D080EA98D011E0813009F010E08981CF
:1005A00092D0813009F41F5F88818DD0813009F4A9
:1005B0001F5F44D081EA87D0813009F0111196DFA6
:1005C000CF2DD02F00E010E0ED2CF12C81E0E81AC7
:1005D000F1080D1550F481E00E151F0509F080E0BB
:1005E0007AD089930F5F1F4FF4CFDF91CF911F9186
:1005F0000F91FF90EF90DF9033C0CF93DF9300D047
:10060000CDB7DEB79A83898346E0CE010196B5DF88
:100610000F900F90DF91CF910895CF93DF9300D08B
:10062000CDB7DEB79A959A83898341E0CE010196D2
:10063000A4DF0F900F90DF91CF91089587B38F794A
:1006400087BB8BE08A95F1F70000BE9A8BE08A9514
:10065000F1F70000BD9A8BE08A95F1F7000008954C
:1006600087B3806687BB8BE08A95F1F70000BD9861
:100670008BE08A95F1F70000BE988BE08A95F1F740
:100680000000089587FF02C0BE9801C0BE9A2BE00B
:100690002A95F1F70000BD9890E0B59908C09F3FFA
:1006A00031F02BE02A95F1F700009F5FF6CF9BE039
:1006B0009A95F1F7000096B3BD9A880F96FB99279B
:1006C00090F9892B0895CF93C8E0DCDFC150E9F79A
:1006D00080E8CF91D7CF1F93CF93DF93182FD8E027
:1006E000CFEF8C2FCFDFC82FD150D9F7812F87952F
:1006F00088278795C7DF8C2FDF91CF911F910895B1
:100700000895CF93FC0185B3876085BB84B3876070
:1007100084BB81B38F7381BB82B38F7382BB20E0B4
:1007200030E041E050E0C22FBA01022E01C0660F56
:100730000A94EAF7609565BB8FEF9BE60197F1F7A6
:1007400000C0000080B386FD02C0C05F12C087FDFC
:1007500002C0C05E0EC08FEF9BE60197F1F700C0AC
:1007600000002F5F3F4F23303105E9F610926A03F6
:1007700008C080916A03C81721F08C2F0995C09397
:100780006A03CF910895AE9A84E08A95F1F7AE9806
:1007900008951F93CF93DF931F92CDB7DEB76623E3
:1007A00011F0AC9A01C0AC98AD9894B39F6094BB23
:1007B00015B3107F982F92959F70912B95BB8983CD
:1007C000E2DF89818F70812B85BBDDDF1F6015BB68
:1007D0000F90DF91CF911F910895AC98AD9A84B39B
:1007E000807F84BBAE9A84E08A95F1F783B3AE989C
:1007F00094E09A95F1F7AE9A94E09A95F1F793B355
:10080000AE989F708295807F892B0895E6DF87FDE3
:10081000FDCF8FE08A95F1F7E0CFCF93C82FF6DFB9
:1008200060E08C2FCF91B5CF611102C0805801C01C
:100830008054F3CF81E0F1CFCF93C82FE7DFCA30E8
:1008400041F4803410F480E401C080E08058CF91FE
:10085000E4CFC03C38F0EC2FF0E0E453F04084915A
:1008600061E002C061E08C2FCF9193CFCF93DF93F3
:10087000EC018991882311F0DFDFFBCFDF91CF916D
:100880000895CF93C82F94B39F6794BB8CEC9CEAD8
:100890000197F1F700C00000A99AA89A74DF8FEFC2
:1008A00095E30197F1F700C000006DDF9CEE9A958B
:1008B000F1F769DF8CEE8A95F1F7A89864DF9CEE7A
:1008C0009A95F1F788E2A9DF88E0A7DFB3DF86E039
:1008D000A4DF8C2FCF91A1CFEF92FF920F931F93A4
:1008E000CF93DF931F92CDB7DEB7182F80E899839F
:1008F00094DFE12E9981F92E1095F70101917F0186
:10090000002349F08E2D810F843111F480EC85DFB6
:10091000802F92DFF2CF0F90DF91CF911F910F9137
:10092000FF90EF90089508958231A1F128F480316D
:1009300089F08131F9F008958132A1F0823211F10C
:10094000803299F58091590590915A05FC01E25B3E
:10095000FF4F27C08091590590915A05FC01E45B37
:10096000FF4F1FC08091590590915A05FC01EC5A28
:10097000FF4F17C08091590590915A05FC01EA5A22
:10098000FF4F0FC08091590590915A05FC01E05B23
:10099000FF4F07C08091590590915A05FC01EE5A0E
:1009A000FF4F0190F081E02D099408953F924F92FE
:1009B0005F926F927F928F929F92AF92BF92CF92EF
:1009C000DF92EF92FF920F931F93CF93DF93CDB7F8
:1009D000DEB7FC01FC8C5D8C6E8C3F8C78A049A04E
:1009E000708F678B528F418F31832083F0AADC0197
:1009F000AA5BBF4F3C92139681E08C9311971C9297
:100A0000E68AB801CF0140E002964E1549F0DB01BD
:100A10002D913D91BD01DC012D933C934F5FF4CFAF
:100A2000FF2029F0652D762D80E090E004C081E064
:100A3000838F81AB1EC08F1558F4DB014D91BD0132
:100A40009F01280F391FD9015B964C930196F3CF74
:100A5000672D742D80E090E0831558F4DB014D91F3
:100A6000BD019F01280F391FD901D1964C930196E2
:100A7000F3CFDF01A45BBF4FC114D10429F483E994
:100A800094E08D939C9302C0CD92DC92DF01A85A32
:100A9000BF4F8114910429F483E994E08D939C93D2
:100AA00002C08D929C92DF01A25BBF4FA114B104E2
:100AB00029F483E994E08D939C9302C0AD92BC929B
:100AC000DF01A05BBF4F8C899D89892B19F483E9D5
:100AD00094E002C08C899D898D939C93DF01AE5A6E
:100AE000BF4F8E899F89892B19F483E994E002C056
:100AF0008E899F898D939C93DF01AC5ABF4F888D5F
:100B0000998D892B19F483E994E002C0888D998D21
:100B10008D939C93DF01AA5ABF4F8A8D9B8D892BA1
:100B200019F483E994E002C08A8D9B8D8D939C9388
:100B3000DF01A65BBF4FFC92E55BFF4F3082DF9188
:100B4000CF911F910F91FF90EF90DF90CF90BF90CA
:100B5000AF909F908F907F906F905F904F903F905D
:100B600008952F923F924F925F926F927F928F9251
:100B70009F92AF92BF92CF92DF92EF92FF920F932C
:100B80001F93CF93DF93CDB7DEB7C658D1400FB6D2
:100B9000F894DEBF0FBECDBF86E1582EAE014F5F89
:100BA0005F4FDA01E52D1D92EA95E9F79E01295E76
:100BB0003F4FD901E52D1D92EA95E9F7FE01E75F68
:100BC000FE4FDF0185E11D928A95E9F7ACE8B3E0BD
:100BD000B183A08377247394748A85E1DE01A85BD6
:100BE000BE4F01900D928A95E1F7B3E0BF8B94E080
:100BF000492E488EE5E0E98FF6E0FA8F87E08B8F8B
:100C000069E0F62EFC8E9AE09D8FA0E1AE8F78E031
:100C1000672E6CA6CE018B579F4F66E1F901DC0170
:100C200001900D926A95E1F77982FA82BCE0BB836C
:100C3000E2E12E2E2C824E8A2C573F4F66E1FA01BC
:100C4000D90101900D926A95E1F73F932F934F924E
:100C50009F938F936F9289EE97E19F938F9381E893
:100C600097E19F938F93ABE5B8E0BF93AF93A9EA69
:100C7000B8E0BF93AF93F6E68F2EFCE09F2EA8EE70
:100C8000AA2EA8E0BA2EB3E8CB2EB6E1DB2EEE24D6
:100C9000E3948E01085B1E4F2BE934E049EA52E0F1
:100CA0006DEB72E0C90182DEAE01435D5F4FDA0198
:100CB000E52D1D92EA95E9F7CE018D5B9F4FDC0192
:100CC000E52D1D92EA95E9F7FE01E25EFE4FDF0198
:100CD00025E11D922A95E9F721E434E03183208350
:100CE000748A25E1DE01A35ABE4F01900D922A9528
:100CF000E1F7DC017C921196FC921197EAE01296E2
:100D0000EC931297FCE01396FC9313976DE0149606
:100D10006C9314972FE015962C93159730E1169647
:100D20003C93169717962C92179723E1322E18961C
:100D30003C9218975596FC929E012F543F4F76E1B6
:100D4000FC01D90101900D927A95E1F7FDA68AE0A8
:100D50008EA79CE09FA768ABAFE0A9ABB0E1BAABB0
:100D60002BAA3CAA23966FAE2397CE0189539F4F9F
:100D700066E1FA01DC0101900D926A95E1F79F931B
:100D80008F936F923F932F93FF928CED99E09F93F7
:100D90008F9387E999E09F938F93ABE5B8E0BF937A
:100DA000AF93A9EAB8E0BF93AF9331E0832E3DE063
:100DB000932E47E6A42E49E0B42E50E5C52E5AE006
:100DC000D52E0B5E1F4F2BE934E042ED52E067EE6B
:100DD00072E081E494E0EADD8CEF92E09093FE0310
:100DE0008093FD0381E193E0909300048093FF03DF
:100DF0008BE994E09093E7038093E6031092160446
:100E000010922C0470922F0410922E047092FC0306
:100E10009093E9038093E8037092010470921704A1
:100E200083E994E090933304809332040FB6F894EE
:100E3000DEBF0FBECDBF2AE130E130933F042093E7
:100E40003E0422E23AE03093350420933404909338
:100E50003704809336049093390480933804909338
:100E60003B0480933A0490933D0480933C04109299
:100E7000300410923104CE01875A9F4FDC01E52DDA
:100E80001D92EA95E9F79E0121593F4FD9011D9224
:100E90005A94E9F7FE01ED5CFE4FDF0145E11D923A
:100EA0004A95E9F7ACE8B3E0B183A083748A45E1E1
:100EB000DE01AE58BE4F01900D924A95E1F743E036
:100EC000F901408341826282F3824EE044835FE015
:100ED0005583368264E16783658AAE0143525F4F72
:100EE00076E1DA0101900D927A95E1F7DC014C92FE
:100EF000E5E01196EC931197F6E01296FC931297A9
:100F000027E013962C93139714966C92149721E173
:100F100015962C93159716962C92169717963C9229
:100F2000179718966C9318975596FC929E012D5022
:100F30003F4F66E1FC01D90101900D926A95E1F7FE
:100F40003F932F93FF925F934F936F9282E49BE0C6
:100F50009F938F938DE69AE09F938F938BE798E012
:100F60009F938F938AEB98E09F938F9363EC862EE9
:100F70006DE0962E7AE2A72E7AE0B72EE6E8CE2E26
:100F8000E4E1DE2E0B5E1F4F2BE934E046E253E036
:100F90006BE373E08CE893E009DD0FB6F894DEBFF5
:100FA0000FBECDBFCA57DE4F0FB6F894DEBF0FBEDF
:100FB000CDBFDF91CF911F910F91FF90EF90DF9008
:100FC000CF90BF90AF909F908F907F906F905F90E9
:100FD0004F903F902F900895FC01E75BFF4F2081D9
:100FE000213039F431973081FC01E30FF11D338D4D
:100FF0000AC0223041F4FC01E85BFF4F3081FC0164
:10100000E30FF11D31A9C9010895FC01E85BFF4F11
:101010004081242F30E0DC01A75BBF4F5C91850F3E
:10102000911DDC01A75BBF4F8C9190E001972817C1
:10103000390711F4108208954F5F40830895FC0131
:10104000E85BFF4F208121110DC0DC01A75BBF4F82
:101050002C91820F911DDC01A75BBF4F8C918150B9
:1010600080830895215020830895FC01E75BFF4FA2
:101070002081213051F4DC01A55BBF4F2C9122234C
:1010800091F022E0208331970DC0223061F4DC0121
:10109000A65BBF4F2C91222331F021E02083FC017D
:1010A000E85BFF4F10820895FC01E85AFF4F019062
:1010B000F081E02D0994CF93DF93EC01FC01E85B14
:1010C000FF4F208130E031968081813011F488A972
:1010D00004C0FE01EA5BFF4F808190E00197281772
:1010E000390719F4CE01C1DF02C0CE018EDFCE0177
:1010F000DF91CF91D9CF0F931F93CF93DF93EC0163
:10110000DADF8E01075B1F4FF8018081813049F4DF
:101110003197E081E695F0E0EE5FFE4F80810E941E
:10112000FA18F8018081823079F4C85BDF4FE881DA
:10113000E695E695F0E0E050FF4F8081DF91CF919A
:101140001F910F910C94FA18DF91CF911F910F917D
:101150000895CF93DF93EC01FC01E85BFF4F8081A2
:10116000811102C0CE0181DFCE0169DFCE01DF91A6
:10117000CF919ACF0F931F93CF93DF93EC01E9DFC9
:101180008E01075B1F4FF8018081813049F4319750
:10119000E081E695F0E0EE5FFE4F80810E94FA1854
:1011A000F8018081823079F4C85BDF4FE881E695F1
:1011B000E695F0E0E050FF4F8081DF91CF911F91E5
:1011C0000F910C94FA18DF91CF911F910F91089510
:1011D000CF93DF93CDB7DEB72D970FB6F894DEBF70
:1011E0000FBECDBFFC01E85BFF4F1082319621E0BE
:1011F0002083FC018081918190935A058093590549
:10120000BE016F5F7F4F87EF9FE0B9D8BE016B5F74
:101210007F4F86EF9FE0B3D8BE01675F7F4F85EFBA
:101220009FE0ADD88D81982F92959F709093F9048F
:101230008F708093FA048E81982F92959F7090936F
:10124000FB048F708093FC048F81982F92959F7080
:101250009093FD048F708093FE04888582958F7033
:101260008093FF041092F60486E00E94DC008093D5
:10127000F5048091500581110CC086EE93E014DFD7
:10128000FFEF2FE982E3F15020408040E1F700C0FA
:10129000000080915005813061F48CE893E004DF18
:1012A0009FEFEFE9F2E39150E040F040E1F700C03A
:1012B00000008091590590915A05F6DE2D960FB6E3
:1012C000F894DEBF0FBECDBFDF91CF910895FC0132
:1012D000E75BFF4F2081DC01A85BBF4F213019F491
:1012E0002C912223E1F01C9281E0808360E075E084
:1012F0008FEF9FE044D864E075E08EEF9FE03FD829
:1013000068E075E08DEF9FE03AD86CE075E08CEF17
:101310009FE035D88091590590915A05C5CEFC01C2
:101320008081918190935A0580935905DFCFFC010C
:10133000E85BFF4F4081319620914004411103C08A
:101340003081313089F1E0813E2F3170431BE695C9
:10135000342F369540FD13C0F0E0E20FF11DE20F8F
:10136000F11DEE0FFF1FEE0FFF1FE950FB4FE30FC4
:10137000F11D3185232F207F205F3F7012C0F0E0E8
:10138000E20FF11DE20FF11DEE0FFF1FEE0FFF1F29
:10139000E950FB4FE30FF11D318521E0230F2F7042
:1013A000307F232B218780CE211103C0309340044E
:1013B000FACF10924004F7CFFC01E85BFF4F408169
:1013C000319620914004411103C03081313089F1C0
:1013D000E0813E2F3170431BE695342F369540FD5A
:1013E00013C0F0E0E20FF11DE20FF11DEE0FFF1F41
:1013F000EE0FFF1FE950FB4FE30FF11D3185232F47
:10140000207F20513F7012C0F0E0E20FF11DE20F8B
:10141000F11DEE0FFF1FEE0FFF1FE950FB4FE30F13
:10142000F11D31852FEF230F2F70307F232B218764
:101430003BCE222321F0215020934004F9CF30935A
:101440004004F6CFFC018081918190935A058093EE
:1014500059052ACEFC01E75BFF4F2081213021F4A2
:1014600031972081222381F08091590590915A056E
:10147000FC01E85BFF4F1082319621E020838091D0
:10148000590590915A0510CEFC018081918190936D
:101490005A0580935905F3CF42E650E00C943F1B68
:1014A00060E070E087EF94E0F7DF60E075E08FEFD9
:1014B00097E00E949A0164E075E08EEF97E00E9449
:1014C0009A0168E075E08DEF97E00E949A016CE068
:1014D00075E08CEF97E00C949A01CF93DF93EC01C9
:1014E000E0915905F0915A05E75BFF4F808181300B
:1014F00009F051C0FE01E85BFF4F4081842F8695C3
:1015000090E0FC01EE0FFF1FE65FFE4F0190F081BF
:10151000E02D7081272F30E0642F617040FF03C001
:101520004FE050E002C040EF50E0422353236111EE
:1015300002C024E001C020E0DA0102C0B595A79501
:101540002A95E2F79D01AF3010F42F5F01C020E033
:10155000611102C03FE001C030EF7323422F50E021
:10156000662311F030E001C034E0DA0102C0AA0FB6
:10157000BB1F3A95E2F79D01270F2083FC01EE5F28
:10158000FE4F608181E595E00E94831960E070E084
:1015900087EF94E081DFE0915905F0915A05E75B10
:1015A000FF4F8081823009F066C0CE0115DD915178
:1015B000913170F4CE0110DDE92FF0E0EA51FB4FDC
:1015C0008281893018F48F5F828355C0128253C0A4
:1015D000C85BDF4F2881822F65E00E94DA1AC82F8E
:1015E000D0E0FE01EE0FFF1FEA5FFE4F0190F08199
:1015F000E02DA081B181243021F41196B183A08324
:101600002EC030E02095309523703327220F331FF2
:10161000220F331F6FE070E0022E02C0660F771FAB
:101620000A94E2F7AB014A235B23022E02C05695CF
:1016300047950A94E2F74F3010F44F5F01C040E045
:1016400050E002C0440F551F2A95E2F79B012095F8
:1016500030952A233B23420F531F51834083C050B0
:10166000DF4F688181E595E00E94831960E070E0BA
:1016700087EF94E011DF8091590590915A05DF9131
:10168000CF9112CDCF93DF93EC01809159059091CA
:101690005A05FC01E75BFF4F2081213009F04FC064
:1016A00031974081842F869590E0FC01EE0FFF1F5B
:1016B000E65FFE4F0190F081E02D7081272F30E032
:1016C000642F617040FF03C04FE050E002C040EF64
:1016D00050E042235323611102C024E001C020E006
:1016E000DA0102C0B595A7952A95E2F79D01AA23D4
:1016F00011F0215001C02FE0611102C03FE001C094
:1017000030EF7323422F50E0662311F030E001C028
:1017100034E0DA0102C0AA0FBB1F3A95E2F79D013F
:10172000270F2083FC01EE5FFE4F608181E595E08D
:101730000E94831960E070E087EF94E0ADDEE091F5
:101740005905F0915A05E75BFF4F8081823009F01F
:101750006AC0CE0141DC9151913170F4CE013CDC84
:10176000E92FF0E0EA51FB4F8281882311F081508C
:1017700001C089E0828357C0E0915905F0915A0574
:10178000E85BFF4F2081822F65E00E94DA1AC82FA4
:10179000D0E0FE01EE0FFF1FEA5FFE4F0190F081E7
:1017A000E02DA081B181243021F41197B183A08371
:1017B0002EC030E02095309523703327220F331F41
:1017C000220F331F6FE070E0022E02C0660F771FFA
:1017D0000A94E2F7AB014A235B23022E02C056951E
:1017E00047950A94E2F7442311F0415001C04FE0BD
:1017F00050E002C0440F551F2A95E2F79B01209547
:1018000030952A233B23420F531F51834083C050FE
:10181000DF4F688181E595E00E94831960E070E008
:1018200087EF94E039DE8091590590915A05DF9158
:10183000CF913ACC0F931F93CF93DF938B01EA01A3
:1018400029E2FA0111922A95E9F7FC0101900020A2
:10185000E9F7AF0141505109481B590BBC01CE01BA
:101860000E942B1BF80101900020E9F7AF014150C5
:101870005109401B510BB801CE014496DF91CF9125
:101880001F910F910C942B1BCF93DF9300D0CDB7FA
:10189000DEB789839A830E941A0489819A811CD8B1
:1018A0008091590590915A0597DB6FEF680F8091F1
:1018B000590590915A0569838FDB69818FEF890FF4
:1018C0000F900F90DF91CF910C941404CF93DF937E
:1018D000EC016F89788DFB0101900020E9F7AF01E1
:1018E00041505109461B570B4531510510F044E159
:1018F00050E080E591E00E942B1B698D7A8DFB0101
:1019000001900020E9F7AF0141505109461B570BE8
:101910004531510510F044E150E08BE391E00E9425
:101920002B1B8091F704811107C080911A019091BF
:101930001B01A0911C0106C080911E0190911F0106
:10194000A091200180933B0190933C01A0933D0125
:1019500068E570E08BE391E00E94341B2091F8046D
:1019600030E0F901EE0FFF1FE20FF31FEC5EFE4FB8
:1019700020813181FC013183208320E030E0C0E50B
:10198000D1E0FE0101900020E9F73197E055F140E8
:10199000822F90E08E179F0798F4DC01A05BBE4F6A
:1019A0008C91883559F4E32FF0E0E950FB4FE28148
:1019B000F0E0E75DFE4F80818C933F5F2F5FE1CFCA
:1019C0008091500568E570E0811107C08BE391E0DC
:1019D0000E94341B2091120106C08BE391E00E940B
:1019E000341B20911301FC01208345E651E06BE399
:1019F00071E080E591E01EDF85E691E0DF91CF9117
:101A000043CFEF92FF920F931F93CF93DF93EC019D
:101A10006F89788DFB0101900020E9F7AF014150FB
:101A20005109461B570B4531510510F044E150E078
:101A300080E591E00E942B1B698D7A8DFB0101905E
:101A40000020E9F7AF0141505109461B570B4531C2
:101A5000510510F044E150E08BE391E00E942B1B14
:101A600068E570E080E591E00E94341BC09140047D
:101A7000D0E0FE01E75DFE4F2081FC01208368E598
:101A800070E080E591E00E94341B7E01EE0CFF1CAB
:101A90008701075D1E4FF8012081FC01208368E566
:101AA00070E08BE391E00E94341BF8012181FC017E
:101AB000208300E010E040E551E0CE0163E0880FB4
:101AC000991F6A95E1F79701220F331F220F331FE9
:101AD00089509B4F25503B4FE0E2FE2EFA010190CA
:101AE0000020E9F73197E055F140A02FB0E0AE17A4
:101AF000BF07C8F5FD01E05BFE4F6081A55CBE4FEE
:101B0000683539F5612F669570E0EC01C60FD71F77
:101B1000C98510FD0DC0C295CF70D0E0C75DDE4F06
:101B2000C881C083E901C60FD71FC985C2950AC005
:101B3000CF70D0E0C75DDE4FC881C083E901C60F1A
:101B4000D71FC985CF70D0E0C75DDE4F68816C9329
:101B50001F5F6081603409F4F0826C91603409F495
:101B6000FC920F5FBBCF45E651E06BE371E080E58F
:101B700091E060DE85E691E0DF91CF911F910F91BA
:101B8000FF90EF9081CE1F93CF93DF93EC016F898D
:101B9000788DFB0101900020E9F7AF014150510918
:101BA000461B570B4531510510F044E150E080E5EC
:101BB00091E00E942B1B698D7A8DFB010190002022
:101BC000E9F7AF0141505109461B570B453151050B
:101BD00010F044E150E08BE391E00E942B1B68E59C
:101BE00070E080E591E00E94341BC0915105AC2F5C
:101BF000A295AF70B0E0A75DBE4F2C91FC01208391
:101C000068E570E080E591E00E94341BCF70EC2F16
:101C1000F0E0E75DFE4F2081FC01208368E570E085
:101C200080E591E00E94341BC0915205AC2FA29533
:101C3000AF70B0E0A75DBE4F2C91FC01208368E53A
:101C400070E080E591E00E94341BCF70EC2FF0E053
:101C5000E75DFE4F2081FC01208368E570E080E5B0
:101C600091E00E94341BC0915305AC2FA295AF7038
:101C7000B0E0A75DBE4F2C91FC01208368E570E0C9
:101C800080E591E00E94341BCF70EC2FF0E0E75D1F
:101C9000FE4F2081FC01208368E570E080E591E043
:101CA0000E94341BC0915405AC2FA295AF70B0E0D8
:101CB000A75DBE4F2C91FC01208368E570E080E5B4
:101CC00091E00E94341BCF70EC2FF0E0E75DFE4FF7
:101CD0002081FC01208368E570E08BE391E00E94A5
:101CE000341BC0915505D0915605FE01EF2FFF27FB
:101CF000E295EF70E75DFE4F2081FC01208368E5EF
:101D000070E08BE391E00E94341BFE01EE27FF7030
:101D1000EF2FFF0FFF0BE75DFE4F2081FC012083BB
:101D200068E570E08BE391E00E94341BFE01E07FE8
:101D3000FF2714E0F595E7951A95E1F7E75DFE4F6B
:101D40002081FC01208368E570E08BE391E00E9434
:101D5000341BCF70DD27C75DDE4F2881FC01208357
:101D600086E00E94CE00182F68E570E08BE391E0DA
:101D70000E94341BEC01A12FA295AF70B0E0A75DCB
:101D8000BE4F8C9188831F70E12FF0E0E75DFE4F1E
:101D900080818093440168E570E08BE391E00E94CC
:101DA000341BE091F904F0E0E75DFE4F2081FC0177
:101DB000208368E570E08BE391E00E94341BE091A2
:101DC000FA04F0E0E75DFE4F2081FC01208368E526
:101DD00070E08BE391E00E94341BE091FB04F0E0A3
:101DE000E75DFE4F2081FC01208368E570E08BE316
:101DF00091E00E94341BE091FC04F0E0E75DFE4FAF
:101E00002081FC01208320E0A0E5B1E030E2FD016B
:101E100001900020E9F73197E055F140822F90E0E2
:101E20008E179F0780F4FC01E05BFE4F4081403439
:101E300009F43083FC01E55CFE4F8081803409F4B5
:101E400030832F5FE4CF45E651E06BE371E080E53E
:101E500091E0F0DC85E691E0DF91CF911F9114CD08
:101E6000CF93DF9320E030E0E0E0F0E0AFE0B0E0DF
:101E7000AD01421B530BEC0102C0D695C7954A95A4
:101E8000E2F7AE0141705527022E02C0440F551FE4
:101E90000A94E2F7E40FF51F2F5F3F4F2031310521
:101EA00039F7DB01ED93FC93DF91CF910895CF9249
:101EB000DF92EF92FF920F931F93CF93DF9300D0A7
:101EC00000D01F92CDB7DEB79A838983162F5C832B
:101ED0004B83BE016F5F7F4F2D83C2DF89819A8163
:101EE00024E0969587952A95E1F79A838983BE0128
:101EF0006D5F7F4F8B819C81B3DF4B815C81812F34
:101F000090E0982F88279295990F907EE981FA8129
:101F1000FF708E0F9F1FF701918380831877612FC9
:101F200070E0A3E076956795AA95E1F7407F640F8E
:101F3000751F7383628340E2402750E040955095BF
:101F400080E0942F2D81820F911D820F911D45FB02
:101F5000CC24C0F8D12C8C0D9D1D958384830F90CB
:101F60000F900F900F900F90DF91CF911F910F91D5
:101F7000FF90EF90DF90CF900895CF92DF92EF9295
:101F8000FF920F931F93CF93DF93EC016A01F70148
:101F9000808191819F709983888342814F70808175
:101FA0009181892F992782958695877058E0459F62
:101FB000800D1124DB018C938281938144E09695FE
:101FC00087954A95E1F7D6018D939C9384818695F8
:101FD000D9018C938481958188279F73892F80955F
:101FE0008F7390E28927F8018083BE0188819981EF
:101FF00037DF8881998154E0969587955A95E1F766
:1020000099838883B601D6018D919C9129DFF601D1
:102010008081918164E0969587956A95E1F7918337
:102020008083DF91CF911F910F91FF90EF90DF9010
:10203000CF900895EF92FF920F931F93CF93DF936A
:10204000EC01409125015091260100E1E02E05E0D0
:10205000F02E0091220120912301609124018091B2
:1020600027019091280123DF02E211E023E231E011
:1020700045E251E064E271E087E291E07EDF6F8942
:10208000788DFB0101900020E9F7AF014150510923
:10209000461B570B4531510510F044E150E080E5F7
:1020A00091E00E942B1B698D7A8DFB01019000202D
:1020B000E9F7AF0141505109461B570B4531510516
:1020C00010F044E150E08BE391E00E942B1B68E5A7
:1020D00070E080E591E00E94341BC0912201AC2F9A
:1020E000A295AF70B0E0A75DBE4F2C91FC0120839C
:1020F00068E570E080E591E00E94341BCF70EC2F22
:10210000F0E0E75DFE4F2081FC01208368E570E090
:1021100080E591E00E94341BC0912401AC2FA29570
:10212000AF70B0E0A75DBE4F2C91FC01208368E545
:1021300070E080E591E00E94341BCF70EC2FF0E05E
:10214000E75DFE4F2081FC01208368E570E080E5BB
:1021500091E00E94341BC0912701D0912801FE011B
:10216000EE27FF70EF2FFF27E75DFE4F2081FC0178
:10217000208368E570E080E591E00E94341BFE0159
:10218000E07FFF27A4E0F695E795AA95E1F7E75DE4
:10219000FE4F2081FC01208368E570E080E591E03E
:1021A0000E94341BCF70DD27C75DDE4F2881FC0104
:1021B000208368E570E08BE391E00E94341BC091BE
:1021C0001605AC2FA295AF70B0E0A75DBE4F2C9165
:1021D000FC01208368E570E08BE391E00E94341BF2
:1021E000CF70EC2FF0E0E75DFE4F2081FC012083F3
:1021F00068E570E08BE391E00E94341BC0912301FD
:10220000AC2FA295AF70B0E0A75DBE4F2C91FC0142
:10221000208368E570E08BE391E00E94341BCF706F
:10222000EC2FF0E0E75DFE4F2081FC01208368E5A4
:1022300070E08BE391E00E94341BC0912501D091A6
:102240002601FE01EE27FF70EF2FFF27E75DFE4F0F
:102250002081FC01208368E570E08BE391E00E941F
:10226000341BFE01E07FFF2714E0F695E7951A95F1
:10227000E1F7E75DFE4F2081FC01208368E570E017
:102280008BE391E00E94341BCF70DD27C75DDE4FEA
:102290002881FC01208386E00E94CE00182F68E58B
:1022A00070E08BE391E00E94341BEC01A12FA2951A
:1022B000AF70B0E0A75DBE4F8C91888368E570E099
:1022C0008BE391E00E94341BDC011F70E12FF0E0F2
:1022D000E75DFE4F80818C9320E0A0E5B1E030E225
:1022E000FD0101900020E9F73197E055F140822F80
:1022F00090E08E179F0780F4FC01E05BFE4F408169
:10230000403409F43083FC01E55CFE4F8081803469
:1023100009F430832F5FE4CF45E651E06BE371E0D1
:1023200080E591E087DA85E691E0DF91CF911F911A
:102330000F91FF90EF90A8CAF894282FFC018E2FE0
:10234000821B861740F480919B0085FFFCCF819112
:1023500080939C00F4CF7894089561E0EDCF0C94C5
:10236000007861E0E9CFCF93DF9300D000D000D0B8
:10237000CDB7DEB786E00E94DC00982F92959F7063
:10238000905D9C838F70805D8D8383E08E8366E09B
:10239000CE010196D1DF26960FB6F894DEBF0FBEB0
:1023A000CDBFDF91CF9108950F931F93CF93DF930C
:1023B0001F92CDB7DEB788E9898361E0CE0101962F
:1023C000BBDF00E010E0BE016F5F7F4FC8010E94DD
:1023D0000D0361E0CE010196AFDF0F5F1F4F0C319F
:1023E000110589F783E0898361E0CE010196A4DFBE
:1023F0000F90DF91CF911F910F910895CF93DF93AD
:102400001F92CDB7DEB78FEF898361E0CE010196D1
:1024100093DF64E080E593E08FDF83E0898361E010
:10242000CE01019689DF0F90DF91CF910895803121
:10243000910560F4FC01E451FF4FE491F0E070E09D
:102440006250710981E0E617F70709F080E008950E
:10245000CF93DF9300D0CDB7DEB786E1898383E0E9
:102460008A8362E0CE01019667DF0F900F90DF91C3
:10247000CF910895CF93DF9300D0CDB7DEB786E03C
:10248000898383E08A8362E0CE01019655DF0F9055
:102490000F90DF91CF910895EF92FF920F93FC017F
:1024A000218102810F70F0E12F9F000D1124009314
:1024B0002201409125015091260180E1E82E85E01E
:1024C000F82E2091230160912401809127019091A1
:1024D0002801EDDCC70102D60F91FF90EF90CACF23
:1024E00060E070E087EF94E00E944C0AC3CF1F9237
:1024F0000F920FB60F9211240BB60F921F932F93CA
:102500003F934F935F936F937F938F939F93AF937B
:10251000BF93CF93DF93EF93FF93F894C0919C0008
:102520006C2F70E040E150E08CEF90E00E94111BB6
:10253000892B11F010926B0380916B03803211F4A0
:1025400010926B0310916B03E12FF0E0E459FC4F04
:10255000C0831F5F10936B03C33019F580916C0328
:10256000682F70E040E150E08CEF90E00E94111B7A
:102570000097B9F0EC01CC5FD040612FCE0157DF5E
:10258000882361F0FE01EE0FFF1FE453FF4F2591FA
:1025900034918CE693E0F901099501C059DF10925E
:1025A0006B037894FF91EF91DF91CF91BF91AF9141
:1025B0009F918F917F916F915F914F913F912F915B
:1025C0001F910F900BBE0F900FBE0F901F9018958C
:1025D000EF92FF920F93FC0180818F7090E0982F13
:1025E0008827218140E1249F900111243327820F05
:1025F000931F22812F70820F911D90932801809349
:102600002701238164816F7070E1279F600D112481
:102610006093240145814F7050E0542F4427268158
:1026200070E1279F900111243327420F531F278108
:102630002F70420F511D5093260140932501308584
:1026400021852F7070E1379F200D112420932301E5
:10265000328503850F7070E1379F000D11240093C0
:10266000220170E1E72E75E0F72E21DC0F91FF903B
:10267000EF9008950196ACDF80E195E055D5FACE54
:102680000F931F93CF93DF93CDB7DEB728970FB685
:10269000F894DEBF0FBECDBFDC011196E9EFF4E088
:1026A0008D918F70819385E0E030F807C9F789EF4D
:1026B00094E00E94610298878F838E010F5F1F4F05
:1026C00086E0F80111928A95E9F746E0B801CE015B
:1026D00007960E94BD02C8017BDF66E0C8012CDEC0
:1026E00028960FB6F894DEBF0FBECDBFDF91CF9115
:1026F0001F910F9108950F931F93CF93DF93CDB741
:10270000DEB728970FB6F894DEBF0FBECDBF8C01A1
:1027100001960E94610298878F83C801089658DF4E
:1027200060E175E08F8198850E94B8028E010F5F8D
:102730001F4F86E0F80111928A95E9F746E0B8014B
:10274000CE0107960E94BD0246E050E060E175E0D0
:10275000C80174D7892B11F48DDE01C079DE28966B
:102760000FB6F894DEBF0FBECDBFDF91CF911F91A2
:102770000F9108950F931F93CF93DF93EC018C017A
:10278000035F1F4FB8018EEF9FE00E94BF01998148
:102790008889887F911102C08C5F01C08A5F888B15
:1027A000B8018EEF97E0DF91CF911F910F910C94BC
:1027B0009A01CF93C82F68E075E08DEF9FE00E94EB
:1027C000BF01EBE0F5E08C2F8F7790819078892B1B
:1027D000808368E075E08DEF97E0CF910C949A01CB
:1027E0002091F9048091FA043AE0839FC0011124FA
:1027F00034E6239F800D911D11242091FB04820F4C
:10280000911D0F9765E070E0F5D6CB010895CF9349
:10281000FC012181C281CF70F0E12F9FC00D1124F6
:102820008C2FC7DFDDDFFC01E950FB4FC0A3CF9148
:1028300021CED6DFEBE0F5E089509B4F2081207858
:10284000DC0190968C91822B808368E075E08DEF9F
:1028500097E00C949A01CF93DF93CDB7DEB76197E1
:102860000FB6F894DEBF0FBECDBFFC01BE016F5F97
:102870007F4F8DE0DB011D928A95E9F79081818180
:10288000B0E19B9F800D11248D839281838120E193
:10289000929F800D11248E8394818581A0E19A9F5F
:1028A000800D11248F8386818295807F888787EFB2
:1028B00097E00E949A01BE016B5F7F4F86EF97E021
:1028C0000E949A01BE01675F7F4F85EF97E00E94EB
:1028D0009A0184E08E871F86188A198ABE01625F7A
:1028E0007F4F84EF97E00E949A0184E191E0019785
:1028F000F1F70000819BFECF9CDF61960FB6F89444
:10290000DEBF0FBECDBFDF91CF9108950F931F9310
:10291000CF93DF93EC018C01075B1F4FF80180819F
:10292000813031F4CE010E94EC0793519331D0F005
:10293000F80180818230D1F4CE010E94EC079450DE
:102940009430A0F481E595E04ED560E070E087EF2B
:1029500094E00E944C0ACE01DF91CF911F910F911C
:102960000C94540881E595E0B1D5EFCFF801808152
:10297000823041F5CE010E94EC079151913110F562
:1029800089EF94E068DF5091FA044091FB04609174
:10299000F90428EE33E0629FC001639F900D11247B
:1029A000F4E65F9F800D911D11242AE0429F800D67
:1029B000911D11242091FC0461E575E0820F911DA9
:1029C0005ED5C3CF60E081E595E09DD4BECFDC014C
:1029D0001196E9EFF4E08D918F70819385E0E030FE
:1029E000F807C9F789EF94E036DF44CDEF92FF9204
:1029F0000F931F93CF93DF93CDB7DEB72E970FB60C
:102A0000F894DEBF0FBECDBFDC011196E9EFF4E014
:102A10008D918F70819385E0E030F807C9F789EFD9
:102A200094E019DF89EF94E00E94610260E175E0B3
:102A30000E94FD0280E195E077D31CDDAFEFB5E3A6
:102A40001197F1F700C00000E0E1EE2EE5E0FE2E68
:102A500002E211E023E231E045E251E064E271E09C
:102A600087E291E08ADAFE0131968EE0DF011D9265
:102A70008A95E9F785E8898383E08E87809127012D
:102A8000909128019C0122273F7020E3230F2A8385
:102A90009C01207F3327F4E036952795FA95E1F7DE
:102AA000205D2B838F70805D8C8380912401982F13
:102AB00092959F70905D9D838F70805D8E838091D5
:102AC0002501909126019C0122273F7020E3230FCE
:102AD0002F839C01207F3327A4E036952795AA9564
:102AE000E1F7205D28878F70805D898780912301C1
:102AF000982F92959F70905D9A878F70805D8B87DD
:102B000080912201982F92959F70905D9C878F7085
:102B1000805D8D878FEF9BE60197F1F700C0000085
:102B20006EE0CE01019608DC2E960FB6F894DEBF5B
:102B30000FBECDBFDF91CF911F910F91FF90EF900E
:102B400008951F93CF93DF93DC011196E9EFF4E032
:102B50008D918F70819385E0E030F807C9F789EF98
:102B600094E079DE8FEF9BE60197F1F700C000005B
:102B70003091FA042091FB044091F90488EE93E02F
:102B8000489FE001499FD00D112494E6399FC00D64
:102B9000D11D11248AE0289FC00DD11D11248091E0
:102BA000FC04C80FD11D1091F8041092F80487EFAF
:102BB00094E0E0DD61E575E0CE0161D41093F804A6
:102BC00087EF94E0D7DD8FEF9BE60197F1F700C028
:102BD000000081E595E07AD4DF91CF911F914ACC36
:102BE000FC0140818181282F30E0FAE04F9F200DC9
:102BF000311D11242E31310549F02130310541F0CC
:102C000082509AE0499F800D112408958DE1089526
:102C100080E00895CF93DF9300D0CDB7DEB78AE58B
:102C200089838EE38A8342E0BE016F5F7F4F88EF26
:102C30009FEF0E9484020F900F90DF91CF91089533
:102C400086E00E94DC008093F50489EF94E0C8DF01
:102C500065EF74E090E00E94BA02DCCFF1DF0ACCAD
:102C6000CF93DF931F92CDB7DEB789EF94E0B8DF43
:102C7000BE016F5F7F4F90E00E940D0389810F902E
:102C8000DF91CF910895811102C0C79801C0C79A02
:102C900090915005911106C0811102C01C980895B1
:102CA0001C9A0895913021F4811190E0892F5BC323
:102CB0000895EF92FF920F931F9389EF94E00E9483
:102CC000610289EF94E00E94610260E175E00E9478
:102CD000FD02B0E1EB2EB5E0FB2E02E211E023E2B3
:102CE00031E045E251E064E271E087E291E045D9EC
:102CF00081E0C9DFC70118D28091F7041F910F91BD
:102D0000FF90EF90C0CFBF92CF92DF92EF92FF92F1
:102D10000F931F93CF93DF938C017C0189E4E80E1E
:102D2000F11CF7018081813009F06BC06801F8E483
:102D3000CF0ED11CF6018081873008F046C060E0DC
:102D400070E087EF94E00E944C0A89EF94E083DD05
:102D50008091500581110AC0ACDF82DF8093160597
:102D600086EE93E090935A05809359058091500523
:102D7000813059F53091FA042091FB044091F90417
:102D800088EE93E0489FE001499FD00D1124F4E6BE
:102D90003F9FC00DD11D11248AE0289FC00DD11D79
:102DA00011248091FC04C80FD11DB090F80410923A
:102DB000F80487EF94E0DEDC61E575E0CE015FD3D7
:102DC000B092F80487EF94E0D5DCF601808187307B
:102DD000C1F4C091F8041092F80487EF94E0CADCC3
:102DE00080915005811101C031D080915005813012
:102DF00019F481E595E06AD3C093F80487EF94E075
:102E0000B9DCF7018081823091F4F801E85BFF4F73
:102E10008081823061F480915005813041F48CE8EA
:102E200093E090935A05809359050E94540880912D
:102E3000590590915A05DF91CF911F910F91FF9005
:102E4000EF90DF90CF90BF900C945408EF92FF92D8
:102E50000F93CF93DF932DDF03DFC82F86E00E940F
:102E6000DC008093F504D0E02091F50430E02C1BC9
:102E70003D0BA90137FF04C044275527421B530BC4
:102E800043305105C4F1809122011216130614F447
:102E90008F5F01C0815080932201009122010023A5
:102EA00051F10F3341F1409125015091260180E10C
:102EB000E82E85E0F82E2091230160912401809175
:102EC0002701909128010E94570FC70107D18091D7
:102ED000220185FD05C086E695E00197F1F704C063
:102EE00084E191E00197F1F7000086E00E94DC00A8
:102EF0008093F504B9CFDF91CF910F91FF90EF90C0
:102F000008950F931F93CF93DF93EC018C01075B20
:102F10001F4FF8018081823021F43197808188230E
:102F2000B9F1F8018081823031F4FE01E85BFF4F96
:102F300090819130A9F1F8018081823031F4FE0155
:102F4000E85BFF4F80818330A1F1F80180818130FF
:102F5000C1F40F89188DCE010E94EC07F801E90F2A
:102F6000F11D31978081883561F4FE01E85BFF4FE8
:102F7000E081F0E0E950FB4F8281893040F58F5FBE
:102F80008283CE01DF91CF911F910F910C94540851
:102F90008091F70491E089278093F70474DEC1CF14
:102FA0008091F80489278093F80487EF94E0E2DBAE
:102FB000C2CF81E090915005911180E0809350053F
:102FC00060E070E087EF94E00E944C0ABECF12826E
:102FD000D8CF0F931F93CF93DF93EC018C01075B46
:102FE0001F4FF8018081823021F43197808188233E
:102FF000B9F1F8018081823031F4FE01E85BFF4FC6
:1030000090819130A9F1F8018081823031F4FE0184
:10301000E85BFF4F80818330A1F1F801808181302E
:10302000C1F40F89188DCE010E94EC07F801E90F59
:10303000F11D31978081883561F4FE01E85BFF4F17
:10304000E081F0E0E950FB4F8281882341F181501B
:103050008283CE01DF91CF911F910F910C94540880
:103060008091F70491E089278093F7040CDEC1CFAB
:103070008091F80489278093F80487EF94E07ADB45
:10308000C2CF81E090915005911180E0809350056E
:1030900060E070E087EF94E00E944C0ABECF89E0C8
:1030A000D7CFFC0181818F70EEDDE4C98FE00E94F3
:1030B000410485E593E00E9436040E9480038BE979
:1030C00094E090935A05809359050E94540884E92E
:1030D00094E00E948103FBCF0C94B105F8942FE09B
:1030E00030E01E9845E24A95F1F7FC014481558194
:1030F000022E02C0569547950A94E2F740FD02C0A1
:103100001F9801C01F9AF5E2FA95F1F71E9A45E261
:103110004A95F1F7215031092730310511F71E98F2
:103120001D981F98789408950F931F93CF93DF9362
:103130008C01F89481E0A7DDC8E1D0E08C2F8F5E90
:10314000813158F41D9825E22A95F1F7F801808124
:1031500091819E01205F3F4F28C0C031D0F41D985F
:1031600085E28A95F1F7F801828193810C2E02C0E5
:10317000969587950A94E2F780FD02C01F9801C0DA
:103180001F9A25E22A95F1F71D9A85E28A95F1F7B3
:1031900020C08932E1F01D98E5E2EA95F1F7F801E7
:1031A000848195819E012051310902C096958795B1
:1031B0002A95E2F780FD02C01F9801C01F9AF5E230
:1031C000FA95F1F71D9A25E22A95F1F702C0C80198
:1031D00085DF2197CF3E8FEFD80709F0AFCF1E983C
:1031E0001D981F9880E04FDD7894DF91CF911F915B
:1031F0000F910895159A179A1F981D9827E32A95FD
:10320000F1F7000090E0981761F01F9A27E02A95E7
:10321000F1F700C01F9827E02A95F1F700C09F5FE3
:10322000F2CF1D9A1F980895CF93DF93EC0185E0AC
:10323000E1DF169A179A1F981E9888E01F9897E06A
:103240009A95F1F700C01E9A97E09A95F1F700C0A1
:103250001E9897E09A95F1F700C0815079F729E020
:1032600030E0CE01022E02C0969587950A94E2F7CF
:1032700080FD02C01F9801C01F9A87E08A95F1F770
:1032800000C01E9A97E09A95F1F700C01E9887E05B
:103290008A95F1F700C02150310918F786E01F9890
:1032A00097E09A95F1F700C01E9A97E09A95F1F78A
:1032B00000C01E9897E09A95F1F700C0815079F709
:1032C0001E9885E0DF91CF9195CF169A179A1F9897
:1032D0001E9898E087FD02C01F9801C01F9A27E042
:1032E0002A95F1F700C01E9A27E02A95F1F700C051
:1032F0001E9827E02A95F1F700C0880F915051F7EA
:103300001F981E9808951F93CF93DF93EC01162FFB
:10331000623099F030F06430D9F048F0653099F0BF
:103320001EC081E067DF8881D0DF111118C083E003
:1033300061DF8A81CADF111112C082E05BDF8981FF
:10334000C4DF11110CC08C819D816EDF111107C08B
:1033500084E050DF8B81DF91CF911F91B6CFDF9159
:10336000CF911F910895149A882311F01C98089505
:103370001C9A0895CF93DB0120918E0130918F012B
:1033800050919001709191016091920140E0C5E0EF
:10339000232BD9F0C49FF0011124E257FE4F208166
:1033A00031815281738164812817390764F4411196
:1033B000415085E0489FF0011124E257FE4F5281B1
:1033C0007381648102C04F5FE3CF11967C931197A4
:1033D00012966C9312975C9313961C92139760E06D
:1033E000CD01CF9190CFBF92CF92DF92EF92FF921B
:1033F0000F931F93CF93DF938C01CC24CA94E3E007
:10340000DE2EE12CF12CC6018E199F099C0197FF3D
:1034100004C022273327281B390B2330310504F140
:1034200097FD0196EC01D595C795CE0DDF1DCE0118
:103430000297F80195838483F7DE86E00E94DC0022
:10344000B82ECE010296F80195838483EDDE86E0E6
:103450000E94DC00B81610F47E01D5CF6E01D3CFE8
:10346000F801D583C48360E0C801DF91CF911F913B
:103470000F91FF90EF90DF90CF90BF9044CF0F93CC
:103480001F93CF93DF93CDB7DEB728970FB6F8948D
:10349000DEBF0FBECDBF8B01BE016F5F7F4F6ADF06
:1034A000CE010196A0DF88E0FE013196D80101909F
:1034B0000D928A95E1F728960FB6F894DEBF0FBEFD
:1034C000CDBFDF91CF911F910F910895AF92BF9221
:1034D000CF92DF92EF92FF920F931F93CF93DF93E0
:1034E000CDB7DEB728970FB6F894DEBF0FBECDBFBD
:1034F0008C0188E0F801DE01119601900D928A9509
:10350000E1F71C8264E0CE010196FDDE86E00E94B8
:10351000DC00C82E8FE18C8364E0CE010196F3DEDF
:1035200086E00E94DC00AFE1AA2EB12CB0EFEB2EBA
:10353000F12C2A2D30E02B193109223031050CF104
:1035400035952795DB2CD20EDC8264E0CE01019606
:10355000DADE86E00E94DC00F701E81BF109B70122
:103560006C197109E69FA001E79F500DF69F500D61
:103570001124141615061CF4C82EBD2CDA2CAD2C03
:10358000D8CF88E0FE013196D80101900D928A953E
:10359000E1F728960FB6F894DEBF0FBECDBFDF91DE
:1035A000CF911F910F91FF90EF90DF90CF90BF9040
:1035B000AF900895991B79E004C0991F961708F001
:1035C000961B881F7A95C9F780950895AA1BBB1B87
:1035D00051E107C0AA1FBB1FA617B70710F0A61B13
:1035E000B70B881F991F5A95A9F780959095BC0134
:1035F000CD01089597FB072E16F4009406D077FDB1
:1036000008D0E4DF07FC05D03EF4909581959F4FEC
:103610000895709561957F4F08950790F691E02D7C
:103620000994FC014150504030F005900616D1F746
:103630003197CF010895882799270895FB01DC0170
:1036400004C08D910190801921F441505040C8F779
:10365000881B990B0895FB01DC0102C001900D92BB
:1036600041505040D8F70895FC018191861721F010
:103670008823D9F7992708953197CF010895DC0160
:10368000A40FB51F4150504040F0CB01840F951F4F
:103690002E9105D041505040D8F70895262FE1993A
:1036A000FECF9FBB8EBBE09A01970DB2021631F0A0
:1036B0002DBB0FB6F894E29AE19A0FBE0895F894E4
:0236C000FFCF3A
:1036C2000506010203045505570551055205530528
:1036D20054054C5A315400325400CED2CF00C7C0E8
:1036E200CF00294B656D06D90D3031323334353672
:1036F2003738394142434445464D0020202020209E
:1037020020202020202020202020202020202000D7
:1037120020202020202020202020202020202020A7
:103722002020200000746573746F76616A612066E0
:1037320069676E61206667686A206B6A686764669B
:10374200736572747975686E6D6B6C6664009A0B42
:10375200010001C409010101FC080102014808013C
:103762000402C20601080454060109042C06010AD7
:10377200041D06010A080E060200011405020101D9
:10378200F6040202017E04020402CA0302080820AF
:1037920003020D081103020D0C0C03040001AD021B
:1037A20004010194020402015802040402F4010417
:1037B2000802CC01040A02B801040C049001040FAF
:1037C2000C8B010800015E010801014A0108020197
:1037D2002C01080401FA00080802DC00080C02C8E7
:1037E20000080F03B900081409A5000819099B0075
:1037F200081E099600081F090000000000000800CA
:1038020004000200018000400020001000080004B3
:103812000002000100804020100804020120202044
:1038220053454C20464C415348204552524F52205A
:1038320020001027E80364000A00010000000000D5
:103842002C012C012C012C014B00000005000A0068
:10385200140028005000640096002C015802B004A5
:103862006009B80B4E756C6C00585858204D4F4487
:103872003A585820D3F1F220533A582000463D5886
:10388200585858582C585820EAC3F620CDE0F1F287
:10389200F000404040435F5852405858405858400A
:1038A20058584058584000235840435F5852405897
:1038B20058405858405858405858400040413D5888
:1038C20058404C313D58584043313D58585840407B
:1038D2000044433D5858404C323D58584043323DD5
:1038E20058585858580043313D585858582B585832
:1038F20040404040463A58585858004C3D5858406D
:10390200433D5858404C693D585840413D58580035
:103912004C53503000202020202020C7C0C3D0D3D9
:0A392200C7CAC0202020202020008A
:00000001FF
